###############################################################################
#
# IAR ELF Linker V8.30.2.160/W32 for ARM                  06/Nov/2019  10:34:56
# Copyright 2007-2018 IAR Systems AB.
#
#    Output file  =  
#        D:\awtk-imxrt1052-raw\awtk_project\iar\awtk_gui_demo\Exe\awtk_gui_demo.out
#    Map file     =  
#        D:\awtk-imxrt1052-raw\awtk_project\iar\awtk_gui_demo\List\awtk_gui_demo.map
#    Command line =  
#        -f C:\Users\THINKP~1\AppData\Local\Temp\EW50F1.tmp
#        (D:\awtk-imxrt1052-raw\awtk_project\iar\awtk_gui_demo\Obj\app_bar.o
#        D:\awtk-imxrt1052-raw\awtk_project\iar\awtk_gui_demo\Obj\assets.o
#        D:\awtk-imxrt1052-raw\awtk_project\iar\awtk_gui_demo\Obj\assets_manager.o
#        D:\awtk-imxrt1052-raw\awtk_project\iar\awtk_gui_demo\Obj\awtk_global.o
#        D:\awtk-imxrt1052-raw\awtk_project\iar\awtk_gui_demo\Obj\bitmap.o
#        D:\awtk-imxrt1052-raw\awtk_project\iar\awtk_gui_demo\Obj\blend_image_bgr565_bgr565.o
#        D:\awtk-imxrt1052-raw\awtk_project\iar\awtk_gui_demo\Obj\blend_image_bgr565_bgra8888.o
#        D:\awtk-imxrt1052-raw\awtk_project\iar\awtk_gui_demo\Obj\blend_image_bgr565_rgba8888.o
#        D:\awtk-imxrt1052-raw\awtk_project\iar\awtk_gui_demo\Obj\blend_image_bgr888_bgr565.o
#        D:\awtk-imxrt1052-raw\awtk_project\iar\awtk_gui_demo\Obj\blend_image_bgr888_bgra8888.o
#        D:\awtk-imxrt1052-raw\awtk_project\iar\awtk_gui_demo\Obj\blend_image_bgr888_rgba8888.o
#        D:\awtk-imxrt1052-raw\awtk_project\iar\awtk_gui_demo\Obj\blend_image_bgra8888_bgr565.o
#        D:\awtk-imxrt1052-raw\awtk_project\iar\awtk_gui_demo\Obj\blend_image_bgra8888_bgra8888.o
#        D:\awtk-imxrt1052-raw\awtk_project\iar\awtk_gui_demo\Obj\blend_image_bgra8888_rgba8888.o
#        D:\awtk-imxrt1052-raw\awtk_project\iar\awtk_gui_demo\Obj\blend_image_rgb565_bgr565.o
#        D:\awtk-imxrt1052-raw\awtk_project\iar\awtk_gui_demo\Obj\blend_image_rgb565_bgra8888.o
#        D:\awtk-imxrt1052-raw\awtk_project\iar\awtk_gui_demo\Obj\blend_image_rgb565_rgba8888.o
#        D:\awtk-imxrt1052-raw\awtk_project\iar\awtk_gui_demo\Obj\blend_image_rgba8888_bgr565.o
#        D:\awtk-imxrt1052-raw\awtk_project\iar\awtk_gui_demo\Obj\blend_image_rgba8888_bgra8888.o
#        D:\awtk-imxrt1052-raw\awtk_project\iar\awtk_gui_demo\Obj\blend_image_rgba8888_rgba8888.o
#        D:\awtk-imxrt1052-raw\awtk_project\iar\awtk_gui_demo\Obj\board.o
#        D:\awtk-imxrt1052-raw\awtk_project\iar\awtk_gui_demo\Obj\bsp_i2c_touch.o
#        D:\awtk-imxrt1052-raw\awtk_project\iar\awtk_gui_demo\Obj\bsp_lcd.o
#        D:\awtk-imxrt1052-raw\awtk_project\iar\awtk_gui_demo\Obj\bsp_systick.o
#        D:\awtk-imxrt1052-raw\awtk_project\iar\awtk_gui_demo\Obj\bsvg.o
#        D:\awtk-imxrt1052-raw\awtk_project\iar\awtk_gui_demo\Obj\bsvg_builder.o
#        D:\awtk-imxrt1052-raw\awtk_project\iar\awtk_gui_demo\Obj\bsvg_draw.o
#        D:\awtk-imxrt1052-raw\awtk_project\iar\awtk_gui_demo\Obj\bsvg_to_svg.o
#        D:\awtk-imxrt1052-raw\awtk_project\iar\awtk_gui_demo\Obj\buffer.o
#        D:\awtk-imxrt1052-raw\awtk_project\iar\awtk_gui_demo\Obj\button.o
#        D:\awtk-imxrt1052-raw\awtk_project\iar\awtk_gui_demo\Obj\button_group.o
#        D:\awtk-imxrt1052-raw\awtk_project\iar\awtk_gui_demo\Obj\calibration_win.o
#        D:\awtk-imxrt1052-raw\awtk_project\iar\awtk_gui_demo\Obj\candidates.o
#        D:\awtk-imxrt1052-raw\awtk_project\iar\awtk_gui_demo\Obj\canvas.o
#        D:\awtk-imxrt1052-raw\awtk_project\iar\awtk_gui_demo\Obj\canvas_widget.o
#        D:\awtk-imxrt1052-raw\awtk_project\iar\awtk_gui_demo\Obj\check_button.o
#        D:\awtk-imxrt1052-raw\awtk_project\iar\awtk_gui_demo\Obj\children_layouter.o
#        D:\awtk-imxrt1052-raw\awtk_project\iar\awtk_gui_demo\Obj\children_layouter_builtins.o
#        D:\awtk-imxrt1052-raw\awtk_project\iar\awtk_gui_demo\Obj\children_layouter_default.o
#        D:\awtk-imxrt1052-raw\awtk_project\iar\awtk_gui_demo\Obj\children_layouter_factory.o
#        D:\awtk-imxrt1052-raw\awtk_project\iar\awtk_gui_demo\Obj\children_layouter_list_view.o
#        D:\awtk-imxrt1052-raw\awtk_project\iar\awtk_gui_demo\Obj\children_layouter_parser.o
#        D:\awtk-imxrt1052-raw\awtk_project\iar\awtk_gui_demo\Obj\clip_board.o
#        D:\awtk-imxrt1052-raw\awtk_project\iar\awtk_gui_demo\Obj\clip_board_default.o
#        D:\awtk-imxrt1052-raw\awtk_project\iar\awtk_gui_demo\Obj\clip_board_sdl.o
#        D:\awtk-imxrt1052-raw\awtk_project\iar\awtk_gui_demo\Obj\clock_config.o
#        D:\awtk-imxrt1052-raw\awtk_project\iar\awtk_gui_demo\Obj\color.o
#        D:\awtk-imxrt1052-raw\awtk_project\iar\awtk_gui_demo\Obj\color_component.o
#        D:\awtk-imxrt1052-raw\awtk_project\iar\awtk_gui_demo\Obj\color_parser.o
#        D:\awtk-imxrt1052-raw\awtk_project\iar\awtk_gui_demo\Obj\color_picker.o
#        D:\awtk-imxrt1052-raw\awtk_project\iar\awtk_gui_demo\Obj\color_tile.o
#        D:\awtk-imxrt1052-raw\awtk_project\iar\awtk_gui_demo\Obj\column.o
#        D:\awtk-imxrt1052-raw\awtk_project\iar\awtk_gui_demo\Obj\combo_box.o
#        D:\awtk-imxrt1052-raw\awtk_project\iar\awtk_gui_demo\Obj\combo_box_ex.o
#        D:\awtk-imxrt1052-raw\awtk_project\iar\awtk_gui_demo\Obj\combo_box_item.o
#        D:\awtk-imxrt1052-raw\awtk_project\iar\awtk_gui_demo\Obj\compressor.o
#        D:\awtk-imxrt1052-raw\awtk_project\iar\awtk_gui_demo\Obj\core_delay.o
#        D:\awtk-imxrt1052-raw\awtk_project\iar\awtk_gui_demo\Obj\crc.o
#        D:\awtk-imxrt1052-raw\awtk_project\iar\awtk_gui_demo\Obj\darray.o
#        D:\awtk-imxrt1052-raw\awtk_project\iar\awtk_gui_demo\Obj\date_time.o
#        D:\awtk-imxrt1052-raw\awtk_project\iar\awtk_gui_demo\Obj\demo_main.o
#        D:\awtk-imxrt1052-raw\awtk_project\iar\awtk_gui_demo\Obj\demo_ui_app.o
#        D:\awtk-imxrt1052-raw\awtk_project\iar\awtk_gui_demo\Obj\dialog.o
#        D:\awtk-imxrt1052-raw\awtk_project\iar\awtk_gui_demo\Obj\dialog_client.o
#        D:\awtk-imxrt1052-raw\awtk_project\iar\awtk_gui_demo\Obj\dialog_helper.o
#        D:\awtk-imxrt1052-raw\awtk_project\iar\awtk_gui_demo\Obj\dialog_highlighter.o
#        D:\awtk-imxrt1052-raw\awtk_project\iar\awtk_gui_demo\Obj\dialog_highlighter_builtins.o
#        D:\awtk-imxrt1052-raw\awtk_project\iar\awtk_gui_demo\Obj\dialog_highlighter_default.o
#        D:\awtk-imxrt1052-raw\awtk_project\iar\awtk_gui_demo\Obj\dialog_highlighter_factory.o
#        D:\awtk-imxrt1052-raw\awtk_project\iar\awtk_gui_demo\Obj\dialog_title.o
#        D:\awtk-imxrt1052-raw\awtk_project\iar\awtk_gui_demo\Obj\dictlist.o
#        D:\awtk-imxrt1052-raw\awtk_project\iar\awtk_gui_demo\Obj\dicttrie.o
#        D:\awtk-imxrt1052-raw\awtk_project\iar\awtk_gui_demo\Obj\digit_clock.o
#        D:\awtk-imxrt1052-raw\awtk_project\iar\awtk_gui_demo\Obj\draggable.o
#        D:\awtk-imxrt1052-raw\awtk_project\iar\awtk_gui_demo\Obj\dragger.o
#        D:\awtk-imxrt1052-raw\awtk_project\iar\awtk_gui_demo\Obj\easing.o
#        D:\awtk-imxrt1052-raw\awtk_project\iar\awtk_gui_demo\Obj\edit.o
#        D:\awtk-imxrt1052-raw\awtk_project\iar\awtk_gui_demo\Obj\emitter.o
#        D:\awtk-imxrt1052-raw\awtk_project\iar\awtk_gui_demo\Obj\emojidef.o
#        D:\awtk-imxrt1052-raw\awtk_project\iar\awtk_gui_demo\Obj\enums.o
#        D:\awtk-imxrt1052-raw\awtk_project\iar\awtk_gui_demo\Obj\event.o
#        D:\awtk-imxrt1052-raw\awtk_project\iar\awtk_gui_demo\Obj\event_queue.o
#        D:\awtk-imxrt1052-raw\awtk_project\iar\awtk_gui_demo\Obj\event_source.o
#        D:\awtk-imxrt1052-raw\awtk_project\iar\awtk_gui_demo\Obj\event_source_fd.o
#        D:\awtk-imxrt1052-raw\awtk_project\iar\awtk_gui_demo\Obj\event_source_idle.o
#        D:\awtk-imxrt1052-raw\awtk_project\iar\awtk_gui_demo\Obj\event_source_manager.o
#        D:\awtk-imxrt1052-raw\awtk_project\iar\awtk_gui_demo\Obj\event_source_manager_default.o
#        D:\awtk-imxrt1052-raw\awtk_project\iar\awtk_gui_demo\Obj\event_source_timer.o
#        D:\awtk-imxrt1052-raw\awtk_project\iar\awtk_gui_demo\Obj\events.o
#        D:\awtk-imxrt1052-raw\awtk_project\iar\awtk_gui_demo\Obj\expr_eval.o
#        D:\awtk-imxrt1052-raw\awtk_project\iar\awtk_gui_demo\Obj\ext_widgets.o
#        D:\awtk-imxrt1052-raw\awtk_project\iar\awtk_gui_demo\Obj\fill_image_abgr8888.o
#        D:\awtk-imxrt1052-raw\awtk_project\iar\awtk_gui_demo\Obj\fill_image_argb8888.o
#        D:\awtk-imxrt1052-raw\awtk_project\iar\awtk_gui_demo\Obj\fill_image_bgr565.o
#        D:\awtk-imxrt1052-raw\awtk_project\iar\awtk_gui_demo\Obj\fill_image_bgr888.o
#        D:\awtk-imxrt1052-raw\awtk_project\iar\awtk_gui_demo\Obj\fill_image_bgra8888.o
#        D:\awtk-imxrt1052-raw\awtk_project\iar\awtk_gui_demo\Obj\fill_image_rgb565.o
#        D:\awtk-imxrt1052-raw\awtk_project\iar\awtk_gui_demo\Obj\fill_image_rgba8888.o
#        D:\awtk-imxrt1052-raw\awtk_project\iar\awtk_gui_demo\Obj\fire_imxrt1052_sdram_ini_dcd.o
#        D:\awtk-imxrt1052-raw\awtk_project\iar\awtk_gui_demo\Obj\fire_imxrt1052_spiflash_config.o
#        D:\awtk-imxrt1052-raw\awtk_project\iar\awtk_gui_demo\Obj\font.o
#        D:\awtk-imxrt1052-raw\awtk_project\iar\awtk_gui_demo\Obj\font_loader.o
#        D:\awtk-imxrt1052-raw\awtk_project\iar\awtk_gui_demo\Obj\font_loader_bitmap.o
#        D:\awtk-imxrt1052-raw\awtk_project\iar\awtk_gui_demo\Obj\font_loader_ft.o
#        D:\awtk-imxrt1052-raw\awtk_project\iar\awtk_gui_demo\Obj\font_loader_stb.o
#        D:\awtk-imxrt1052-raw\awtk_project\iar\awtk_gui_demo\Obj\font_manager.o
#        D:\awtk-imxrt1052-raw\awtk_project\iar\awtk_gui_demo\Obj\fs.o
#        D:\awtk-imxrt1052-raw\awtk_project\iar\awtk_gui_demo\Obj\fsl_adc.o
#        D:\awtk-imxrt1052-raw\awtk_project\iar\awtk_gui_demo\Obj\fsl_adc_etc.o
#        D:\awtk-imxrt1052-raw\awtk_project\iar\awtk_gui_demo\Obj\fsl_aipstz.o
#        D:\awtk-imxrt1052-raw\awtk_project\iar\awtk_gui_demo\Obj\fsl_aoi.o
#        D:\awtk-imxrt1052-raw\awtk_project\iar\awtk_gui_demo\Obj\fsl_assert.o
#        D:\awtk-imxrt1052-raw\awtk_project\iar\awtk_gui_demo\Obj\fsl_bee.o
#        D:\awtk-imxrt1052-raw\awtk_project\iar\awtk_gui_demo\Obj\fsl_cache.o
#        D:\awtk-imxrt1052-raw\awtk_project\iar\awtk_gui_demo\Obj\fsl_clock.o
#        D:\awtk-imxrt1052-raw\awtk_project\iar\awtk_gui_demo\Obj\fsl_cmp.o
#        D:\awtk-imxrt1052-raw\awtk_project\iar\awtk_gui_demo\Obj\fsl_common.o
#        D:\awtk-imxrt1052-raw\awtk_project\iar\awtk_gui_demo\Obj\fsl_csi.o
#        D:\awtk-imxrt1052-raw\awtk_project\iar\awtk_gui_demo\Obj\fsl_dcdc.o
#        D:\awtk-imxrt1052-raw\awtk_project\iar\awtk_gui_demo\Obj\fsl_dcp.o
#        D:\awtk-imxrt1052-raw\awtk_project\iar\awtk_gui_demo\Obj\fsl_debug_console.o
#        D:\awtk-imxrt1052-raw\awtk_project\iar\awtk_gui_demo\Obj\fsl_dmamux.o
#        D:\awtk-imxrt1052-raw\awtk_project\iar\awtk_gui_demo\Obj\fsl_edma.o
#        D:\awtk-imxrt1052-raw\awtk_project\iar\awtk_gui_demo\Obj\fsl_elcdif.o
#        D:\awtk-imxrt1052-raw\awtk_project\iar\awtk_gui_demo\Obj\fsl_enc.o
#        D:\awtk-imxrt1052-raw\awtk_project\iar\awtk_gui_demo\Obj\fsl_enet.o
#        D:\awtk-imxrt1052-raw\awtk_project\iar\awtk_gui_demo\Obj\fsl_ewm.o
#        D:\awtk-imxrt1052-raw\awtk_project\iar\awtk_gui_demo\Obj\fsl_flexcan.o
#        D:\awtk-imxrt1052-raw\awtk_project\iar\awtk_gui_demo\Obj\fsl_flexio.o
#        D:\awtk-imxrt1052-raw\awtk_project\iar\awtk_gui_demo\Obj\fsl_flexio_camera.o
#        D:\awtk-imxrt1052-raw\awtk_project\iar\awtk_gui_demo\Obj\fsl_flexio_camera_edma.o
#        D:\awtk-imxrt1052-raw\awtk_project\iar\awtk_gui_demo\Obj\fsl_flexio_i2c_master.o
#        D:\awtk-imxrt1052-raw\awtk_project\iar\awtk_gui_demo\Obj\fsl_flexio_i2s.o
#        D:\awtk-imxrt1052-raw\awtk_project\iar\awtk_gui_demo\Obj\fsl_flexio_i2s_edma.o
#        D:\awtk-imxrt1052-raw\awtk_project\iar\awtk_gui_demo\Obj\fsl_flexio_mculcd.o
#        D:\awtk-imxrt1052-raw\awtk_project\iar\awtk_gui_demo\Obj\fsl_flexio_mculcd_edma.o
#        D:\awtk-imxrt1052-raw\awtk_project\iar\awtk_gui_demo\Obj\fsl_flexio_spi.o
#        D:\awtk-imxrt1052-raw\awtk_project\iar\awtk_gui_demo\Obj\fsl_flexio_spi_edma.o
#        D:\awtk-imxrt1052-raw\awtk_project\iar\awtk_gui_demo\Obj\fsl_flexio_uart.o
#        D:\awtk-imxrt1052-raw\awtk_project\iar\awtk_gui_demo\Obj\fsl_flexio_uart_edma.o
#        D:\awtk-imxrt1052-raw\awtk_project\iar\awtk_gui_demo\Obj\fsl_flexram.o
#        D:\awtk-imxrt1052-raw\awtk_project\iar\awtk_gui_demo\Obj\fsl_flexspi.o
#        D:\awtk-imxrt1052-raw\awtk_project\iar\awtk_gui_demo\Obj\fsl_flexspi_nor_boot.o
#        D:\awtk-imxrt1052-raw\awtk_project\iar\awtk_gui_demo\Obj\fsl_gpc.o
#        D:\awtk-imxrt1052-raw\awtk_project\iar\awtk_gui_demo\Obj\fsl_gpio.o
#        D:\awtk-imxrt1052-raw\awtk_project\iar\awtk_gui_demo\Obj\fsl_gpt.o
#        D:\awtk-imxrt1052-raw\awtk_project\iar\awtk_gui_demo\Obj\fsl_kpp.o
#        D:\awtk-imxrt1052-raw\awtk_project\iar\awtk_gui_demo\Obj\fsl_lpi2c.o
#        D:\awtk-imxrt1052-raw\awtk_project\iar\awtk_gui_demo\Obj\fsl_lpi2c_edma.o
#        D:\awtk-imxrt1052-raw\awtk_project\iar\awtk_gui_demo\Obj\fsl_lpspi.o
#        D:\awtk-imxrt1052-raw\awtk_project\iar\awtk_gui_demo\Obj\fsl_lpspi_edma.o
#        D:\awtk-imxrt1052-raw\awtk_project\iar\awtk_gui_demo\Obj\fsl_lpuart.o
#        D:\awtk-imxrt1052-raw\awtk_project\iar\awtk_gui_demo\Obj\fsl_lpuart_edma.o
#        D:\awtk-imxrt1052-raw\awtk_project\iar\awtk_gui_demo\Obj\fsl_ocotp.o
#        D:\awtk-imxrt1052-raw\awtk_project\iar\awtk_gui_demo\Obj\fsl_pit.o
#        D:\awtk-imxrt1052-raw\awtk_project\iar\awtk_gui_demo\Obj\fsl_pmu.o
#        D:\awtk-imxrt1052-raw\awtk_project\iar\awtk_gui_demo\Obj\fsl_pwm.o
#        D:\awtk-imxrt1052-raw\awtk_project\iar\awtk_gui_demo\Obj\fsl_pxp.o
#        D:\awtk-imxrt1052-raw\awtk_project\iar\awtk_gui_demo\Obj\fsl_qtmr.o
#        D:\awtk-imxrt1052-raw\awtk_project\iar\awtk_gui_demo\Obj\fsl_rtwdog.o
#        D:\awtk-imxrt1052-raw\awtk_project\iar\awtk_gui_demo\Obj\fsl_sai.o
#        D:\awtk-imxrt1052-raw\awtk_project\iar\awtk_gui_demo\Obj\fsl_sai_edma.o
#        D:\awtk-imxrt1052-raw\awtk_project\iar\awtk_gui_demo\Obj\fsl_semc.o
#        D:\awtk-imxrt1052-raw\awtk_project\iar\awtk_gui_demo\Obj\fsl_snvs_hp.o
#        D:\awtk-imxrt1052-raw\awtk_project\iar\awtk_gui_demo\Obj\fsl_snvs_lp.o
#        D:\awtk-imxrt1052-raw\awtk_project\iar\awtk_gui_demo\Obj\fsl_spdif.o
#        D:\awtk-imxrt1052-raw\awtk_project\iar\awtk_gui_demo\Obj\fsl_spdif_edma.o
#        D:\awtk-imxrt1052-raw\awtk_project\iar\awtk_gui_demo\Obj\fsl_src.o
#        D:\awtk-imxrt1052-raw\awtk_project\iar\awtk_gui_demo\Obj\fsl_str.o
#        D:\awtk-imxrt1052-raw\awtk_project\iar\awtk_gui_demo\Obj\fsl_tempmon.o
#        D:\awtk-imxrt1052-raw\awtk_project\iar\awtk_gui_demo\Obj\fsl_trng.o
#        D:\awtk-imxrt1052-raw\awtk_project\iar\awtk_gui_demo\Obj\fsl_tsc.o
#        D:\awtk-imxrt1052-raw\awtk_project\iar\awtk_gui_demo\Obj\fsl_usdhc.o
#        D:\awtk-imxrt1052-raw\awtk_project\iar\awtk_gui_demo\Obj\fsl_wdog.o
#        D:\awtk-imxrt1052-raw\awtk_project\iar\awtk_gui_demo\Obj\fsl_xbara.o
#        D:\awtk-imxrt1052-raw\awtk_project\iar\awtk_gui_demo\Obj\fsl_xbarb.o
#        D:\awtk-imxrt1052-raw\awtk_project\iar\awtk_gui_demo\Obj\func_call_parser.o
#        D:\awtk-imxrt1052-raw\awtk_project\iar\awtk_gui_demo\Obj\generic_list.o
#        D:\awtk-imxrt1052-raw\awtk_project\iar\awtk_gui_demo\Obj\gif_image.o
#        D:\awtk-imxrt1052-raw\awtk_project\iar\awtk_gui_demo\Obj\glyph_cache.o
#        D:\awtk-imxrt1052-raw\awtk_project\iar\awtk_gui_demo\Obj\graphemebreak.o
#        D:\awtk-imxrt1052-raw\awtk_project\iar\awtk_gui_demo\Obj\grid.o
#        D:\awtk-imxrt1052-raw\awtk_project\iar\awtk_gui_demo\Obj\grid_item.o
#        D:\awtk-imxrt1052-raw\awtk_project\iar\awtk_gui_demo\Obj\group_box.o
#        D:\awtk-imxrt1052-raw\awtk_project\iar\awtk_gui_demo\Obj\gt9xx.o
#        D:\awtk-imxrt1052-raw\awtk_project\iar\awtk_gui_demo\Obj\guage.o
#        D:\awtk-imxrt1052-raw\awtk_project\iar\awtk_gui_demo\Obj\guage_pointer.o
#        D:\awtk-imxrt1052-raw\awtk_project\iar\awtk_gui_demo\Obj\hscroll_label.o
#        D:\awtk-imxrt1052-raw\awtk_project\iar\awtk_gui_demo\Obj\hscrollable.o
#        D:\awtk-imxrt1052-raw\awtk_project\iar\awtk_gui_demo\Obj\idle.o
#        D:\awtk-imxrt1052-raw\awtk_project\iar\awtk_gui_demo\Obj\idle_info.o
#        D:\awtk-imxrt1052-raw\awtk_project\iar\awtk_gui_demo\Obj\idle_manager.o
#        D:\awtk-imxrt1052-raw\awtk_project\iar\awtk_gui_demo\Obj\image.o
#        D:\awtk-imxrt1052-raw\awtk_project\iar\awtk_gui_demo\Obj\image_animation.o
#        D:\awtk-imxrt1052-raw\awtk_project\iar\awtk_gui_demo\Obj\image_base.o
#        D:\awtk-imxrt1052-raw\awtk_project\iar\awtk_gui_demo\Obj\image_g2d.o
#        D:\awtk-imxrt1052-raw\awtk_project\iar\awtk_gui_demo\Obj\image_loader.o
#        D:\awtk-imxrt1052-raw\awtk_project\iar\awtk_gui_demo\Obj\image_loader_stb.o
#        D:\awtk-imxrt1052-raw\awtk_project\iar\awtk_gui_demo\Obj\image_manager.o
#        D:\awtk-imxrt1052-raw\awtk_project\iar\awtk_gui_demo\Obj\image_value.o
#        D:\awtk-imxrt1052-raw\awtk_project\iar\awtk_gui_demo\Obj\input_device_status.o
#        D:\awtk-imxrt1052-raw\awtk_project\iar\awtk_gui_demo\Obj\input_engine.o
#        D:\awtk-imxrt1052-raw\awtk_project\iar\awtk_gui_demo\Obj\input_engine_pinyin.o
#        D:\awtk-imxrt1052-raw\awtk_project\iar\awtk_gui_demo\Obj\input_method.o
#        D:\awtk-imxrt1052-raw\awtk_project\iar\awtk_gui_demo\Obj\input_method_creator.o
#        D:\awtk-imxrt1052-raw\awtk_project\iar\awtk_gui_demo\Obj\int_str.o
#        D:\awtk-imxrt1052-raw\awtk_project\iar\awtk_gui_demo\Obj\iostream.o
#        D:\awtk-imxrt1052-raw\awtk_project\iar\awtk_gui_demo\Obj\istream.o
#        D:\awtk-imxrt1052-raw\awtk_project\iar\awtk_gui_demo\Obj\keyboard.o
#        D:\awtk-imxrt1052-raw\awtk_project\iar\awtk_gui_demo\Obj\label.o
#        D:\awtk-imxrt1052-raw\awtk_project\iar\awtk_gui_demo\Obj\layout.o
#        D:\awtk-imxrt1052-raw\awtk_project\iar\awtk_gui_demo\Obj\lcd.o
#        D:\awtk-imxrt1052-raw\awtk_project\iar\awtk_gui_demo\Obj\lcd_mem_bgr565.o
#        D:\awtk-imxrt1052-raw\awtk_project\iar\awtk_gui_demo\Obj\lcd_mem_bgra8888.o
#        D:\awtk-imxrt1052-raw\awtk_project\iar\awtk_gui_demo\Obj\lcd_mem_rgba8888.o
#        D:\awtk-imxrt1052-raw\awtk_project\iar\awtk_gui_demo\Obj\lcd_profile.o
#        D:\awtk-imxrt1052-raw\awtk_project\iar\awtk_gui_demo\Obj\line_break.o
#        D:\awtk-imxrt1052-raw\awtk_project\iar\awtk_gui_demo\Obj\line_number.o
#        D:\awtk-imxrt1052-raw\awtk_project\iar\awtk_gui_demo\Obj\linebreak.o
#        D:\awtk-imxrt1052-raw\awtk_project\iar\awtk_gui_demo\Obj\linebreakdata.o
#        D:\awtk-imxrt1052-raw\awtk_project\iar\awtk_gui_demo\Obj\linebreakdef.o
#        D:\awtk-imxrt1052-raw\awtk_project\iar\awtk_gui_demo\Obj\list_item.o
#        D:\awtk-imxrt1052-raw\awtk_project\iar\awtk_gui_demo\Obj\list_view.o
#        D:\awtk-imxrt1052-raw\awtk_project\iar\awtk_gui_demo\Obj\list_view_h.o
#        D:\awtk-imxrt1052-raw\awtk_project\iar\awtk_gui_demo\Obj\locale_info.o
#        D:\awtk-imxrt1052-raw\awtk_project\iar\awtk_gui_demo\Obj\lpicache.o
#        D:\awtk-imxrt1052-raw\awtk_project\iar\awtk_gui_demo\Obj\lpuart_adapter.o
#        D:\awtk-imxrt1052-raw\awtk_project\iar\awtk_gui_demo\Obj\main.o
#        D:\awtk-imxrt1052-raw\awtk_project\iar\awtk_gui_demo\Obj\main_loop.o
#        D:\awtk-imxrt1052-raw\awtk_project\iar\awtk_gui_demo\Obj\main_loop_rt1052_raw.o
#        D:\awtk-imxrt1052-raw\awtk_project\iar\awtk_gui_demo\Obj\main_loop_simple.o
#        D:\awtk-imxrt1052-raw\awtk_project\iar\awtk_gui_demo\Obj\math.o
#        D:\awtk-imxrt1052-raw\awtk_project\iar\awtk_gui_demo\Obj\matrix.o
#        D:\awtk-imxrt1052-raw\awtk_project\iar\awtk_gui_demo\Obj\matrixsearch.o
#        D:\awtk-imxrt1052-raw\awtk_project\iar\awtk_gui_demo\Obj\mem.o
#        D:\awtk-imxrt1052-raw\awtk_project\iar\awtk_gui_demo\Obj\mledit.o
#        D:\awtk-imxrt1052-raw\awtk_project\iar\awtk_gui_demo\Obj\mutable_image.o
#        D:\awtk-imxrt1052-raw\awtk_project\iar\awtk_gui_demo\Obj\mutex_null.o
#        D:\awtk-imxrt1052-raw\awtk_project\iar\awtk_gui_demo\Obj\mystdlib.o
#        D:\awtk-imxrt1052-raw\awtk_project\iar\awtk_gui_demo\Obj\named_value.o
#        D:\awtk-imxrt1052-raw\awtk_project\iar\awtk_gui_demo\Obj\nanovg.o
#        D:\awtk-imxrt1052-raw\awtk_project\iar\awtk_gui_demo\Obj\nanovg_agge.o
#        D:\awtk-imxrt1052-raw\awtk_project\iar\awtk_gui_demo\Obj\nanovg_vertex.o
#        D:\awtk-imxrt1052-raw\awtk_project\iar\awtk_gui_demo\Obj\native_window.o
#        D:\awtk-imxrt1052-raw\awtk_project\iar\awtk_gui_demo\Obj\native_window_raw.o
#        D:\awtk-imxrt1052-raw\awtk_project\iar\awtk_gui_demo\Obj\new.o
#        D:\awtk-imxrt1052-raw\awtk_project\iar\awtk_gui_demo\Obj\ngram.o
#        D:\awtk-imxrt1052-raw\awtk_project\iar\awtk_gui_demo\Obj\object.o
#        D:\awtk-imxrt1052-raw\awtk_project\iar\awtk_gui_demo\Obj\object_array.o
#        D:\awtk-imxrt1052-raw\awtk_project\iar\awtk_gui_demo\Obj\object_default.o
#        D:\awtk-imxrt1052-raw\awtk_project\iar\awtk_gui_demo\Obj\ostream.o
#        D:\awtk-imxrt1052-raw\awtk_project\iar\awtk_gui_demo\Obj\overlay.o
#        D:\awtk-imxrt1052-raw\awtk_project\iar\awtk_gui_demo\Obj\pages.o
#        D:\awtk-imxrt1052-raw\awtk_project\iar\awtk_gui_demo\Obj\path.o
#        D:\awtk-imxrt1052-raw\awtk_project\iar\awtk_gui_demo\Obj\pin_mux.o
#        D:\awtk-imxrt1052-raw\awtk_project\iar\awtk_gui_demo\Obj\pinyinime.o
#        D:\awtk-imxrt1052-raw\awtk_project\iar\awtk_gui_demo\Obj\platform.o
#        D:\awtk-imxrt1052-raw\awtk_project\iar\awtk_gui_demo\Obj\popup.o
#        D:\awtk-imxrt1052-raw\awtk_project\iar\awtk_gui_demo\Obj\progress_bar.o
#        D:\awtk-imxrt1052-raw\awtk_project\iar\awtk_gui_demo\Obj\progress_circle.o
#        D:\awtk-imxrt1052-raw\awtk_project\iar\awtk_gui_demo\Obj\rect.o
#        D:\awtk-imxrt1052-raw\awtk_project\iar\awtk_gui_demo\Obj\rgb_and_hsv.o
#        D:\awtk-imxrt1052-raw\awtk_project\iar\awtk_gui_demo\Obj\rich_text.o
#        D:\awtk-imxrt1052-raw\awtk_project\iar\awtk_gui_demo\Obj\rich_text_node.o
#        D:\awtk-imxrt1052-raw\awtk_project\iar\awtk_gui_demo\Obj\rich_text_parser.o
#        D:\awtk-imxrt1052-raw\awtk_project\iar\awtk_gui_demo\Obj\rich_text_render_node.o
#        D:\awtk-imxrt1052-raw\awtk_project\iar\awtk_gui_demo\Obj\ring_buffer.o
#        D:\awtk-imxrt1052-raw\awtk_project\iar\awtk_gui_demo\Obj\rom_fs.o
#        D:\awtk-imxrt1052-raw\awtk_project\iar\awtk_gui_demo\Obj\rotate_image_bgr565.o
#        D:\awtk-imxrt1052-raw\awtk_project\iar\awtk_gui_demo\Obj\rotate_image_bgr888.o
#        D:\awtk-imxrt1052-raw\awtk_project\iar\awtk_gui_demo\Obj\rotate_image_bgra8888.o
#        D:\awtk-imxrt1052-raw\awtk_project\iar\awtk_gui_demo\Obj\rotate_image_rgb565.o
#        D:\awtk-imxrt1052-raw\awtk_project\iar\awtk_gui_demo\Obj\rotate_image_rgba8888.o
#        D:\awtk-imxrt1052-raw\awtk_project\iar\awtk_gui_demo\Obj\row.o
#        D:\awtk-imxrt1052-raw\awtk_project\iar\awtk_gui_demo\Obj\scroll_bar.o
#        D:\awtk-imxrt1052-raw\awtk_project\iar\awtk_gui_demo\Obj\scroll_view.o
#        D:\awtk-imxrt1052-raw\awtk_project\iar\awtk_gui_demo\Obj\searchutility.o
#        D:\awtk-imxrt1052-raw\awtk_project\iar\awtk_gui_demo\Obj\self_layouter.o
#        D:\awtk-imxrt1052-raw\awtk_project\iar\awtk_gui_demo\Obj\self_layouter_builtins.o
#        D:\awtk-imxrt1052-raw\awtk_project\iar\awtk_gui_demo\Obj\self_layouter_default.o
#        D:\awtk-imxrt1052-raw\awtk_project\iar\awtk_gui_demo\Obj\self_layouter_factory.o
#        D:\awtk-imxrt1052-raw\awtk_project\iar\awtk_gui_demo\Obj\self_layouter_menu.o
#        D:\awtk-imxrt1052-raw\awtk_project\iar\awtk_gui_demo\Obj\self_layouter_parser.o
#        D:\awtk-imxrt1052-raw\awtk_project\iar\awtk_gui_demo\Obj\serial_manager.o
#        D:\awtk-imxrt1052-raw\awtk_project\iar\awtk_gui_demo\Obj\serial_port_uart.o
#        D:\awtk-imxrt1052-raw\awtk_project\iar\awtk_gui_demo\Obj\shortcut.o
#        D:\awtk-imxrt1052-raw\awtk_project\iar\awtk_gui_demo\Obj\slide_indicator.o
#        D:\awtk-imxrt1052-raw\awtk_project\iar\awtk_gui_demo\Obj\slide_menu.o
#        D:\awtk-imxrt1052-raw\awtk_project\iar\awtk_gui_demo\Obj\slide_view.o
#        D:\awtk-imxrt1052-raw\awtk_project\iar\awtk_gui_demo\Obj\slider.o
#        D:\awtk-imxrt1052-raw\awtk_project\iar\awtk_gui_demo\Obj\slist.o
#        D:\awtk-imxrt1052-raw\awtk_project\iar\awtk_gui_demo\Obj\socket_pair.o
#        D:\awtk-imxrt1052-raw\awtk_project\iar\awtk_gui_demo\Obj\soft_g2d.o
#        D:\awtk-imxrt1052-raw\awtk_project\iar\awtk_gui_demo\Obj\spellingtrie.o
#        D:\awtk-imxrt1052-raw\awtk_project\iar\awtk_gui_demo\Obj\spin_box.o
#        D:\awtk-imxrt1052-raw\awtk_project\iar\awtk_gui_demo\Obj\splparser.o
#        D:\awtk-imxrt1052-raw\awtk_project\iar\awtk_gui_demo\Obj\startup_MIMXRT1052.o
#        D:\awtk-imxrt1052-raw\awtk_project\iar\awtk_gui_demo\Obj\stm32_g2d.o
#        D:\awtk-imxrt1052-raw\awtk_project\iar\awtk_gui_demo\Obj\str.o
#        D:\awtk-imxrt1052-raw\awtk_project\iar\awtk_gui_demo\Obj\str_str.o
#        D:\awtk-imxrt1052-raw\awtk_project\iar\awtk_gui_demo\Obj\stroke.o
#        D:\awtk-imxrt1052-raw\awtk_project\iar\awtk_gui_demo\Obj\stroke_features.o
#        D:\awtk-imxrt1052-raw\awtk_project\iar\awtk_gui_demo\Obj\style.o
#        D:\awtk-imxrt1052-raw\awtk_project\iar\awtk_gui_demo\Obj\style_const.o
#        D:\awtk-imxrt1052-raw\awtk_project\iar\awtk_gui_demo\Obj\style_factory.o
#        D:\awtk-imxrt1052-raw\awtk_project\iar\awtk_gui_demo\Obj\style_mutable.o
#        D:\awtk-imxrt1052-raw\awtk_project\iar\awtk_gui_demo\Obj\suggest_words.o
#        D:\awtk-imxrt1052-raw\awtk_project\iar\awtk_gui_demo\Obj\svg_image.o
#        D:\awtk-imxrt1052-raw\awtk_project\iar\awtk_gui_demo\Obj\svg_path.o
#        D:\awtk-imxrt1052-raw\awtk_project\iar\awtk_gui_demo\Obj\svg_path_parser.o
#        D:\awtk-imxrt1052-raw\awtk_project\iar\awtk_gui_demo\Obj\svg_shape.o
#        D:\awtk-imxrt1052-raw\awtk_project\iar\awtk_gui_demo\Obj\svg_to_bsvg.o
#        D:\awtk-imxrt1052-raw\awtk_project\iar\awtk_gui_demo\Obj\switch.o
#        D:\awtk-imxrt1052-raw\awtk_project\iar\awtk_gui_demo\Obj\system_bar.o
#        D:\awtk-imxrt1052-raw\awtk_project\iar\awtk_gui_demo\Obj\system_info.o
#        D:\awtk-imxrt1052-raw\awtk_project\iar\awtk_gui_demo\Obj\system_MIMXRT1052.o
#        D:\awtk-imxrt1052-raw\awtk_project\iar\awtk_gui_demo\Obj\tab_button.o
#        D:\awtk-imxrt1052-raw\awtk_project\iar\awtk_gui_demo\Obj\tab_button_group.o
#        D:\awtk-imxrt1052-raw\awtk_project\iar\awtk_gui_demo\Obj\tab_control.o
#        D:\awtk-imxrt1052-raw\awtk_project\iar\awtk_gui_demo\Obj\test_cpp.o
#        D:\awtk-imxrt1052-raw\awtk_project\iar\awtk_gui_demo\Obj\text_edit.o
#        D:\awtk-imxrt1052-raw\awtk_project\iar\awtk_gui_demo\Obj\text_selector.o
#        D:\awtk-imxrt1052-raw\awtk_project\iar\awtk_gui_demo\Obj\theme.o
#        D:\awtk-imxrt1052-raw\awtk_project\iar\awtk_gui_demo\Obj\time_clock.o
#        D:\awtk-imxrt1052-raw\awtk_project\iar\awtk_gui_demo\Obj\time_now.o
#        D:\awtk-imxrt1052-raw\awtk_project\iar\awtk_gui_demo\Obj\timer.o
#        D:\awtk-imxrt1052-raw\awtk_project\iar\awtk_gui_demo\Obj\timer_info.o
#        D:\awtk-imxrt1052-raw\awtk_project\iar\awtk_gui_demo\Obj\timer_manager.o
#        D:\awtk-imxrt1052-raw\awtk_project\iar\awtk_gui_demo\Obj\tokenizer.o
#        D:\awtk-imxrt1052-raw\awtk_project\iar\awtk_gui_demo\Obj\ui_binary_writer.o
#        D:\awtk-imxrt1052-raw\awtk_project\iar\awtk_gui_demo\Obj\ui_builder.o
#        D:\awtk-imxrt1052-raw\awtk_project\iar\awtk_gui_demo\Obj\ui_builder_default.o
#        D:\awtk-imxrt1052-raw\awtk_project\iar\awtk_gui_demo\Obj\ui_feedback.o
#        D:\awtk-imxrt1052-raw\awtk_project\iar\awtk_gui_demo\Obj\ui_loader.o
#        D:\awtk-imxrt1052-raw\awtk_project\iar\awtk_gui_demo\Obj\ui_loader_default.o
#        D:\awtk-imxrt1052-raw\awtk_project\iar\awtk_gui_demo\Obj\ui_loader_xml.o
#        D:\awtk-imxrt1052-raw\awtk_project\iar\awtk_gui_demo\Obj\ui_serializer.o
#        D:\awtk-imxrt1052-raw\awtk_project\iar\awtk_gui_demo\Obj\ui_xml_writer.o
#        D:\awtk-imxrt1052-raw\awtk_project\iar\awtk_gui_demo\Obj\unibreakbase.o
#        D:\awtk-imxrt1052-raw\awtk_project\iar\awtk_gui_demo\Obj\unibreakdef.o
#        D:\awtk-imxrt1052-raw\awtk_project\iar\awtk_gui_demo\Obj\utf16char.o
#        D:\awtk-imxrt1052-raw\awtk_project\iar\awtk_gui_demo\Obj\utf8.o
#        D:\awtk-imxrt1052-raw\awtk_project\iar\awtk_gui_demo\Obj\utils.o
#        D:\awtk-imxrt1052-raw\awtk_project\iar\awtk_gui_demo\Obj\value.o
#        D:\awtk-imxrt1052-raw\awtk_project\iar\awtk_gui_demo\Obj\value_desc.o
#        D:\awtk-imxrt1052-raw\awtk_project\iar\awtk_gui_demo\Obj\vector_rasterizer.o
#        D:\awtk-imxrt1052-raw\awtk_project\iar\awtk_gui_demo\Obj\velocity.o
#        D:\awtk-imxrt1052-raw\awtk_project\iar\awtk_gui_demo\Obj\vgcanvas.o
#        D:\awtk-imxrt1052-raw\awtk_project\iar\awtk_gui_demo\Obj\vgcanvas_nanovg_soft.o
#        D:\awtk-imxrt1052-raw\awtk_project\iar\awtk_gui_demo\Obj\view.o
#        D:\awtk-imxrt1052-raw\awtk_project\iar\awtk_gui_demo\Obj\widget.o
#        D:\awtk-imxrt1052-raw\awtk_project\iar\awtk_gui_demo\Obj\widget_animator.o
#        D:\awtk-imxrt1052-raw\awtk_project\iar\awtk_gui_demo\Obj\widget_animator_factory.o
#        D:\awtk-imxrt1052-raw\awtk_project\iar\awtk_gui_demo\Obj\widget_animator_factory_null.o
#        D:\awtk-imxrt1052-raw\awtk_project\iar\awtk_gui_demo\Obj\widget_animator_manager.o
#        D:\awtk-imxrt1052-raw\awtk_project\iar\awtk_gui_demo\Obj\widget_animator_prop.o
#        D:\awtk-imxrt1052-raw\awtk_project\iar\awtk_gui_demo\Obj\widget_animator_prop2.o
#        D:\awtk-imxrt1052-raw\awtk_project\iar\awtk_gui_demo\Obj\widget_animator_scroll.o
#        D:\awtk-imxrt1052-raw\awtk_project\iar\awtk_gui_demo\Obj\widget_factory.o
#        D:\awtk-imxrt1052-raw\awtk_project\iar\awtk_gui_demo\Obj\widget_vtable.o
#        D:\awtk-imxrt1052-raw\awtk_project\iar\awtk_gui_demo\Obj\widgets.o
#        D:\awtk-imxrt1052-raw\awtk_project\iar\awtk_gui_demo\Obj\window.o
#        D:\awtk-imxrt1052-raw\awtk_project\iar\awtk_gui_demo\Obj\window_animator.o
#        D:\awtk-imxrt1052-raw\awtk_project\iar\awtk_gui_demo\Obj\window_animator_builtins.o
#        D:\awtk-imxrt1052-raw\awtk_project\iar\awtk_gui_demo\Obj\window_animator_center_scale.o
#        D:\awtk-imxrt1052-raw\awtk_project\iar\awtk_gui_demo\Obj\window_animator_common.o
#        D:\awtk-imxrt1052-raw\awtk_project\iar\awtk_gui_demo\Obj\window_animator_factory.o
#        D:\awtk-imxrt1052-raw\awtk_project\iar\awtk_gui_demo\Obj\window_animator_fade.o
#        D:\awtk-imxrt1052-raw\awtk_project\iar\awtk_gui_demo\Obj\window_animator_htranslate.o
#        D:\awtk-imxrt1052-raw\awtk_project\iar\awtk_gui_demo\Obj\window_animator_popdown.o
#        D:\awtk-imxrt1052-raw\awtk_project\iar\awtk_gui_demo\Obj\window_animator_popup.o
#        D:\awtk-imxrt1052-raw\awtk_project\iar\awtk_gui_demo\Obj\window_animator_slide.o
#        D:\awtk-imxrt1052-raw\awtk_project\iar\awtk_gui_demo\Obj\window_animator_slide_down.o
#        D:\awtk-imxrt1052-raw\awtk_project\iar\awtk_gui_demo\Obj\window_animator_slide_left.o
#        D:\awtk-imxrt1052-raw\awtk_project\iar\awtk_gui_demo\Obj\window_animator_slide_right.o
#        D:\awtk-imxrt1052-raw\awtk_project\iar\awtk_gui_demo\Obj\window_animator_slide_up.o
#        D:\awtk-imxrt1052-raw\awtk_project\iar\awtk_gui_demo\Obj\window_animator_vtranslate.o
#        D:\awtk-imxrt1052-raw\awtk_project\iar\awtk_gui_demo\Obj\window_base.o
#        D:\awtk-imxrt1052-raw\awtk_project\iar\awtk_gui_demo\Obj\window_manager.o
#        D:\awtk-imxrt1052-raw\awtk_project\iar\awtk_gui_demo\Obj\window_manager_default.o
#        D:\awtk-imxrt1052-raw\awtk_project\iar\awtk_gui_demo\Obj\window_open.o
#        D:\awtk-imxrt1052-raw\awtk_project\iar\awtk_gui_demo\Obj\wordbreak.o
#        D:\awtk-imxrt1052-raw\awtk_project\iar\awtk_gui_demo\Obj\wstr.o
#        D:\awtk-imxrt1052-raw\awtk_project\iar\awtk_gui_demo\Obj\xml_builder.o
#        D:\awtk-imxrt1052-raw\awtk_project\iar\awtk_gui_demo\Obj\xml_parser.o
#        --redirect _Printf=_PrintfSmallNoMb --redirect _Scanf=_ScanfSmallNoMb
#        --no_out_extension -o
#        D:\awtk-imxrt1052-raw\awtk_project\iar\awtk_gui_demo\Exe\awtk_gui_demo.out
#        --map
#        D:\awtk-imxrt1052-raw\awtk_project\iar\awtk_gui_demo\List\awtk_gui_demo.map
#        --config
#        D:\awtk-imxrt1052-raw\awtk_project\iar\MIMXRT1052xxxxx_flexspi_nor_sdram_cl.icf
#        --semihosting --entry __iar_program_start --vfe --text_out locale)
#
###############################################################################

*******************************************************************************
*** RUNTIME MODEL ATTRIBUTES
***

CppFlavor                     = *
__CPP_Exceptions              = Used
__CPP_Language                = C++14
__Heap_Handler                = DLMalloc
__SystemLibrary               = DLib
__dlib_dynamic_initialization = normal
__dlib_version                = 6


*******************************************************************************
*** HEAP SELECTION
***

The advanced heap was selected because the application calls memory
allocation functions outside of system library functions, and there
are calls to deallocation functions in the application.


*******************************************************************************
*** PLACEMENT SUMMARY
***

"A0":  place at 0x6000'2000 { ro section .intvec };
"A1":  place at 0x6000'0000 { section .boot_hdr.conf };
"A2":  place at 0x6000'1000 { section .boot_hdr.ivt };
"A3":  place at 0x6000'1020 { ro section .boot_hdr.boot_data };
"A4":  place at 0x6000'1030 { ro section .boot_hdr.dcd_data };
"P1":  place in [from 0x6000'2000 to 0x6000'23ff] |
                [from 0x6000'2400 to 0x63ff'ffff] { ro };
define block RW { first rw, section m_usb_dma_init_data };
"P2":  place in [from 0x8000'0000 to 0x81ce'ffff] { block RW };
define block ZI
   with alignment = 32 { first zi, section m_usb_dma_noninit_data };
"P3":  place in [from 0x8000'0000 to 0x81ce'ffff] { block ZI };
define block HEAP with size = 11M, alignment = 8 { };
"P4":  place in [from 0x8000'0000 to 0x81ce'ffff] { last block HEAP };
define block CSTACK with size = 64K, alignment = 8 { };
"P5":  place in [from 0x81cf'0000 to 0x81cf'ffff] { block CSTACK };
define block NCACHE_VAR
   with size = 3M, alignment = 1M {
      section NonCacheable, section NonCacheable.init };
"P6":  place in [from 0x81d0'0000 to 0x81ff'ffff] { block NCACHE_VAR };
initialize by copy { rw, section .textrw };
keep {
   section .boot_hdr.conf, section .boot_hdr.ivt, section .boot_hdr.boot_data,
   section .boot_hdr.dcd_data };

No sections matched the following patterns:

  section NonCacheable.init       in block NCACHE_VAR
  section m_usb_dma_init_data     in block RW
  section m_usb_dma_noninit_data  in block ZI


  Section                Kind         Address      Size  Object
  -------                ----         -------      ----  ------
"A1":                                             0x200
  .boot_hdr.conf         const    0x6000'0000     0x200  fire_imxrt1052_spiflash_config.o [1]
                                - 0x6000'0200     0x200

"A2":                                              0x20
  .boot_hdr.ivt          const    0x6000'1000      0x20  fsl_flexspi_nor_boot.o [1]
                                - 0x6000'1020      0x20

"A3":                                              0x10
  .boot_hdr.boot_data    const    0x6000'1020      0x10  fsl_flexspi_nor_boot.o [1]
                                - 0x6000'1030      0x10

"A4":                                             0x430
  .boot_hdr.dcd_data     const    0x6000'1030     0x430  fire_imxrt1052_sdram_ini_dcd.o [1]
                                - 0x6000'1460     0x430

"A0":                                             0x400
  .intvec                ro code  0x6000'2000     0x400  startup_MIMXRT1052.o [1]
                                - 0x6000'2400     0x400

"P1":                                          0x236e6f
  .rodata                const    0x6000'2400  0x104dcc  pinyinime.o [1]
  .rodata                const    0x6010'71cc   0x17370  input_method_creator.o [1]
  .rodata                const    0x6011'e53c      0x7c  image_loader_stb.o [1]
  .rodata                const    0x6011'e5b8    0xedb0  assets.o [1]
  .text                  ro code  0x6012'd368    0x885c  image_loader_stb.o [1]
  .text                  ro code  0x6013'5bc4     0x176  mem.o [1]
  .text                  ro code  0x6013'5d3a      0x3a  zero_init3.o [5]
  .text                  ro code  0x6013'5d74      0x66  ABImemset.o [5]
  .text                  ro code  0x6013'5dda      0x1e  xsscin.o [2]
  .text                  ro code  0x6013'5df8      0xa6  ABImemcpy.o [5]
  .text                  ro code  0x6013'5e9e      0x1a  xsnprout.o [2]
  .text                  ro code  0x6013'5eb8      0x1c  fsl_assert.o [1]
  .rodata                const    0x6013'5ed4      0x7c  image_loader_stb.o [1]
  .text                  ro code  0x6013'5f50     0x990  pow64.o [4]
  .text                  ro code  0x6013'68e0       0x8  abs.o [2]
  .text                  ro code  0x6013'68e8      0xf0  ldexp.o [4]
  .text                  ro code  0x6013'69d8      0x4a  strcmp.o [5]
  .text                  ro code  0x6013'6a22      0x28  strncmp.o [2]
  .text                  ro code  0x6013'6a4a      0x82  iar_Stolx.o [2]
  .text                  ro code  0x6013'6acc     0x64c  bitmap.o [1]
  .text                  ro code  0x6013'7118    0x1d24  dlmalloc.o [2]
  .text                  ro code  0x6013'8e3c       0x8  heaptramp0.o [2]
  .text                  ro code  0x6013'8e44     0x1e0  fsl_debug_console.o [1]
  .text                  ro code  0x6013'9024      0x7c  frexp.o [4]
  .text                  ro code  0x6013'90a0      0x24  errno.o [2]
  .text                  ro code  0x6013'90c4     0x36c  iar_Exp64.o [4]
  .text                  ro code  0x6013'9430     0x174  iar_Stoulx.o [2]
  .text                  ro code  0x6013'95a4       0x6  abort.o [2]
  .text                  ro code  0x6013'95aa      0x12  nanovg_agge.o [1]
  .text                  ro code  0x6013'95bc      0x2c  xgetmemchunk.o [2]
  .text                  ro code  0x6013'95e8     0x1fc  serial_manager.o [1]
  .text                  ro code  0x6013'97e4       0x6  ABImemclr4.o [5]
  .rodata                const    0x6013'97ea       0x2  enums.o [1]
  .text                  ro code  0x6013'97ec     0x958  fsl_str.o [1]
  .text                  ro code  0x6013'a144       0x4  tp_nothreads.o [2]
  .text                  ro code  0x6013'a148      0x58  memchr.o [5]
  .text                  ro code  0x6013'a1a0      0x14  exit.o [6]
  .text                  ro code  0x6013'a1b4      0xd4  serial_port_uart.o [1]
  .text                  ro code  0x6013'a288      0x32  ABImemset48.o [5]
  .rodata                const    0x6013'a2ba       0x2  enums.o [1]
  .text                  ro code  0x6013'a2bc     0x274  I64DivMod.o [5]
  .text                  ro code  0x6013'a530      0x9e  modf.o [4]
  .rodata                const    0x6013'a5ce       0x2  enums.o [1]
  .text                  ro code  0x6013'a5d0      0x5c  DblToS64.o [4]
  .text                  ro code  0x6013'a62c      0x52  S64ToDbl.o [4]
  .rodata                const    0x6013'a67e       0x2  enums.o [1]
  .text                  ro code  0x6013'a680      0x36  strlen.o [5]
  .rodata                const    0x6013'a6b6       0x2  enums.o [1]
  .text                  ro code  0x6013'a6b8     0x170  lpuart_adapter.o [1]
  .text                  ro code  0x6013'a828       0x2  I64DivZer.o [5]
  .rodata                const    0x6013'a82a       0x2  enums.o [1]
  .text                  ro code  0x6013'a82c     0x474  fsl_lpuart.o [1]
  .rodata                const    0x6013'aca0    0x71f4  assets.o [1]
  .rodata                const    0x6014'1e94    0x6ab0  linebreakdata.o [1]
  .text                  ro code  0x6014'8944    0x4714  widget.o [1]
  .text                  ro code  0x6014'd058     0x350  style.o [1]
  .text                  ro code  0x6014'd3a8     0x866  value.o [1]
  .rodata                const    0x6014'dc0e       0x2  enums.o [1]
  .text                  ro code  0x6014'dc10      0x38  event.o [1]
  .text                  ro code  0x6014'dc48     0x5f8  utils.o [1]
  .text                  ro code  0x6014'e240     0x47c  image_manager.o [1]
  .text                  ro code  0x6014'e6bc     0x2a2  locale_info.o [1]
  .rodata                const    0x6014'e95e       0x2  enums.o [1]
  .text                  ro code  0x6014'e960     0x39e  assets_manager.o [1]
  .rodata                const    0x6014'ecfe       0x2  enums.o [1]
  .text                  ro code  0x6014'ed00     0x196  font_manager.o [1]
  .rodata                const    0x6014'ee96       0x2  enums.o [1]
  .text                  ro code  0x6014'ee98      0x16  strchr.o [5]
  .rodata                const    0x6014'eeae       0x2  enums.o [1]
  .text                  ro code  0x6014'eeb0     0x6a8  widget_animator_factory.o [1]
  .text                  ro code  0x6014'f558     0x39c  widget_animator_manager.o [1]
  .text                  ro code  0x6014'f8f4     0x2f8  darray.o [1]
  .text                  ro code  0x6014'fbec     0x374  widget_vtable.o [1]
  .text                  ro code  0x6014'ff60     0x3c6  emitter.o [1]
  .rodata                const    0x6015'0326       0x2  enums.o [1]
  .text                  ro code  0x6015'0328     0x3a2  rect.o [1]
  .rodata                const    0x6015'06ca       0x2  enums.o [1]
  .text                  ro code  0x6015'06cc    0x2090  canvas.o [1]
  .text                  ro code  0x6015'275c     0x52a  system_info.o [1]
  .rodata                const    0x6015'2c86       0x2  enums.o [1]
  .text                  ro code  0x6015'2c88      0x78  color.o [1]
  .text                  ro code  0x6015'2d00     0xa18  vgcanvas.o [1]
  .text                  ro code  0x6015'3718     0x24a  layout.o [1]
  .rodata                const    0x6015'3962       0x2  enums.o [1]
  .text                  ro code  0x6015'3964     0x73a  wstr.o [1]
  .rodata                const    0x6015'409e       0x2  enums.o [1]
  .text                  ro code  0x6015'40a0     0x5a0  object_default.o [1]
  .text                  ro code  0x6015'4640     0x3fc  object.o [1]
  .text                  ro code  0x6015'4a3c      0xe6  self_layouter.o [1]
  .text                  ro code  0x6015'4b22      0xde  children_layouter.o [1]
  .text                  ro code  0x6015'4c00     0x186  events.o [1]
  .rodata                const    0x6015'4d86       0x2  enums.o [1]
  .text                  ro code  0x6015'4d88      0x40  ui_feedback.o [1]
  .text                  ro code  0x6015'4dc8      0x86  timer.o [1]
  .text                  ro code  0x6015'4e4e      0x30  idle.o [1]
  .rodata                const    0x6015'4e7e       0x2  enums.o [1]
  .text                  ro code  0x6015'4e80      0x2c  style_factory.o [1]
  .text                  ro code  0x6015'4eac     0x53c  style_mutable.o [1]
  .text                  ro code  0x6015'53e8      0x12  wcslen.o [2]
  .rodata                const    0x6015'53fa       0x2  enums.o [1]
  .text                  ro code  0x6015'53fc     0x892  window_manager.o [1]
  .text                  ro code  0x6015'5c8e      0x30  strstr.o [2]
  .rodata                const    0x6015'5cbe       0x2  enums.o [1]
  .text                  ro code  0x6015'5cc0     0x168  enums.o [1]
  .text                  ro code  0x6015'5e28     0x28c  color_parser.o [1]
  .text                  ro code  0x6015'60b4       0xa  isdigit.o [2]
  .rodata                const    0x6015'60be       0x2  enums.o [1]
  .text                  ro code  0x6015'60c0      0x58  S64ToFlt.o [4]
  .text                  ro code  0x6015'6118      0x48  U64ToFlt.o [4]
  .text                  ro code  0x6015'6160      0x24  wcscmp.o [2]
  .text                  ro code  0x6015'6184      0x1a  time_now.o [1]
  .rodata                const    0x6015'619e       0x2  enums.o [1]
  .text                  ro code  0x6015'61a0     0x480  strto64.o [4]
  .text                  ro code  0x6015'6620      0x70  strncpy.o [5]
  .text                  ro code  0x6015'6690      0x3c  vsnprint.o [2]
  .text                  ro code  0x6015'66cc      0x20  vsscanf.o [2]
  .text                  ro code  0x6015'66ec     0x30c  utf8.o [1]
  .text                  ro code  0x6015'69f8      0x4c  strcpy.o [5]
  .text                  ro code  0x6015'6a44      0x68  memcmp.o [5]
  .text                  ro code  0x6015'6aac      0x9c  image_loader.o [1]
  .text                  ro code  0x6015'6b48      0xe6  font.o [1]
  .text                  ro code  0x6015'6c2e      0x30  font_loader.o [1]
  .rodata                const    0x6015'6c5e       0x2  enums.o [1]
  .text                  ro code  0x6015'6c60     0x178  func_call_parser.o [1]
  .text                  ro code  0x6015'6dd8     0x144  widget_animator_prop2.o [1]
  .text                  ro code  0x6015'6f1c      0xe8  widget_animator_prop.o [1]
  .text                  ro code  0x6015'7004     0x4c4  widget_animator.o [1]
  .text                  ro code  0x6015'74c8       0x2  lcd_profile.o [1]
  .rodata                const    0x6015'74ca       0x2  enums.o [1]
  .text                  ro code  0x6015'74cc     0x4a6  lcd.o [1]
  .rodata                const    0x6015'7972       0x2  enums.o [1]
  .text                  ro code  0x6015'7974     0x61c  str.o [1]
  .text                  ro code  0x6015'7f90      0xb0  self_layouter_parser.o [1]
  .text                  ro code  0x6015'8040     0x152  children_layouter_parser.o [1]
  .text                  ro code  0x6015'8192      0x10  wcscpy.o [2]
  .rodata                const    0x6015'81a2       0x2  enums.o [1]
  .text                  ro code  0x6015'81a4      0x96  ABImemmove.o [5]
  .rodata                const    0x6015'823a       0x2  enums.o [1]
  .text                  ro code  0x6015'823c      0x68  floor.o [4]
  .text                  ro code  0x6015'82a4      0x14  wcschr.o [2]
  .text                  ro code  0x6015'82b8      0xb8  named_value.o [1]
  .text                  ro code  0x6015'8370    0x16cc  expr_eval.o [1]
  .text                  ro code  0x6015'9a3c     0x23e  timer_manager.o [1]
  .rodata                const    0x6015'9c7a       0x2  enums.o [1]
  .text                  ro code  0x6015'9c7c     0x184  idle_manager.o [1]
  .text                  ro code  0x6015'9e00     0x1c0  style_const.o [1]
  .text                  ro code  0x6015'9fc0     0x2cc  dialog.o [1]
  .text                  ro code  0x6015'a28c       0xc  toupper.o [2]
  .text                  ro code  0x6015'a298      0x40  bsearch.o [2]
  .text                  ro code  0x6015'a2d8      0x18  platform.o [1]
  .text                  ro code  0x6015'a2f0     0x120  iar_Stopfx.o [2]
  .text                  ro code  0x6015'a410     0x1c4  iar_Stoflt.o [2]
  .text                  ro code  0x6015'a5d4     0x214  iar_Stoxflt.o [2]
  .text                  ro code  0x6015'a7e8     0x4d0  xprintfsmall_nomb.o [2]
  .text                  ro code  0x6015'acb8     0x5b4  xscanfsmall_nomb.o [2]
  .text                  ro code  0x6015'b26c     0x1be  tokenizer.o [1]
  .rodata                const    0x6015'b42a       0x2  enums.o [1]
  .text                  ro code  0x6015'b42c     0x714  easing.o [1]
  .text                  ro code  0x6015'bb40       0xc  tolower.o [2]
  .text                  ro code  0x6015'bb4c     0x120  self_layouter_factory.o [1]
  .text                  ro code  0x6015'bc6c     0x120  children_layouter_factory.o [1]
  .text                  ro code  0x6015'bd8c     0xab0  children_layouter_default.o [1]
  .text                  ro code  0x6015'c83c      0x66  ceil.o [4]
  .rodata                const    0x6015'c8a2       0x2  enums.o [1]
  .text                  ro code  0x6015'c8a4     0x2f8  cos_sin64.o [4]
  .text                  ro code  0x6015'cb9c     0x284  tan64.o [4]
  .text                  ro code  0x6015'ce20      0x80  acos.o [4]
  .text                  ro code  0x6015'cea0      0x88  asin.o [4]
  .text                  ro code  0x6015'cf28      0x60  atan.o [4]
  .text                  ro code  0x6015'cf88      0x58  exp.o [4]
  .text                  ro code  0x6015'cfe0      0xd8  log.o [4]
  .text                  ro code  0x6015'd0b8      0xc8  log10.o [4]
  .text                  ro code  0x6015'd180      0x1e  sqrt.o [4]
  .rodata                const    0x6015'd19e       0x2  enums.o [1]
  .text                  ro code  0x6015'd1a0     0x178  slist.o [1]
  .text                  ro code  0x6015'd318      0x94  timer_info.o [1]
  .text                  ro code  0x6015'd3ac      0x84  idle_info.o [1]
  .text                  ro code  0x6015'd430     0x254  theme.o [1]
  .text                  ro code  0x6015'd684     0x788  window_base.o [1]
  .text                  ro code  0x6015'de0c     0x10c  main_loop.o [1]
  .text                  ro code  0x6015'df18      0xe0  bsp_systick.o [1]
  .text                  ro code  0x6015'dff8      0x40  xfail_s.o [2]
  .text                  ro code  0x6015'e038     0x71c  self_layouter_default.o [1]
  .rodata                const    0x6015'e754      0x64  dicttrie.o [1]
  .text                  ro code  0x6015'e7b8     0x118  xatan.o [4]
  .text                  ro code  0x6015'e8d0      0xe2  xexp.o [4]
  .text                  ro code  0x6015'e9b2     0x276  native_window.o [1]
  .rodata                const    0x6015'ec28    0x46d8  assets.o [1]
  .text                  ro code  0x6016'3300    0x4468  font_loader_stb.o [1]
  .text                  ro code  0x6016'7768     0x1ba  glyph_cache.o [1]
  .rodata                const    0x6016'7922       0x2  enums.o [1]
  .rodata                const    0x6016'7924    0x3990  wordbreak.o [1]
  .rodata                const    0x6016'b2b4      0x5c  children_layouter_default.o [1]
  .rodata                const    0x6016'b310    0x34b0  assets.o [1]
  .rodata                const    0x6016'e7c0    0x30f4  assets.o [1]
  .text                  ro code  0x6017'18b4    0x2ce0  nanovg.o [1]
  .text                  ro code  0x6017'4594      0x1e  sqrtf.o [4]
  .rodata                const    0x6017'45b2       0x2  enums.o [1]
  .text                  ro code  0x6017'45b4     0x1e0  cos_sin32.o [4]
  .text                  ro code  0x6017'4794     0x1b4  tan32.o [4]
  .text                  ro code  0x6017'4948      0x6a  atan2f.o [4]
  .rodata                const    0x6017'49b2       0x2  enums.o [1]
  .text                  ro code  0x6017'49b4      0x64  acosf.o [4]
  .text                  ro code  0x6017'4a18      0x3c  ceilf.o [4]
  .text                  ro code  0x6017'4a54      0xa4  xatanf.o [4]
  .rodata                const    0x6017'4af8    0x2a2c  assets.o [1]
  .text                  ro code  0x6017'7524    0x2496  text_edit.o [1]
  .rodata                const    0x6017'99ba       0x2  enums.o [1]
  .text                  ro code  0x6017'99bc      0x8c  line_break.o [1]
  .text                  ro code  0x6017'9a48       0x6  iswspace.o [2]
  .rodata                const    0x6017'9a4e       0x2  enums.o [1]
  .text                  ro code  0x6017'9a50     0x104  clip_board.o [1]
  .text                  ro code  0x6017'9b54      0x3e  isprint.o [2]
  .rodata                const    0x6017'9b92       0x2  enums.o [1]
  .text                  ro code  0x6017'9b94     0x53c  linebreak.o [1]
  .text                  ro code  0x6017'a0d0     0x5ac  wordbreak.o [1]
  .text                  ro code  0x6017'a67c      0x1c  isw_getw.o [2]
  .text                  ro code  0x6017'a698      0x44  emojidef.o [1]
  .rodata                const    0x6017'a6dc      0x5c  image_loader_stb.o [1]
  .rodata                const    0x6017'a738    0x2444  assets.o [1]
  .rodata                const    0x6017'cb7c      0x5c  window_manager_default.o [1]
  .rodata                const    0x6017'cbd8    0x2440  assets.o [1]
  .rodata                const    0x6017'f018    0x2440  assets.o [1]
  .rodata                const    0x6018'1458    0x243c  assets.o [1]
  .rodata                const    0x6018'3894      0x54  fsl_elcdif.o [1]
  .rodata                const    0x6018'38e8    0x2438  assets.o [1]
  .rodata                const    0x6018'5d20    0x2438  assets.o [1]
  .rodata                const    0x6018'8158    0x23d0  assets.o [1]
  .rodata                const    0x6018'a528    0x23c8  assets.o [1]
  .rodata                const    0x6018'c8f0    0x20ac  assets.o [1]
  .text                  ro code  0x6018'e99c    0x1f50  matrixsearch.o [1]
  .text                  ro code  0x6019'08ec     0xc64  spellingtrie.o [1]
  .text                  ro code  0x6019'1550      0x24  newop_0.o [3]
  .text                  ro code  0x6019'1574    0x1158  dicttrie.o [1]
  .text                  ro code  0x6019'26cc     0x2c2  splparser.o [1]
  .rodata                const    0x6019'298e       0x2  enums.o [1]
  .text                  ro code  0x6019'2990     0x17e  searchutility.o [1]
  .rodata                const    0x6019'2b0e       0x2  enums.o [1]
  .text                  ro code  0x6019'2b10       0x4  new.o [3]
  .text                  ro code  0x6019'2b14       0x4  newaop_0.o [3]
  .text                  ro code  0x6019'2b18       0x4  delop4_0.o [3]
  .text                  ro code  0x6019'2b1c       0x4  delaop_0.o [3]
  .text                  ro code  0x6019'2b20      0xd2  utf16char.o [1]
  .text                  ro code  0x6019'2bf2      0x18  mystdlib.o [1]
  .rodata                const    0x6019'2c0a       0x2  enums.o [1]
  .text                  ro code  0x6019'2c0c     0x17e  lpicache.o [1]
  .text                  ro code  0x6019'2d8a     0x4cc  qsort.o [2]
  .text                  ro code  0x6019'3256      0x28  splparser.o [1]
  .rodata                const    0x6019'327e       0x2  enums.o [1]
  .text                  ro code  0x6019'3280      0xce  rom_fs.o [1]
  .text                  ro code  0x6019'334e       0x4  nomemory.o [3]
  .text                  ro code  0x6019'3352       0xc  dicttrie.o [1]
  .rodata                const    0x6019'335e       0x2  enums.o [1]
  .text                  ro code  0x6019'3360     0x2ec  dictlist.o [1]
  .text                  ro code  0x6019'364c     0x124  ngram.o [1]
  .text                  ro code  0x6019'3770      0x38  dicttrie.o [1]
  .text                  ro code  0x6019'37a8       0xc  dicttrie.o [1]
  .text                  ro code  0x6019'37b4       0xe  dicttrie.o [1]
  .text                  ro code  0x6019'37c2      0x2e  splparser.o [1]
  .text                  ro code  0x6019'37f0      0x80  iar_Raise.o [3]
  .text                  ro code  0x6019'3870       0xa  delop_0.o [3]
  .text                  ro code  0x6019'387a       0x2  dicttrie.o [1]
  .text                  ro code  0x6019'387c      0x32  bad_alloc.o [3]
  .rodata                const    0x6019'38ae       0x2  enums.o [1]
  .text                  ro code  0x6019'38b0      0x60  arm_exceptions_alloc_c.o [5]
  .text                  ro code  0x6019'3910     0x1e0  arm_exceptions_throw_c.o [5]
  .text                  ro code  0x6019'3af0      0x14  iar_Raise.o [3]
  .text                  ro code  0x6019'3b04      0x14  iar_Raise.o [3]
  .text                  ro code  0x6019'3b18      0x14  iar_Raise.o [3]
  .text                  ro code  0x6019'3b2c      0x14  iar_Raise.o [3]
  .text                  ro code  0x6019'3b40      0x12  exception.o [3]
  .rodata                const    0x6019'3b52       0x2  enums.o [1]
  .text                  ro code  0x6019'3b54      0x70  arm_exceptions_globs_c.o [5]
  .text                  ro code  0x6019'3bc4      0x2a  arm_exceptions_mem_c.o [5]
  .text                  ro code  0x6019'3bee      0x40  arm_exceptions_callterm_c.o [5]
  .text                  ro code  0x6019'3c2e      0x20  arm_exceptions_free_c.o [5]
  .rodata                const    0x6019'3c4e       0x2  enums.o [1]
  .text                  ro code  0x6019'3c50      0x54  unwind_debug.o [6]
  .text                  ro code  0x6019'3ca4      0x94  iar_unwind_asm.o [5]
  .text                  ro code  0x6019'3d38      0x60  arm_exceptions_support_c.o [5]
  .text                  ro code  0x6019'3d98      0x2c  typeinfo.o [3]
  .text                  ro code  0x6019'3dc4      0x12  rtti2.o [3]
  .rodata                const    0x6019'3dd6       0x2  enums.o [1]
  .text                  ro code  0x6019'3dd8     0x2c0  rtti.o [3]
  .text                  ro code  0x6019'4098      0xa0  cppinit.o [2]
  .text                  ro code  0x6019'4138      0x1e  arm_exceptions_terminate_c.o [5]
  .text                  ro code  0x6019'4156      0x50  arm_exceptions_begincatch_c.o [5]
  .rodata                const    0x6019'41a6       0x2  enums.o [1]
  .text                  ro code  0x6019'41a8     0x3de  unwinder.o [5]
  .text                  ro code  0x6019'4586      0x80  arm_exceptions_cleanup_c.o [5]
  .text                  ro code  0x6019'4606       0x4  cxabad.o [3]
  .text                  ro code  0x6019'460a      0x3c  arm_exceptions_foreign_c.o [5]
  .rodata                const    0x6019'4646       0x2  enums.o [1]
  .text                  ro code  0x6019'4648    0x1d60  demo_ui_app.o [1]
  .text                  ro code  0x6019'63a8      0xdc  window_open.o [1]
  .text                  ro code  0x6019'6484     0x4e4  dialog_helper.o [1]
  .text                  ro code  0x6019'6968     0x110  window.o [1]
  .text                  ro code  0x6019'6a78     0x286  input_method.o [1]
  .rodata                const    0x6019'6cfe       0x2  enums.o [1]
  .text                  ro code  0x6019'6d00     0x3fc  awtk_global.o [1]
  .text                  ro code  0x6019'70fc     0xb3a  combo_box.o [1]
  .rodata                const    0x6019'7c36       0x2  enums.o [1]
  .text                  ro code  0x6019'7c38     0x542  progress_bar.o [1]
  .rodata                const    0x6019'817a       0x2  enums.o [1]
  .text                  ro code  0x6019'817c     0x290  ext_widgets.o [1]
  .text                  ro code  0x6019'840c      0x78  ui_loader.o [1]
  .text                  ro code  0x6019'8484      0x58  dialog_title.o [1]
  .text                  ro code  0x6019'84dc      0x64  dialog_client.o [1]
  .text                  ro code  0x6019'8540     0x4f0  label.o [1]
  .text                  ro code  0x6019'8a30     0x43c  button.o [1]
  .text                  ro code  0x6019'8e6c      0x98  input_engine.o [1]
  .text                  ro code  0x6019'8f04     0x4a6  input_method_creator.o [1]
  .rodata                const    0x6019'93aa       0x2  enums.o [1]
  .text                  ro code  0x6019'93ac     0x180  widget_factory.o [1]
  .text                  ro code  0x6019'952c     0x248  window_animator_factory.o [1]
  .text                  ro code  0x6019'9774      0xe0  window_animator_builtins.o [1]
  .text                  ro code  0x6019'9854     0x174  dialog_highlighter_factory.o [1]
  .text                  ro code  0x6019'99c8      0x30  self_layouter_builtins.o [1]
  .text                  ro code  0x6019'99f8      0x20  children_layouter_builtins.o [1]
  .text                  ro code  0x6019'9a18    0x14a0  window_manager_default.o [1]
  .text                  ro code  0x6019'aeb8      0xb0  clip_board_default.o [1]
  .text                  ro code  0x6019'af68      0x20  dialog_highlighter_builtins.o [1]
  .text                  ro code  0x6019'af88     0x260  widgets.o [1]
  .text                  ro code  0x6019'b1e8      0xd8  main_loop_rt1052_raw.o [1]
  .text                  ro code  0x6019'b2c0    0x1a2c  edit.o [1]
  .text                  ro code  0x6019'ccec     0x350  combo_box_item.o [1]
  .text                  ro code  0x6019'd03c     0x248  popup.o [1]
  .text                  ro code  0x6019'd284     0x130  ui_loader_default.o [1]
  .text                  ro code  0x6019'd3b4     0x154  ui_builder_default.o [1]
  .text                  ro code  0x6019'd508     0x14e  input_engine_pinyin.o [1]
  .rodata                const    0x6019'd656       0x2  enums.o [1]
  .text                  ro code  0x6019'd658     0x1d0  suggest_words.o [1]
  .text                  ro code  0x6019'd828     0x82c  window_animator_common.o [1]
  .text                  ro code  0x6019'e054     0x1e6  dialog_highlighter.o [1]
  .rodata                const    0x6019'e23a       0x2  enums.o [1]
  .text                  ro code  0x6019'e23c     0x118  native_window_raw.o [1]
  .text                  ro code  0x6019'e354     0x3fa  input_device_status.o [1]
  .rodata                const    0x6019'e74e       0x2  enums.o [1]
  .text                  ro code  0x6019'e750     0x670  gt9xx.o [1]
  .text                  ro code  0x6019'edc0     0x2ac  main_loop_simple.o [1]
  .text                  ro code  0x6019'f06c     0x684  bsp_lcd.o [1]
  .text                  ro code  0x6019'f6f0     0x284  buffer.o [1]
  .text                  ro code  0x6019'f974      0xc0  ui_builder.o [1]
  .text                  ro code  0x6019'fa34      0xf4  pinyinime.o [1]
  .text                  ro code  0x6019'fb28     0x4ec  bsp_i2c_touch.o [1]
  .text                  ro code  0x601a'0014      0x1a  mutex_null.o [1]
  .rodata                const    0x601a'002e       0x2  enums.o [1]
  .text                  ro code  0x601a'0030     0x134  event_queue.o [1]
  .text                  ro code  0x601a'0164     0x1be  fsl_elcdif.o [1]
  .rodata                const    0x601a'0322       0x2  enums.o [1]
  .text                  ro code  0x601a'0324     0x7b4  fsl_clock.o [1]
  .text                  ro code  0x601a'0ad8      0x78  main.o [1]
  .text                  ro code  0x601a'0b50     0xa04  lcd_mem_bgr565.o [1]
  .text                  ro code  0x601a'1554     0x20e  fsl_gpio.o [1]
  .rodata                const    0x601a'1762       0x2  enums.o [1]
  .text                  ro code  0x601a'1764      0x88  core_delay.o [1]
  .text                  ro code  0x601a'17ec     0x988  fsl_lpi2c.o [1]
  .text                  ro code  0x601a'2174     0x2f4  board.o [1]
  .text                  ro code  0x601a'2468     0xa5c  pin_mux.o [1]
  .text                  ro code  0x601a'2ec4     0x7a8  clock_config.o [1]
  .text                  ro code  0x601a'366c      0x26  demo_main.o [1]
  .rodata                const    0x601a'3692       0x2  enums.o [1]
  .text                  ro code  0x601a'3694     0x214  image_g2d.o [1]
  .text                  ro code  0x601a'38a8     0xd68  vgcanvas_nanovg_soft.o [1]
  .text                  ro code  0x601a'4610     0xf00  assets.o [1]
  .text                  ro code  0x601a'5510     0x418  soft_g2d.o [1]
  .text                  ro code  0x601a'5928     0x5a4  nanovg_agge.o [1]
  .text                  ro code  0x601a'5ecc     0x320  fill_image_rgb565.o [1]
  .text                  ro code  0x601a'61ec     0x320  fill_image_bgr565.o [1]
  .text                  ro code  0x601a'650c     0x2bc  fill_image_bgr888.o [1]
  .text                  ro code  0x601a'67c8     0x2c4  fill_image_bgra8888.o [1]
  .text                  ro code  0x601a'6a8c     0x2c4  fill_image_argb8888.o [1]
  .text                  ro code  0x601a'6d50     0x2c4  fill_image_rgba8888.o [1]
  .text                  ro code  0x601a'7014     0x2c4  fill_image_abgr8888.o [1]
  .text                  ro code  0x601a'72d8     0x1a0  rotate_image_rgb565.o [1]
  .text                  ro code  0x601a'7478     0x1a0  rotate_image_bgr565.o [1]
  .text                  ro code  0x601a'7618     0x1b4  rotate_image_bgr888.o [1]
  .text                  ro code  0x601a'77cc     0x1a0  rotate_image_bgra8888.o [1]
  .text                  ro code  0x601a'796c     0x1a0  rotate_image_rgba8888.o [1]
  .text                  ro code  0x601a'7b0c     0x394  blend_image_bgr565_bgr565.o [1]
  .text                  ro code  0x601a'7ea0     0x3ba  blend_image_bgr565_rgba8888.o [1]
  .text                  ro code  0x601a'825a     0x3ba  blend_image_bgr565_bgra8888.o [1]
  .text                  ro code  0x601a'8614     0x420  blend_image_rgb565_bgr565.o [1]
  .text                  ro code  0x601a'8a34     0x410  blend_image_rgb565_rgba8888.o [1]
  .text                  ro code  0x601a'8e44     0x410  blend_image_rgb565_bgra8888.o [1]
  .text                  ro code  0x601a'9254     0x3dc  blend_image_bgr888_bgr565.o [1]
  .text                  ro code  0x601a'9630     0x3cc  blend_image_bgr888_rgba8888.o [1]
  .text                  ro code  0x601a'99fc     0x3cc  blend_image_bgr888_bgra8888.o [1]
  .text                  ro code  0x601a'9dc8     0x3dc  blend_image_bgra8888_bgr565.o [1]
  .text                  ro code  0x601a'a1a4     0x3cc  blend_image_bgra8888_rgba8888.o [1]
  .text                  ro code  0x601a'a570     0x3cc  blend_image_bgra8888_bgra8888.o [1]
  .text                  ro code  0x601a'a93c     0x3dc  blend_image_rgba8888_bgr565.o [1]
  .text                  ro code  0x601a'ad18     0x3cc  blend_image_rgba8888_rgba8888.o [1]
  .text                  ro code  0x601a'b0e4     0x3cc  blend_image_rgba8888_bgra8888.o [1]
  .text                  ro code  0x601a'b4b0       0xc  nanovg_agge.o [1]
  .text                  ro code  0x601a'b4bc      0x28  nanovg_agge.o [1]
  .text                  ro code  0x601a'b4e4       0xc  nanovg_agge.o [1]
  .text                  ro code  0x601a'b4f0      0x28  nanovg_agge.o [1]
  .text                  ro code  0x601a'b518      0x18  nanovg_agge.o [1]
  .text                  ro code  0x601a'b530      0x28  nanovg_agge.o [1]
  .text                  ro code  0x601a'b558      0x18  nanovg_agge.o [1]
  .text                  ro code  0x601a'b570      0x28  nanovg_agge.o [1]
  .text                  ro code  0x601a'b598       0xc  nanovg_agge.o [1]
  .text                  ro code  0x601a'b5a4      0x28  nanovg_agge.o [1]
  .text                  ro code  0x601a'b5cc       0xc  nanovg_agge.o [1]
  .text                  ro code  0x601a'b5d8      0x28  nanovg_agge.o [1]
  .text                  ro code  0x601a'b600      0x32  nanovg_agge.o [1]
  .text                  ro code  0x601a'b632     0x5f6  vector_rasterizer.o [1]
  .text                  ro code  0x601a'bc28      0x36  nanovg_agge.o [1]
  .text                  ro code  0x601a'bc5e      0x10  nanovg_agge.o [1]
  .text                  ro code  0x601a'bc6e      0x2a  nanovg_agge.o [1]
  .text                  ro code  0x601a'bc98      0x5c  nanovg_agge.o [1]
  .text                  ro code  0x601a'bcf4       0xc  nanovg_agge.o [1]
  .text                  ro code  0x601a'bd00       0xc  nanovg_agge.o [1]
  .text                  ro code  0x601a'bd0c       0xc  nanovg_agge.o [1]
  .text                  ro code  0x601a'bd18      0x18  nanovg_agge.o [1]
  .text                  ro code  0x601a'bd30       0xc  stroke_features.o [1]
  .text                  ro code  0x601a'bd3c      0x18  nanovg_agge.o [1]
  .text                  ro code  0x601a'bd54       0xc  nanovg_agge.o [1]
  .text                  ro code  0x601a'bd60       0xc  nanovg_agge.o [1]
  .text                  ro code  0x601a'bd6c      0x1e  vector_rasterizer.o [1]
  .text                  ro code  0x601a'bd8a      0x1e  vector_rasterizer.o [1]
  .text                  ro code  0x601a'bda8      0x28  vector_rasterizer.o [1]
  .text                  ro code  0x601a'bdd0       0x6  vector_rasterizer.o [1]
  .text                  ro code  0x601a'bdd6      0x1c  vector_rasterizer.o [1]
  .text                  ro code  0x601a'bdf2      0x1c  vector_rasterizer.o [1]
  .text                  ro code  0x601a'be0e      0x10  vector_rasterizer.o [1]
  .text                  ro code  0x601a'be1e      0x24  vector_rasterizer.o [1]
  .text                  ro code  0x601a'be42      0x7c  vector_rasterizer.o [1]
  .text                  ro code  0x601a'bebe      0xf4  vector_rasterizer.o [1]
  .text                  ro code  0x601a'bfb2       0xa  vector_rasterizer.o [1]
  .text                  ro code  0x601a'bfbc      0x1e  vector_rasterizer.o [1]
  .text                  ro code  0x601a'bfda       0x4  vector_rasterizer.o [1]
  .text                  ro code  0x601a'bfde      0x12  vector_rasterizer.o [1]
  .text                  ro code  0x601a'bff0       0xe  vector_rasterizer.o [1]
  .text                  ro code  0x601a'bffe      0x3a  vector_rasterizer.o [1]
  .text                  ro code  0x601a'c038      0x22  vector_rasterizer.o [1]
  .text                  ro code  0x601a'c05a       0x8  vector_rasterizer.o [1]
  .text                  ro code  0x601a'c062       0x4  vector_rasterizer.o [1]
  .text                  ro code  0x601a'c066       0x4  vector_rasterizer.o [1]
  .text                  ro code  0x601a'c06a      0x1e  vector_rasterizer.o [1]
  .text                  ro code  0x601a'c088       0x4  vector_rasterizer.o [1]
  .text                  ro code  0x601a'c08c       0x4  vector_rasterizer.o [1]
  .text                  ro code  0x601a'c090      0x5a  vector_rasterizer.o [1]
  .text                  ro code  0x601a'c0ea       0xa  vector_rasterizer.o [1]
  .text                  ro code  0x601a'c0f4       0xa  vector_rasterizer.o [1]
  .rodata                const    0x601a'c0fe       0x2  enums.o [1]
  .text                  ro code  0x601a'c100      0x34  nanovg_agge.o [1]
  .text                  ro code  0x601a'c134      0x22  nanovg_agge.o [1]
  .text                  ro code  0x601a'c156       0xe  nanovg_agge.o [1]
  .text                  ro code  0x601a'c164     0x374  stroke.o [1]
  .text                  ro code  0x601a'c4d8       0xe  nanovg_agge.o [1]
  .text                  ro code  0x601a'c4e6       0xe  nanovg_agge.o [1]
  .text                  ro code  0x601a'c4f4      0x16  nanovg_agge.o [1]
  .text                  ro code  0x601a'c50a       0x2  nanovg_agge.o [1]
  .text                  ro code  0x601a'c50c       0xc  nanovg_agge.o [1]
  .text                  ro code  0x601a'c518       0x2  stroke_features.o [1]
  .text                  ro code  0x601a'c51a       0xc  nanovg_agge.o [1]
  .text                  ro code  0x601a'c526      0x36  vector_rasterizer.o [1]
  .text                  ro code  0x601a'c55c       0xe  vector_rasterizer.o [1]
  .rodata                const    0x601a'c56a       0x2  enums.o [1]
  .text                  ro code  0x601a'c56c      0x9c  vector_rasterizer.o [1]
  .text                  ro code  0x601a'c608      0x2e  nanovg_agge.o [1]
  .text                  ro code  0x601a'c636      0x34  nanovg_agge.o [1]
  .text                  ro code  0x601a'c66a       0xc  nanovg_agge.o [1]
  .text                  ro code  0x601a'c676       0xc  stroke.o [1]
  .text                  ro code  0x601a'c682      0x1e  stroke.o [1]
  .text                  ro code  0x601a'c6a0       0x4  stroke.o [1]
  .text                  ro code  0x601a'c6a4       0xe  stroke.o [1]
  .text                  ro code  0x601a'c6b2       0xc  stroke.o [1]
  .text                  ro code  0x601a'c6be       0x6  stroke.o [1]
  .text                  ro code  0x601a'c6c4      0x48  stroke.o [1]
  .text                  ro code  0x601a'c70c      0x12  stroke.o [1]
  .text                  ro code  0x601a'c71e      0x62  stroke.o [1]
  .text                  ro code  0x601a'c780       0x6  stroke.o [1]
  .text                  ro code  0x601a'c786       0x4  stroke.o [1]
  .text                  ro code  0x601a'c78a       0x4  stroke.o [1]
  .text                  ro code  0x601a'c78e       0x4  stroke.o [1]
  .text                  ro code  0x601a'c792       0xe  stroke.o [1]
  .text                  ro code  0x601a'c7a0       0xe  nanovg_agge.o [1]
  .text                  ro code  0x601a'c7ae       0xa  nanovg_agge.o [1]
  .text                  ro code  0x601a'c7b8       0x6  nanovg_agge.o [1]
  .text                  ro code  0x601a'c7be       0x2  nanovg_agge.o [1]
  .text                  ro code  0x601a'c7c0       0x2  nanovg_agge.o [1]
  .text                  ro code  0x601a'c7c2       0xc  vector_rasterizer.o [1]
  .text                  ro code  0x601a'c7ce      0x84  vector_rasterizer.o [1]
  .text                  ro code  0x601a'c852      0x10  vector_rasterizer.o [1]
  .text                  ro code  0x601a'c862      0x24  nanovg_agge.o [1]
  .text                  ro code  0x601a'c886      0x26  nanovg_agge.o [1]
  .text                  ro code  0x601a'c8ac      0x10  stroke.o [1]
  .text                  ro code  0x601a'c8bc      0x36  stroke.o [1]
  .text                  ro code  0x601a'c8f2       0xe  stroke.o [1]
  .text                  ro code  0x601a'c900      0x34  stroke.o [1]
  .text                  ro code  0x601a'c934       0x8  stroke.o [1]
  .text                  ro code  0x601a'c93c      0x3c  stroke.o [1]
  .text                  ro code  0x601a'c978      0x80  stroke.o [1]
  .text                  ro code  0x601a'c9f8       0x8  stroke.o [1]
  .text                  ro code  0x601a'ca00       0xc  vector_rasterizer.o [1]
  .text                  ro code  0x601a'ca0c       0xe  vector_rasterizer.o [1]
  .text                  ro code  0x601a'ca1a       0xe  vector_rasterizer.o [1]
  .text                  ro code  0x601a'ca28       0xc  stroke.o [1]
  .text                  ro code  0x601a'ca34       0xc  stroke_features.o [1]
  .text                  ro code  0x601a'ca40      0x86  stroke_features.o [1]
  .text                  ro code  0x601a'cac6       0xc  stroke.o [1]
  .text                  ro code  0x601a'cad2      0x1c  stroke.o [1]
  .text                  ro code  0x601a'caee      0x2a  stroke.o [1]
  .text                  ro code  0x601a'cb18      0x1e  stroke.o [1]
  .text                  ro code  0x601a'cb36       0xc  stroke_features.o [1]
  .text                  ro code  0x601a'cb42       0xe  stroke.o [1]
  .text                  ro code  0x601a'cb50      0x28  stroke.o [1]
  .text                  ro code  0x601a'cb78      0x94  stroke.o [1]
  .text                  ro code  0x601a'cc0c      0x3a  stroke.o [1]
  .rodata                const    0x601a'cc46       0x2  enums.o [1]
  .text                  ro code  0x601a'cc48      0x5c  math.o [1]
  .text                  ro code  0x601a'cca4       0xe  stroke.o [1]
  .rodata                const    0x601a'ccb2       0x2  fsl_elcdif.o [1]
  .text                  ro code  0x601a'ccb4       0xc  math.o [1]
  .rodata                const    0x601a'ccc0    0x1d54  assets.o [1]
  .rodata                const    0x601a'ea14      0x54  gt9xx.o [1]
  .rodata                const    0x601a'ea68    0x1d1c  assets.o [1]
  .rodata                const    0x601b'0784      0x54  image_loader_stb.o [1]
  .rodata                const    0x601b'07d8    0x1b8c  assets.o [1]
  .rodata                const    0x601b'2364      0x54  linebreakdef.o [1]
  .rodata                const    0x601b'23b8    0x1920  assets.o [1]
  .rodata                const    0x601b'3cd8    0x18ec  assets.o [1]
  .rodata                const    0x601b'55c4      0x54  self_layouter_menu.o [1]
  .rodata                const    0x601b'5618    0x1704  assets.o [1]
  .rodata                const    0x601b'6d1c      0x54  ui_builder_default.o [1]
  .rodata                const    0x601b'6d70    0x1604  assets.o [1]
  .text                  ro code  0x601b'8374    0x1594  slide_indicator.o [1]
  .text                  ro code  0x601b'9908      0x1a  strrchr.o [2]
  .rodata                const    0x601b'9922       0x2  fsl_elcdif.o [1]
  .text                  ro code  0x601b'9924      0x7e  atan2.o [4]
  .rodata                const    0x601b'99a4      0x4c  candidates.o [1]
  .rodata                const    0x601b'99f0    0x1474  assets.o [1]
  .rodata                const    0x601b'ae64      0x4c  dicttrie.o [1]
  .rodata                const    0x601b'aeb0    0x13e8  assets.o [1]
  .rodata                const    0x601b'c298    0x13e4  assets.o [1]
  .text                  ro code  0x601b'd67c    0x13a8  slide_view.o [1]
  .text                  ro code  0x601b'ea24     0x1c4  velocity.o [1]
  .text                  ro code  0x601b'ebe8     0x12e  widget_animator_scroll.o [1]
  .rodata                const    0x601b'ed16       0x2  typeinfo.o [3]
  .rodata                const    0x601b'ed18    0x12f0  assets.o [1]
  .rodata                const    0x601c'0008    0x1274  assets.o [1]
  .rodata                const    0x601c'127c      0x4c  func_call_parser.o [1]
  .rodata                const    0x601c'12c8    0x121c  assets.o [1]
  .rodata                const    0x601c'24e4      0x4c  linebreak.o [1]
  .rodata                const    0x601c'2530    0x1210  assets.o [1]
  .rodata                const    0x601c'3740    0x11d4  assets.o [1]
  .rodata                const    0x601c'4914      0x4c  lpicache.o [1]
  .rodata                const    0x601c'4960    0x11c8  assets.o [1]
  .rodata                const    0x601c'5b28    0x11b0  assets.o [1]
  .rodata                const    0x601c'6cd8    0x10fc  assets.o [1]
  .rodata                const    0x601c'7dd4      0x4c  lpuart_adapter.o [1]
  .rodata                const    0x601c'7e20    0x10d8  assets.o [1]
  .rodata                const    0x601c'8ef8    0x1074  assets.o [1]
  .rodata                const    0x601c'9f6c      0x4c  window_animator_common.o [1]
  .rodata                const    0x601c'9fb8    0x1058  assets.o [1]
  .text                  ro code  0x601c'b010    0x1030  slide_menu.o [1]
  .rodata                const    0x601c'c040    0x1028  assets.o [1]
  .text                  ro code  0x601c'd068    0x1024  bsvg_draw.o [1]
  .text                  ro code  0x601c'e08c      0xc0  bsvg.o [1]
  .text                  ro code  0x601c'e14c      0xa4  svg_path.o [1]
  .text                  ro code  0x601c'e1f0      0x7c  svg_shape.o [1]
  .rodata                const    0x601c'e26c      0x4c  window_manager.o [1]
  .rodata                const    0x601c'e2b8    0x1018  assets.o [1]
  SHT$$ARM_EXIDX                  0x601c'f2d0     0xd00  <Block>
    .ARM.exidx           const    0x601c'f2d0       0x8  matrixsearch.o [1]
    .ARM.exidx           const    0x601c'f2d8       0x8  matrixsearch.o [1]
    .ARM.exidx           const    0x601c'f2e0       0x8  matrixsearch.o [1]
    .ARM.exidx           const    0x601c'f2e8       0x8  matrixsearch.o [1]
    .ARM.exidx           const    0x601c'f2f0       0x8  matrixsearch.o [1]
    .ARM.exidx           const    0x601c'f2f8       0x8  matrixsearch.o [1]
    .ARM.exidx           const    0x601c'f300       0x8  matrixsearch.o [1]
    .ARM.exidx           const    0x601c'f308       0x8  matrixsearch.o [1]
    .ARM.exidx           const    0x601c'f310       0x8  matrixsearch.o [1]
    .ARM.exidx           const    0x601c'f318       0x8  matrixsearch.o [1]
    .ARM.exidx           const    0x601c'f320       0x8  matrixsearch.o [1]
    .ARM.exidx           const    0x601c'f328       0x8  matrixsearch.o [1]
    .ARM.exidx           const    0x601c'f330       0x8  matrixsearch.o [1]
    .ARM.exidx           const    0x601c'f338       0x8  matrixsearch.o [1]
    .ARM.exidx           const    0x601c'f340       0x8  matrixsearch.o [1]
    .ARM.exidx           const    0x601c'f348       0x8  spellingtrie.o [1]
    .ARM.exidx           const    0x601c'f350       0x8  spellingtrie.o [1]
    .ARM.exidx           const    0x601c'f358       0x8  spellingtrie.o [1]
    .ARM.exidx           const    0x601c'f360       0x8  spellingtrie.o [1]
    .ARM.exidx           const    0x601c'f368       0x8  spellingtrie.o [1]
    .ARM.exidx           const    0x601c'f370       0x8  newop_0.o [3]
    .ARM.exidx           const    0x601c'f378       0x8  dicttrie.o [1]
    .ARM.exidx           const    0x601c'f380       0x8  dicttrie.o [1]
    .ARM.exidx           const    0x601c'f388       0x8  dicttrie.o [1]
    .ARM.exidx           const    0x601c'f390       0x8  dicttrie.o [1]
    .ARM.exidx           const    0x601c'f398       0x8  dicttrie.o [1]
    .ARM.exidx           const    0x601c'f3a0       0x8  dicttrie.o [1]
    .ARM.exidx           const    0x601c'f3a8       0x8  dicttrie.o [1]
    .ARM.exidx           const    0x601c'f3b0       0x8  dicttrie.o [1]
    .ARM.exidx           const    0x601c'f3b8       0x8  dicttrie.o [1]
    .ARM.exidx           const    0x601c'f3c0       0x8  dicttrie.o [1]
    .ARM.exidx           const    0x601c'f3c8       0x8  dicttrie.o [1]
    .ARM.exidx           const    0x601c'f3d0       0x8  dicttrie.o [1]
    .ARM.exidx           const    0x601c'f3d8       0x8  dicttrie.o [1]
    .ARM.exidx           const    0x601c'f3e0       0x8  splparser.o [1]
    .ARM.exidx           const    0x601c'f3e8       0x8  splparser.o [1]
    .ARM.exidx           const    0x601c'f3f0       0x8  splparser.o [1]
    .ARM.exidx           const    0x601c'f3f8       0x8  searchutility.o [1]
    .ARM.exidx           const    0x601c'f400       0x8  mystdlib.o [1]
    .ARM.exidx           const    0x601c'f408       0x8  lpicache.o [1]
    .ARM.exidx           const    0x601c'f410       0x8  lpicache.o [1]
    .ARM.exidx           const    0x601c'f418       0x8  dictlist.o [1]
    .ARM.exidx           const    0x601c'f420       0x8  dictlist.o [1]
    .ARM.exidx           const    0x601c'f428       0x8  dictlist.o [1]
    .ARM.exidx           const    0x601c'f430       0x8  dictlist.o [1]
    .ARM.exidx           const    0x601c'f438       0x8  dictlist.o [1]
    .ARM.exidx           const    0x601c'f440       0x8  ngram.o [1]
    .ARM.exidx           const    0x601c'f448       0x8  ngram.o [1]
    .ARM.exidx           const    0x601c'f450       0x8  iar_Raise.o [3]
    .ARM.exidx           const    0x601c'f458       0x8  iar_Raise.o [3]
    .ARM.exidx           const    0x601c'f460       0x8  iar_Raise.o [3]
    .ARM.exidx           const    0x601c'f468       0x8  arm_exceptions_throw_c.o [5]
    .ARM.exidx           const    0x601c'f470       0x8  arm_exceptions_throw_c.o [5]
    .ARM.exidx           const    0x601c'f478       0x8  rtti2.o [3]
    .ARM.exidx           const    0x601c'f480       0x8  rtti.o [3]
    .ARM.exidx           const    0x601c'f488       0x8  rtti.o [3]
    .ARM.exidx           const    0x601c'f490       0x8  cppinit.o [2]
    .ARM.exidx           const    0x601c'f498       0x8  cppinit.o [2]
    .ARM.exidx           const    0x601c'f4a0       0x8  input_engine_pinyin.o [1]
    .ARM.exidx           const    0x601c'f4a8       0x8  input_engine_pinyin.o [1]
    .ARM.exidx           const    0x601c'f4b0       0x8  input_engine_pinyin.o [1]
    .ARM.exidx           const    0x601c'f4b8       0x8  input_engine_pinyin.o [1]
    .ARM.exidx           const    0x601c'f4c0       0x8  pinyinime.o [1]
    .ARM.exidx           const    0x601c'f4c8       0x8  pinyinime.o [1]
    .ARM.exidx           const    0x601c'f4d0       0x8  pinyinime.o [1]
    .ARM.exidx           const    0x601c'f4d8       0x8  pinyinime.o [1]
    .ARM.exidx           const    0x601c'f4e0       0x8  pinyinime.o [1]
    .ARM.exidx           const    0x601c'f4e8       0x8  pinyinime.o [1]
    .ARM.exidx           const    0x601c'f4f0       0x8  nanovg_agge.o [1]
    .ARM.exidx           const    0x601c'f4f8       0x8  nanovg_agge.o [1]
    .ARM.exidx           const    0x601c'f500       0x8  nanovg_agge.o [1]
    .ARM.exidx           const    0x601c'f508       0x8  nanovg_agge.o [1]
    .ARM.exidx           const    0x601c'f510       0x8  nanovg_agge.o [1]
    .ARM.exidx           const    0x601c'f518       0x8  vector_rasterizer.o [1]
    .ARM.exidx           const    0x601c'f520       0x8  vector_rasterizer.o [1]
    .ARM.exidx           const    0x601c'f528       0x8  vector_rasterizer.o [1]
    .ARM.exidx           const    0x601c'f530       0x8  vector_rasterizer.o [1]
    .ARM.exidx           const    0x601c'f538       0x8  vector_rasterizer.o [1]
    .ARM.exidx           const    0x601c'f540       0x8  nanovg_agge.o [1]
    .ARM.exidx           const    0x601c'f548       0x8  vector_rasterizer.o [1]
    .ARM.exidx           const    0x601c'f550       0x8  vector_rasterizer.o [1]
    .ARM.exidx           const    0x601c'f558       0x8  vector_rasterizer.o [1]
    .ARM.exidx           const    0x601c'f560       0x8  vector_rasterizer.o [1]
    .ARM.exidx           const    0x601c'f568       0x8  vector_rasterizer.o [1]
    .ARM.exidx           const    0x601c'f570       0x8  stroke.o [1]
    .ARM.exidx           const    0x601c'f578       0x8  stroke.o [1]
    .ARM.exidx           const    0x601c'f580       0x8  stroke.o [1]
    .ARM.exidx           const    0x601c'f588       0x8  stroke.o [1]
    .ARM.exidx           const    0x601c'f590       0x8  nanovg_agge.o [1]
    .ARM.exidx           const    0x601c'f598       0x8  vector_rasterizer.o [1]
    .ARM.exidx           const    0x601c'f5a0       0x8  vector_rasterizer.o [1]
    .ARM.exidx           const    0x601c'f5a8       0x8  stroke.o [1]
    .ARM.exidx           const    0x601c'f5b0       0x8  stroke.o [1]
    .ARM.exidx           const    0x601c'f5b8       0x8  stroke.o [1]
    .ARM.exidx           const    0x601c'f5c0       0x8  vector_rasterizer.o [1]
    .ARM.exidx           const    0x601c'f5c8       0x8  stroke.o [1]
    .ARM.exidx           const    0x601c'f5d0       0x8  stroke.o [1]
    .ARM.exidx           const    0x601c'f5d8       0x8  stroke.o [1]
    .ARM.exidx           const    0x601c'f5e0       0x8  stroke.o [1]
    .ARM.exidx           const    0x601c'f5e8       0x8  stroke.o [1]
    .ARM.exidx           const    0x601c'f5f0       0x8  stroke_features.o [1]
    .ARM.exidx           const    0x601c'f5f8       0x8  stroke.o [1]
    .ARM.exidx           const    0x601c'f600       0x8  stroke.o [1]
    .ARM.exidx           const    0x601c'f608       0x8  stroke.o [1]
    .ARM.exidx           const    0x601c'f610       0x8  stroke.o [1]
    .ARM.exidx           const    0x601c'f618       0x8  stroke_features.o [1]
    .ARM.exidx           const    0x601c'f620       0x8  stroke_features.o [1]
    .ARM.exidx           const    0x601c'f628       0x8  stroke_features.o [1]
    .ARM.exidx           const    0x601c'f630       0x8  stroke_features.o [1]
    .ARM.exidx           const    0x601c'f638       0x8  stroke_features.o [1]
    .ARM.exidx           const    0x601c'f640       0x8  stroke_features.o [1]
    .ARM.exidx           const    0x601c'f648       0x8  stroke_features.o [1]
    .ARM.exidx           const    0x601c'f650       0x8  stroke_features.o [1]
    .ARM.exidx           const    0x601c'f658       0x8  stroke_features.o [1]
    .ARM.exidx           const    0x601c'f660       0x8  nanovg_agge.o [1]
    .ARM.exidx           const    0x601c'f668       0x8  nanovg_agge.o [1]
    .ARM.exidx           const    0x601c'f670       0x8  nanovg_agge.o [1]
    .ARM.exidx           const    0x601c'f678       0x8  nanovg_agge.o [1]
    .ARM.exidx           const    0x601c'f680       0x8  nanovg_agge.o [1]
    .ARM.exidx           const    0x601c'f688       0x8  nanovg_agge.o [1]
    .ARM.exidx           const    0x601c'f690       0x8  nanovg_agge.o [1]
    .ARM.exidx           const    0x601c'f698       0x8  nanovg_agge.o [1]
    .ARM.exidx           const    0x601c'f6a0       0x8  nanovg_agge.o [1]
    .ARM.exidx           const    0x601c'f6a8       0x8  nanovg_agge.o [1]
    .ARM.exidx           const    0x601c'f6b0       0x8  nanovg_agge.o [1]
    .ARM.exidx           const    0x601c'f6b8       0x8  nanovg_agge.o [1]
    .ARM.exidx           const    0x601c'f6c0       0x8  nanovg_agge.o [1]
    .ARM.exidx           const    0x601c'f6c8       0x8  nanovg_agge.o [1]
    .ARM.exidx           const    0x601c'f6d0       0x8  nanovg_agge.o [1]
    .ARM.exidx           const    0x601c'f6d8       0x8  nanovg_agge.o [1]
    .ARM.exidx           const    0x601c'f6e0       0x8  nanovg_agge.o [1]
    .ARM.exidx           const    0x601c'f6e8       0x8  nanovg_agge.o [1]
    .ARM.exidx           const    0x601c'f6f0       0x8  nanovg_agge.o [1]
    .ARM.exidx           const    0x601c'f6f8       0x8  nanovg_agge.o [1]
    .ARM.exidx           const    0x601c'f700       0x8  nanovg_agge.o [1]
    .ARM.exidx           const    0x601c'f708       0x8  nanovg_agge.o [1]
    .ARM.exidx           const    0x601c'f710       0x8  nanovg_agge.o [1]
    .ARM.exidx           const    0x601c'f718       0x8  nanovg_agge.o [1]
    .ARM.exidx           const    0x601c'f720       0x8  nanovg_agge.o [1]
    .ARM.exidx           const    0x601c'f728       0x8  nanovg_agge.o [1]
    .ARM.exidx           const    0x601c'f730       0x8  nanovg_agge.o [1]
    .ARM.exidx           const    0x601c'f738       0x8  nanovg_agge.o [1]
    .ARM.exidx           const    0x601c'f740       0x8  nanovg_agge.o [1]
    .ARM.exidx           const    0x601c'f748       0x8  nanovg_agge.o [1]
    .ARM.exidx           const    0x601c'f750       0x8  nanovg_agge.o [1]
    .ARM.exidx           const    0x601c'f758       0x8  nanovg_agge.o [1]
    .ARM.exidx           const    0x601c'f760       0x8  nanovg_agge.o [1]
    .ARM.exidx           const    0x601c'f768       0x8  nanovg_agge.o [1]
    .ARM.exidx           const    0x601c'f770       0x8  nanovg_agge.o [1]
    .ARM.exidx           const    0x601c'f778       0x8  nanovg_agge.o [1]
    .ARM.exidx           const    0x601c'f780       0x8  nanovg_agge.o [1]
    .ARM.exidx           const    0x601c'f788       0x8  nanovg_agge.o [1]
    .ARM.exidx           const    0x601c'f790       0x8  nanovg_agge.o [1]
    .ARM.exidx           const    0x601c'f798       0x8  nanovg_agge.o [1]
    .ARM.exidx           const    0x601c'f7a0       0x8  nanovg_agge.o [1]
    .ARM.exidx           const    0x601c'f7a8       0x8  nanovg_agge.o [1]
    .ARM.exidx           const    0x601c'f7b0       0x8  nanovg_agge.o [1]
    .ARM.exidx           const    0x601c'f7b8       0x8  nanovg_agge.o [1]
    .ARM.exidx           const    0x601c'f7c0       0x8  nanovg_agge.o [1]
    .ARM.exidx           const    0x601c'f7c8       0x8  nanovg_agge.o [1]
    .ARM.exidx           const    0x601c'f7d0       0x8  nanovg_agge.o [1]
    .ARM.exidx           const    0x601c'f7d8       0x8  nanovg_agge.o [1]
    .ARM.exidx           const    0x601c'f7e0       0x8  nanovg_agge.o [1]
    .ARM.exidx           const    0x601c'f7e8       0x8  nanovg_agge.o [1]
    .ARM.exidx           const    0x601c'f7f0       0x8  cxxabi.o [3]
    .ARM.exidx           const    0x601c'f7f8       0x8  nanovg_agge.o [1]
    .ARM.exidx           const    0x601c'f800       0x8  nanovg_agge.o [1]
    .ARM.exidx           const    0x601c'f808       0x8  nanovg_agge.o [1]
    .ARM.exidx           const    0x601c'f810       0x8  nanovg_agge.o [1]
    .ARM.exidx           const    0x601c'f818       0x8  nanovg_agge.o [1]
    .ARM.exidx           const    0x601c'f820       0x8  nanovg_agge.o [1]
    .ARM.exidx           const    0x601c'f828       0x8  nanovg_agge.o [1]
    .ARM.exidx           const    0x601c'f830       0x8  nanovg_agge.o [1]
    .ARM.exidx           const    0x601c'f838       0x8  nanovg_agge.o [1]
    .ARM.exidx           const    0x601c'f840       0x8  nanovg_agge.o [1]
    .ARM.exidx           const    0x601c'f848       0x8  nanovg_agge.o [1]
    .ARM.exidx           const    0x601c'f850       0x8  nanovg_agge.o [1]
    .ARM.exidx           const    0x601c'f858       0x8  nanovg_agge.o [1]
    .ARM.exidx           const    0x601c'f860       0x8  nanovg_agge.o [1]
    .ARM.exidx           const    0x601c'f868       0x8  nanovg_agge.o [1]
    .ARM.exidx           const    0x601c'f870       0x8  nanovg_agge.o [1]
    .ARM.exidx           const    0x601c'f878       0x8  nanovg_agge.o [1]
    .ARM.exidx           const    0x601c'f880       0x8  nanovg_agge.o [1]
    .ARM.exidx           const    0x601c'f888       0x8  nanovg_agge.o [1]
    .ARM.exidx           const    0x601c'f890       0x8  nanovg_agge.o [1]
    .ARM.exidx           const    0x601c'f898       0x8  nanovg_agge.o [1]
    .ARM.exidx           const    0x601c'f8a0       0x8  nanovg_agge.o [1]
    .ARM.exidx           const    0x601c'f8a8       0x8  nanovg_agge.o [1]
    .ARM.exidx           const    0x601c'f8b0       0x8  nanovg_agge.o [1]
    .ARM.exidx           const    0x601c'f8b8       0x8  nanovg_agge.o [1]
    .ARM.exidx           const    0x601c'f8c0       0x8  nanovg_agge.o [1]
    .ARM.exidx           const    0x601c'f8c8       0x8  nanovg_agge.o [1]
    .ARM.exidx           const    0x601c'f8d0       0x8  nanovg_agge.o [1]
    .ARM.exidx           const    0x601c'f8d8       0x8  nanovg_agge.o [1]
    .ARM.exidx           const    0x601c'f8e0       0x8  nanovg_agge.o [1]
    .ARM.exidx           const    0x601c'f8e8       0x8  nanovg_agge.o [1]
    .ARM.exidx           const    0x601c'f8f0       0x8  nanovg_agge.o [1]
    .ARM.exidx           const    0x601c'f8f8       0x8  nanovg_agge.o [1]
    .ARM.exidx           const    0x601c'f900       0x8  nanovg_agge.o [1]
    .ARM.exidx           const    0x601c'f908       0x8  nanovg_agge.o [1]
    .ARM.exidx           const    0x601c'f910       0x8  nanovg_agge.o [1]
    .ARM.exidx           const    0x601c'f918       0x8  nanovg_agge.o [1]
    .ARM.exidx           const    0x601c'f920       0x8  nanovg_agge.o [1]
    .ARM.exidx           const    0x601c'f928       0x8  nanovg_agge.o [1]
    .ARM.exidx           const    0x601c'f930       0x8  nanovg_agge.o [1]
    .ARM.exidx           const    0x601c'f938       0x8  nanovg_agge.o [1]
    .ARM.exidx           const    0x601c'f940       0x8  nanovg_agge.o [1]
    .ARM.exidx           const    0x601c'f948       0x8  nanovg_agge.o [1]
    .ARM.exidx           const    0x601c'f950       0x8  nanovg_agge.o [1]
    .ARM.exidx           const    0x601c'f958       0x8  nanovg_agge.o [1]
    .ARM.exidx           const    0x601c'f960       0x8  nanovg_agge.o [1]
    .ARM.exidx           const    0x601c'f968       0x8  nanovg_agge.o [1]
    .ARM.exidx           const    0x601c'f970       0x8  nanovg_agge.o [1]
    .ARM.exidx           const    0x601c'f978       0x8  nanovg_agge.o [1]
    .ARM.exidx           const    0x601c'f980       0x8  nanovg_agge.o [1]
    .ARM.exidx           const    0x601c'f988       0x8  nanovg_agge.o [1]
    .ARM.exidx           const    0x601c'f990       0x8  nanovg_agge.o [1]
    .ARM.exidx           const    0x601c'f998       0x8  nanovg_agge.o [1]
    .ARM.exidx           const    0x601c'f9a0       0x8  nanovg_agge.o [1]
    .ARM.exidx           const    0x601c'f9a8       0x8  nanovg_agge.o [1]
    .ARM.exidx           const    0x601c'f9b0       0x8  nanovg_agge.o [1]
    .ARM.exidx           const    0x601c'f9b8       0x8  nanovg_agge.o [1]
    .ARM.exidx           const    0x601c'f9c0       0x8  nanovg_agge.o [1]
    .ARM.exidx           const    0x601c'f9c8       0x8  nanovg_agge.o [1]
    .ARM.exidx           const    0x601c'f9d0       0x8  nanovg_agge.o [1]
    .ARM.exidx           const    0x601c'f9d8       0x8  nanovg_agge.o [1]
    .ARM.exidx           const    0x601c'f9e0       0x8  nanovg_agge.o [1]
    .ARM.exidx           const    0x601c'f9e8       0x8  nanovg_agge.o [1]
    .ARM.exidx           const    0x601c'f9f0       0x8  nanovg_agge.o [1]
    .ARM.exidx           const    0x601c'f9f8       0x8  nanovg_agge.o [1]
    .ARM.exidx           const    0x601c'fa00       0x8  nanovg_agge.o [1]
    .ARM.exidx           const    0x601c'fa08       0x8  nanovg_agge.o [1]
    .ARM.exidx           const    0x601c'fa10       0x8  nanovg_agge.o [1]
    .ARM.exidx           const    0x601c'fa18       0x8  nanovg_agge.o [1]
    .ARM.exidx           const    0x601c'fa20       0x8  nanovg_agge.o [1]
    .ARM.exidx           const    0x601c'fa28       0x8  nanovg_agge.o [1]
    .ARM.exidx           const    0x601c'fa30       0x8  nanovg_agge.o [1]
    .ARM.exidx           const    0x601c'fa38       0x8  nanovg_agge.o [1]
    .ARM.exidx           const    0x601c'fa40       0x8  nanovg_agge.o [1]
    .ARM.exidx           const    0x601c'fa48       0x8  nanovg_agge.o [1]
    .ARM.exidx           const    0x601c'fa50       0x8  nanovg_agge.o [1]
    .ARM.exidx           const    0x601c'fa58       0x8  nanovg_agge.o [1]
    .ARM.exidx           const    0x601c'fa60       0x8  nanovg_agge.o [1]
    .ARM.exidx           const    0x601c'fa68       0x8  nanovg_agge.o [1]
    .ARM.exidx           const    0x601c'fa70       0x8  nanovg_agge.o [1]
    .ARM.exidx           const    0x601c'fa78       0x8  nanovg_agge.o [1]
    .ARM.exidx           const    0x601c'fa80       0x8  nanovg_agge.o [1]
    .ARM.exidx           const    0x601c'fa88       0x8  nanovg_agge.o [1]
    .ARM.exidx           const    0x601c'fa90       0x8  nanovg_agge.o [1]
    .ARM.exidx           const    0x601c'fa98       0x8  nanovg_agge.o [1]
    .ARM.exidx           const    0x601c'faa0       0x8  nanovg_agge.o [1]
    .ARM.exidx           const    0x601c'faa8       0x8  nanovg_agge.o [1]
    .ARM.exidx           const    0x601c'fab0       0x8  nanovg_agge.o [1]
    .ARM.exidx           const    0x601c'fab8       0x8  nanovg_agge.o [1]
    .ARM.exidx           const    0x601c'fac0       0x8  nanovg_agge.o [1]
    .ARM.exidx           const    0x601c'fac8       0x8  nanovg_agge.o [1]
    .ARM.exidx           const    0x601c'fad0       0x8  nanovg_agge.o [1]
    .ARM.exidx           const    0x601c'fad8       0x8  nanovg_agge.o [1]
    .ARM.exidx           const    0x601c'fae0       0x8  nanovg_agge.o [1]
    .ARM.exidx           const    0x601c'fae8       0x8  nanovg_agge.o [1]
    .ARM.exidx           const    0x601c'faf0       0x8  nanovg_agge.o [1]
    .ARM.exidx           const    0x601c'faf8       0x8  nanovg_agge.o [1]
    .ARM.exidx           const    0x601c'fb00       0x8  nanovg_agge.o [1]
    .ARM.exidx           const    0x601c'fb08       0x8  nanovg_agge.o [1]
    .ARM.exidx           const    0x601c'fb10       0x8  nanovg_agge.o [1]
    .ARM.exidx           const    0x601c'fb18       0x8  nanovg_agge.o [1]
    .ARM.exidx           const    0x601c'fb20       0x8  nanovg_agge.o [1]
    .ARM.exidx           const    0x601c'fb28       0x8  nanovg_agge.o [1]
    .ARM.exidx           const    0x601c'fb30       0x8  nanovg_agge.o [1]
    .ARM.exidx           const    0x601c'fb38       0x8  nanovg_agge.o [1]
    .ARM.exidx           const    0x601c'fb40       0x8  nanovg_agge.o [1]
    .ARM.exidx           const    0x601c'fb48       0x8  nanovg_agge.o [1]
    .ARM.exidx           const    0x601c'fb50       0x8  nanovg_agge.o [1]
    .ARM.exidx           const    0x601c'fb58       0x8  nanovg_agge.o [1]
    .ARM.exidx           const    0x601c'fb60       0x8  nanovg_agge.o [1]
    .ARM.exidx           const    0x601c'fb68       0x8  nanovg_agge.o [1]
    .ARM.exidx           const    0x601c'fb70       0x8  nanovg_agge.o [1]
    .ARM.exidx           const    0x601c'fb78       0x8  nanovg_agge.o [1]
    .ARM.exidx           const    0x601c'fb80       0x8  nanovg_agge.o [1]
    .ARM.exidx           const    0x601c'fb88       0x8  nanovg_agge.o [1]
    .ARM.exidx           const    0x601c'fb90       0x8  nanovg_agge.o [1]
    .ARM.exidx           const    0x601c'fb98       0x8  nanovg_agge.o [1]
    .ARM.exidx           const    0x601c'fba0       0x8  nanovg_agge.o [1]
    .ARM.exidx           const    0x601c'fba8       0x8  nanovg_agge.o [1]
    .ARM.exidx           const    0x601c'fbb0       0x8  nanovg_agge.o [1]
    .ARM.exidx           const    0x601c'fbb8       0x8  nanovg_agge.o [1]
    .ARM.exidx           const    0x601c'fbc0       0x8  nanovg_agge.o [1]
    .ARM.exidx           const    0x601c'fbc8       0x8  nanovg_agge.o [1]
    .ARM.exidx           const    0x601c'fbd0       0x8  nanovg_agge.o [1]
    .ARM.exidx           const    0x601c'fbd8       0x8  nanovg_agge.o [1]
    .ARM.exidx           const    0x601c'fbe0       0x8  nanovg_agge.o [1]
    .ARM.exidx           const    0x601c'fbe8       0x8  nanovg_agge.o [1]
    .ARM.exidx           const    0x601c'fbf0       0x8  nanovg_agge.o [1]
    .ARM.exidx           const    0x601c'fbf8       0x8  nanovg_agge.o [1]
    .ARM.exidx           const    0x601c'fc00       0x8  nanovg_agge.o [1]
    .ARM.exidx           const    0x601c'fc08       0x8  nanovg_agge.o [1]
    .ARM.exidx           const    0x601c'fc10       0x8  nanovg_agge.o [1]
    .ARM.exidx           const    0x601c'fc18       0x8  nanovg_agge.o [1]
    .ARM.exidx           const    0x601c'fc20       0x8  nanovg_agge.o [1]
    .ARM.exidx           const    0x601c'fc28       0x8  nanovg_agge.o [1]
    .ARM.exidx           const    0x601c'fc30       0x8  nanovg_agge.o [1]
    .ARM.exidx           const    0x601c'fc38       0x8  nanovg_agge.o [1]
    .ARM.exidx           const    0x601c'fc40       0x8  nanovg_agge.o [1]
    .ARM.exidx           const    0x601c'fc48       0x8  nanovg_agge.o [1]
    .ARM.exidx           const    0x601c'fc50       0x8  nanovg_agge.o [1]
    .ARM.exidx           const    0x601c'fc58       0x8  nanovg_agge.o [1]
    .ARM.exidx           const    0x601c'fc60       0x8  nanovg_agge.o [1]
    .ARM.exidx           const    0x601c'fc68       0x8  nanovg_agge.o [1]
    .ARM.exidx           const    0x601c'fc70       0x8  nanovg_agge.o [1]
    .ARM.exidx           const    0x601c'fc78       0x8  nanovg_agge.o [1]
    .ARM.exidx           const    0x601c'fc80       0x8  nanovg_agge.o [1]
    .ARM.exidx           const    0x601c'fc88       0x8  nanovg_agge.o [1]
    .ARM.exidx           const    0x601c'fc90       0x8  nanovg_agge.o [1]
    .ARM.exidx           const    0x601c'fc98       0x8  nanovg_agge.o [1]
    .ARM.exidx           const    0x601c'fca0       0x8  nanovg_agge.o [1]
    .ARM.exidx           const    0x601c'fca8       0x8  nanovg_agge.o [1]
    .ARM.exidx           const    0x601c'fcb0       0x8  nanovg_agge.o [1]
    .ARM.exidx           const    0x601c'fcb8       0x8  nanovg_agge.o [1]
    .ARM.exidx           const    0x601c'fcc0       0x8  nanovg_agge.o [1]
    .ARM.exidx           const    0x601c'fcc8       0x8  nanovg_agge.o [1]
    .ARM.exidx           const    0x601c'fcd0       0x8  nanovg_agge.o [1]
    .ARM.exidx           const    0x601c'fcd8       0x8  nanovg_agge.o [1]
    .ARM.exidx           const    0x601c'fce0       0x8  nanovg_agge.o [1]
    .ARM.exidx           const    0x601c'fce8       0x8  nanovg_agge.o [1]
    .ARM.exidx           const    0x601c'fcf0       0x8  nanovg_agge.o [1]
    .ARM.exidx           const    0x601c'fcf8       0x8  nanovg_agge.o [1]
    .ARM.exidx           const    0x601c'fd00       0x8  nanovg_agge.o [1]
    .ARM.exidx           const    0x601c'fd08       0x8  nanovg_agge.o [1]
    .ARM.exidx           const    0x601c'fd10       0x8  nanovg_agge.o [1]
    .ARM.exidx           const    0x601c'fd18       0x8  nanovg_agge.o [1]
    .ARM.exidx           const    0x601c'fd20       0x8  nanovg_agge.o [1]
    .ARM.exidx           const    0x601c'fd28       0x8  nanovg_agge.o [1]
    .ARM.exidx           const    0x601c'fd30       0x8  nanovg_agge.o [1]
    .ARM.exidx           const    0x601c'fd38       0x8  nanovg_agge.o [1]
    .ARM.exidx           const    0x601c'fd40       0x8  nanovg_agge.o [1]
    .ARM.exidx           const    0x601c'fd48       0x8  nanovg_agge.o [1]
    .ARM.exidx           const    0x601c'fd50       0x8  nanovg_agge.o [1]
    .ARM.exidx           const    0x601c'fd58       0x8  nanovg_agge.o [1]
    .ARM.exidx           const    0x601c'fd60       0x8  nanovg_agge.o [1]
    .ARM.exidx           const    0x601c'fd68       0x8  nanovg_agge.o [1]
    .ARM.exidx           const    0x601c'fd70       0x8  nanovg_agge.o [1]
    .ARM.exidx           const    0x601c'fd78       0x8  nanovg_agge.o [1]
    .ARM.exidx           const    0x601c'fd80       0x8  nanovg_agge.o [1]
    .ARM.exidx           const    0x601c'fd88       0x8  nanovg_agge.o [1]
    .ARM.exidx           const    0x601c'fd90       0x8  nanovg_agge.o [1]
    .ARM.exidx           const    0x601c'fd98       0x8  nanovg_agge.o [1]
    .ARM.exidx           const    0x601c'fda0       0x8  nanovg_agge.o [1]
    .ARM.exidx           const    0x601c'fda8       0x8  nanovg_agge.o [1]
    .ARM.exidx           const    0x601c'fdb0       0x8  nanovg_agge.o [1]
    .ARM.exidx           const    0x601c'fdb8       0x8  nanovg_agge.o [1]
    .ARM.exidx           const    0x601c'fdc0       0x8  nanovg_agge.o [1]
    .ARM.exidx           const    0x601c'fdc8       0x8  nanovg_agge.o [1]
    .ARM.exidx           const    0x601c'fdd0       0x8  nanovg_agge.o [1]
    .ARM.exidx           const    0x601c'fdd8       0x8  nanovg_agge.o [1]
    .ARM.exidx           const    0x601c'fde0       0x8  nanovg_agge.o [1]
    .ARM.exidx           const    0x601c'fde8       0x8  nanovg_agge.o [1]
    .ARM.exidx           const    0x601c'fdf0       0x8  nanovg_agge.o [1]
    .ARM.exidx           const    0x601c'fdf8       0x8  nanovg_agge.o [1]
    .ARM.exidx           const    0x601c'fe00       0x8  nanovg_agge.o [1]
    .ARM.exidx           const    0x601c'fe08       0x8  nanovg_agge.o [1]
    .ARM.exidx           const    0x601c'fe10       0x8  nanovg_agge.o [1]
    .ARM.exidx           const    0x601c'fe18       0x8  nanovg_agge.o [1]
    .ARM.exidx           const    0x601c'fe20       0x8  nanovg_agge.o [1]
    .ARM.exidx           const    0x601c'fe28       0x8  nanovg_agge.o [1]
    .ARM.exidx           const    0x601c'fe30       0x8  nanovg_agge.o [1]
    .ARM.exidx           const    0x601c'fe38       0x8  nanovg_agge.o [1]
    .ARM.exidx           const    0x601c'fe40       0x8  nanovg_agge.o [1]
    .ARM.exidx           const    0x601c'fe48       0x8  nanovg_agge.o [1]
    .ARM.exidx           const    0x601c'fe50       0x8  nanovg_agge.o [1]
    .ARM.exidx           const    0x601c'fe58       0x8  nanovg_agge.o [1]
    .ARM.exidx           const    0x601c'fe60       0x8  nanovg_agge.o [1]
    .ARM.exidx           const    0x601c'fe68       0x8  nanovg_agge.o [1]
    .ARM.exidx           const    0x601c'fe70       0x8  nanovg_agge.o [1]
    .ARM.exidx           const    0x601c'fe78       0x8  nanovg_agge.o [1]
    .ARM.exidx           const    0x601c'fe80       0x8  nanovg_agge.o [1]
    .ARM.exidx           const    0x601c'fe88       0x8  nanovg_agge.o [1]
    .ARM.exidx           const    0x601c'fe90       0x8  nanovg_agge.o [1]
    .ARM.exidx           const    0x601c'fe98       0x8  nanovg_agge.o [1]
    .ARM.exidx           const    0x601c'fea0       0x8  nanovg_agge.o [1]
    .ARM.exidx           const    0x601c'fea8       0x8  nanovg_agge.o [1]
    .ARM.exidx           const    0x601c'feb0       0x8  nanovg_agge.o [1]
    .ARM.exidx           const    0x601c'feb8       0x8  nanovg_agge.o [1]
    .ARM.exidx           const    0x601c'fec0       0x8  nanovg_agge.o [1]
    .ARM.exidx           const    0x601c'fec8       0x8  nanovg_agge.o [1]
    .ARM.exidx           const    0x601c'fed0       0x8  nanovg_agge.o [1]
    .ARM.exidx           const    0x601c'fed8       0x8  nanovg_agge.o [1]
    .ARM.exidx           const    0x601c'fee0       0x8  nanovg_agge.o [1]
    .ARM.exidx           const    0x601c'fee8       0x8  nanovg_agge.o [1]
    .ARM.exidx           const    0x601c'fef0       0x8  nanovg_agge.o [1]
    .ARM.exidx           const    0x601c'fef8       0x8  nanovg_agge.o [1]
    .ARM.exidx           const    0x601c'ff00       0x8  nanovg_agge.o [1]
    .ARM.exidx           const    0x601c'ff08       0x8  nanovg_agge.o [1]
    .ARM.exidx           const    0x601c'ff10       0x8  nanovg_agge.o [1]
    .ARM.exidx           const    0x601c'ff18       0x8  nanovg_agge.o [1]
    .ARM.exidx           const    0x601c'ff20       0x8  nanovg_agge.o [1]
    .ARM.exidx           const    0x601c'ff28       0x8  nanovg_agge.o [1]
    .ARM.exidx           const    0x601c'ff30       0x8  nanovg_agge.o [1]
    .ARM.exidx           const    0x601c'ff38       0x8  nanovg_agge.o [1]
    .ARM.exidx           const    0x601c'ff40       0x8  nanovg_agge.o [1]
    .ARM.exidx           const    0x601c'ff48       0x8  nanovg_agge.o [1]
    .ARM.exidx           const    0x601c'ff50       0x8  nanovg_agge.o [1]
    .ARM.exidx           const    0x601c'ff58       0x8  nanovg_agge.o [1]
    .ARM.exidx           const    0x601c'ff60       0x8  nanovg_agge.o [1]
    .ARM.exidx           const    0x601c'ff68       0x8  nanovg_agge.o [1]
    .ARM.exidx           const    0x601c'ff70       0x8  nanovg_agge.o [1]
    .ARM.exidx           const    0x601c'ff78       0x8  nanovg_agge.o [1]
    .ARM.exidx           const    0x601c'ff80       0x8  nanovg_agge.o [1]
    .ARM.exidx           const    0x601c'ff88       0x8  nanovg_agge.o [1]
    .ARM.exidx           const    0x601c'ff90       0x8  nanovg_agge.o [1]
    .ARM.exidx           const    0x601c'ff98       0x8  nanovg_agge.o [1]
    .ARM.exidx           const    0x601c'ffa0       0x8  nanovg_agge.o [1]
    .ARM.exidx           const    0x601c'ffa8       0x8  nanovg_agge.o [1]
    .ARM.exidx           const    0x601c'ffb0       0x8  arm_exceptions_endcatch_c.o [5]
    .ARM.exidx           const    0x601c'ffb8       0x8  arm_exceptions_dec_refcount_c.o [5]
    .ARM.exidx           const    0x601c'ffc0       0x8  arm_exceptions_rethrow_c.o [5]
    .ARM.exidx           const    0x601c'ffc8       0x8  arm_exceptions_throw_c.o [5]
  .text                  ro code  0x601c'ffd0     0xf32  color_picker.o [1]
  .text                  ro code  0x601d'0f02       0x2  startup_MIMXRT1052.o [1]
  .text                  ro code  0x601d'0f04     0x508  rgb_and_hsv.o [1]
  .text                  ro code  0x601d'140c     0x838  color_component.o [1]
  .text                  ro code  0x601d'1c44     0x2e8  color_tile.o [1]
  .rodata                const    0x601d'1f2c      0x4c  wordbreak.o [1]
  .rodata                const    0x601d'1f78     0xf24  assets.o [1]
  .rodata                const    0x601d'2e9c      0x44  awtk_global.o [1]
  .rodata                const    0x601d'2ee0     0xef8  assets.o [1]
  .text                  ro code  0x601d'3dd8     0xec8  text_selector.o [1]
  .rodata                const    0x601d'4ca0     0xde0  assets.o [1]
  .rodata                const    0x601d'5a80     0xdc8  assets.o [1]
  .text                  ro code  0x601d'6848     0xdc8  time_clock.o [1]
  .text                  ro code  0x601d'7610      0x38  date_time.o [1]
  .rodata                const    0x601d'7648     0xdc0  assets.o [1]
  .text                  ro code  0x601d'8408     0xdc0  slider.o [1]
  .text                  ro code  0x601d'91c8     0xd88  stroke_features.o [1]
  .text                  ro code  0x601d'9f50      0x1a  stroke_features.o [1]
  .text                  ro code  0x601d'9f6a      0x2a  stroke_features.o [1]
  .text                  ro code  0x601d'9f94      0x48  atanf.o [4]
  .rodata                const    0x601d'9fdc      0x44  bitmap.o [1]
  .rodata                const    0x601d'a020     0xd2c  assets.o [1]
  .rodata                const    0x601d'ad4c      0x44  bsvg_draw.o [1]
  .rodata                const    0x601d'ad90     0xd0c  assets.o [1]
  .text                  ro code  0x601d'ba9c     0xcc4  scroll_bar.o [1]
  .text                  ro code  0x601d'c760     0x43c  dragger.o [1]
  .text                  ro code  0x601d'cb9c     0xcac  switch.o [1]
  .text                  ro code  0x601d'd848     0xca0  mledit.o [1]
  .text                  ro code  0x601d'e4e8     0x2a0  line_number.o [1]
  .text                  ro code  0x601d'e788     0xbf4  scroll_view.o [1]
  .rodata                const    0x601d'f37c      0x44  edit.o [1]
  .rodata                const    0x601d'f3c0     0xb44  assets.o [1]
  .rodata                const    0x601d'ff04      0x44  expr_eval.o [1]
  .rodata                const    0x601d'ff48     0xac8  assets.o [1]
  .rodata                const    0x601e'0a10     0xa54  assets.o [1]
  .rodata                const    0x601e'1464      0x44  image_loader_stb.o [1]
  .rodata                const    0x601e'14a8     0x9ec  assets.o [1]
  .text                  ro code  0x601e'1e94     0x9c4  hscroll_label.o [1]
  .text                  ro code  0x601e'2858     0x978  image_animation.o [1]
  .rodata                const    0x601e'31d0     0x8b4  assets.o [1]
  .rodata                const    0x601e'3a84      0x44  serial_manager.o [1]
  .rodata                const    0x601e'3ac8     0x8a8  assets.o [1]
  .rodata                const    0x601e'4370     0x880  assets.o [1]
  .rodata                const    0x601e'4bf0     0x880  assets.o [1]
  .rodata                const    0x601e'5470     0x86c  assets.o [1]
  .rodata                const    0x601e'5cdc      0x44  serial_port_uart.o [1]
  .rodata                const    0x601e'5d20     0x864  assets.o [1]
  .rodata                const    0x601e'6584      0x44  soft_g2d.o [1]
  .rodata                const    0x601e'65c8     0x848  assets.o [1]
  .text                  ro code  0x601e'6e10     0x83a  xml_parser.o [1]
  .text                  ro code  0x601e'764a      0xce  xml_builder.o [1]
  .rodata                const    0x601e'7718     0x828  assets.o [1]
  .rodata                const    0x601e'7f40     0x800  assets.o [1]
  .rodata                const    0x601e'8740     0x7ec  assets.o [1]
  .rodata                const    0x601e'8f2c      0x44  svg_path.o [1]
  .rodata                const    0x601e'8f70     0x7c8  assets.o [1]
  .rodata                const    0x601e'9738     0x7c4  assets.o [1]
  .rodata                const    0x601e'9efc      0x44  svg_shape.o [1]
  .rodata                const    0x601e'9f40     0x7b0  assets.o [1]
  .rodata                const    0x601e'a6f0     0x784  assets.o [1]
  .rodata                const    0x601e'ae74     0x760  emojidef.o [1]
  .text                  ro code  0x601e'b5d4     0x750  guage_pointer.o [1]
  .text                  ro code  0x601e'bd24     0x718  progress_circle.o [1]
  .rodata                const    0x601e'c43c      0x44  text_edit.o [1]
  .rodata                const    0x601e'c480     0x70c  assets.o [1]
  .text                  ro code  0x601e'cb8c     0x6e8  children_layouter_list_view.o [1]
  .text                  ro code  0x601e'd274     0x4ec  list_view.o [1]
  .text                  ro code  0x601e'd760     0x6e0  draggable.o [1]
  .text                  ro code  0x601e'de40     0x6d6  hscrollable.o [1]
  .text                  ro code  0x601e'e516       0x2  startup_MIMXRT1052.o [1]
  .rodata                const    0x601e'e518     0x6d0  assets.o [1]
  .rodata                const    0x601e'ebe8     0x6cc  assets.o [1]
  .rodata                const    0x601e'f2b4      0x44  widget.o [1]
  .rodata                const    0x601e'f2f8     0x6b4  assets.o [1]
  .rodata                const    0x601e'f9ac      0x44  window_animator_common.o [1]
  .rodata                const    0x601e'f9f0     0x6b0  assets.o [1]
  .rodata                const    0x601f'00a0     0x6b0  assets.o [1]
  .rodata                const    0x601f'0750     0x6b0  assets.o [1]
  .rodata                const    0x601f'0e00     0x69c  assets.o [1]
  .text                  ro code  0x601f'149c      0x44  fsl_spdif.o [1]
  .rodata                const    0x601f'14e0     0x690  assets.o [1]
  .rodata                const    0x601f'1b70     0x68c  assets.o [1]
  .text                  ro code  0x601f'21fc     0x682  unwind_pr.o [5]
  .text                  ro code  0x601f'287e       0x2  startup_MIMXRT1052.o [1]
  .text                  ro code  0x601f'2880     0x654  tab_button_group.o [1]
  .rodata                const    0x601f'2ed4      0x3c  awtk_global.o [1]
  .rodata                const    0x601f'2f10     0x648  assets.o [1]
  .rodata                const    0x601f'3558     0x634  assets.o [1]
  .rodata                const    0x601f'3b8c      0x3c  dicttrie.o [1]
  .rodata                const    0x601f'3bc8     0x62c  assets.o [1]
  .rodata                const    0x601f'41f4      0x3c  fsl_edma.o [1]
  .rodata                const    0x601f'4230     0x628  assets.o [1]
  .rodata                const    0x601f'4858     0x624  assets.o [1]
  .rodata                const    0x601f'4e7c      0x3c  fsl_enet.o [1]
  .rodata                const    0x601f'4eb8     0x61c  assets.o [1]
  .rodata                const    0x601f'54d4      0x3c  fsl_enet.o [1]
  .rodata                const    0x601f'5510     0x618  assets.o [1]
  .rodata                const    0x601f'5b28     0x5f4  enums.o [1]
  .rodata                const    0x601f'611c      0x3c  fsl_gpio.o [1]
  .rodata                const    0x601f'6158     0x5ec  assets.o [1]
  .rodata                const    0x601f'6744      0x3c  fsl_gpio.o [1]
  .rodata                const    0x601f'6780     0x5e0  assets.o [1]
  .text                  ro code  0x601f'6d60     0x5b8  image_base.o [1]
  .rodata                const    0x601f'7318     0x5a0  assets.o [1]
  .rodata                const    0x601f'78b8     0x584  assets.o [1]
  .rodata                const    0x601f'7e3c      0x3c  fsl_lpi2c.o [1]
  .rodata                const    0x601f'7e78     0x580  assets.o [1]
  .rodata                const    0x601f'83f8     0x574  assets.o [1]
  .text                  ro code  0x601f'896c     0x56a  rich_text_render_node.o [1]
  .text                  ro code  0x601f'8ed6       0x2  startup_MIMXRT1052.o [1]
  .text                  ro code  0x601f'8ed8     0x568  self_layouter_menu.o [1]
  .rodata                const    0x601f'9440     0x54c  assets.o [1]
  .rodata                const    0x601f'998c      0x3c  fsl_sai.o [1]
  .rodata                const    0x601f'99c8     0x544  assets.o [1]
  .rodata                const    0x601f'9f0c      0x3c  gt9xx.o [1]
  .rodata                const    0x601f'9f48     0x544  assets.o [1]
  .text                  ro code  0x601f'a48c     0x540  image_value.o [1]
  .rodata                const    0x601f'a9cc      0x3c  linebreakdef.o [1]
  .rodata                const    0x601f'aa08     0x53c  assets.o [1]
  .text                  ro code  0x601f'af44     0x534  tab_button.o [1]
  .rodata                const    0x601f'b478     0x528  assets.o [1]
  .rodata                const    0x601f'b9a0     0x518  assets.o [1]
  .rodata                const    0x601f'beb8     0x514  assets.o [1]
  .rodata                const    0x601f'c3cc      0x3c  system_info.o [1]
  .rodata                const    0x601f'c408     0x510  assets.o [1]
  .rodata                const    0x601f'c918     0x50c  assets.o [1]
  .text                  ro code  0x601f'ce24     0x50a  rich_text_parser.o [1]
  .text                  ro code  0x601f'd32e       0x2  startup_MIMXRT1052.o [1]
  .text                  ro code  0x601f'd330     0x1f8  rich_text_node.o [1]
  .rodata                const    0x601f'd528     0x504  assets.o [1]
  .rodata                const    0x601f'da2c      0x34  dicttrie.o [1]
  .rodata                const    0x601f'da60     0x504  assets.o [1]
  .rodata                const    0x601f'df64      0x34  font_loader_stb.o [1]
  .rodata                const    0x601f'df98     0x504  assets.o [1]
  .rodata                const    0x601f'e49c      0x34  image_g2d.o [1]
  .rodata                const    0x601f'e4d0     0x4f0  assets.o [1]
  .rodata                const    0x601f'e9c0     0x4e0  assets.o [1]
  .rodata                const    0x601f'eea0     0x4d8  assets.o [1]
  .rodata                const    0x601f'f378     0x4d8  assets.o [1]
  .rodata                const    0x601f'f850     0x4d0  assets.o [1]
  .rodata                const    0x601f'fd20     0x4cc  assets.o [1]
  .rodata                const    0x6020'01ec      0x34  image_g2d.o [1]
  .rodata                const    0x6020'0220     0x4c0  assets.o [1]
  .rodata                const    0x6020'06e0     0x4bc  assets.o [1]
  .rodata                const    0x6020'0b9c      0x34  matrixsearch.o [1]
  .rodata                const    0x6020'0bd0     0x4b8  assets.o [1]
  .rodata                const    0x6020'1088     0x4b0  assets.o [1]
  .rodata                const    0x6020'1538     0x490  assets.o [1]
  .rodata                const    0x6020'19c8     0x480  assets.o [1]
  .rodata                const    0x6020'1e48     0x478  assets.o [1]
  .rodata                const    0x6020'22c0     0x470  assets.o [1]
  .rodata                const    0x6020'2730     0x470  assets.o [1]
  .rodata                const    0x6020'2ba0     0x460  color_parser.o [1]
  .text                  ro code  0x6020'3000     0x45c  candidates.o [1]
  .rodata                const    0x6020'345c      0x34  nanovg.o [1]
  .rodata                const    0x6020'3490     0x454  assets.o [1]
  .rodata                const    0x6020'38e4      0x34  window_manager_default.o [1]
  .rodata                const    0x6020'3918     0x450  assets.o [1]
  .text                  ro code  0x6020'3d68     0x44c  fsl_edma.o [1]
  .rodata                const    0x6020'41b4      0x34  window_manager_default.o [1]
  .rodata                const    0x6020'41e8     0x448  assets.o [1]
  .rodata                const    0x6020'4630     0x444  assets.o [1]
  .rodata                const    0x6020'4a74     0x444  linebreak.o [1]
  .rodata                const    0x6020'4eb8     0x434  assets.o [1]
  .text                  ro code  0x6020'52ec      0x34  fsl_usdhc.o [1]
  .rodata                const    0x6020'5320     0x424  assets.o [1]
  .rodata                const    0x6020'5744      0x2c  dialog_helper.o [1]
  .rodata                const    0x6020'5770     0x420  assets.o [1]
  .rodata                const    0x6020'5b90     0x418  assets.o [1]
  .rodata                const    0x6020'5fa8     0x414  assets.o [1]
  .rodata                const    0x6020'63bc      0x2c  dialog_helper.o [1]
  .rodata                const    0x6020'63e8     0x410  assets.o [1]
  .rodata                const    0x6020'67f8     0x410  assets.o [1]
  .rodata                const    0x6020'6c08     0x410  assets.o [1]
  .text                  ro code  0x6020'7018     0x410  digit_clock.o [1]
  .rodata                const    0x6020'7428     0x408  assets.o [1]
  .rodata                const    0x6020'7830     0x408  assets.o [1]
  .rodata                const    0x6020'7c38     0x3f8  assets.o [1]
  .text                  ro code  0x6020'8030     0x3d4  check_button.o [1]
  .rodata                const    0x6020'8404      0x2c  fsl_assert.o [1]
  .rodata                const    0x6020'8430     0x3bc  assets.o [1]
  .rodata                const    0x6020'87ec      0x2c  gt9xx.o [1]
  .rodata                const    0x6020'8818     0x3bc  assets.o [1]
  .rodata                const    0x6020'8bd4      0x2c  gt9xx.o [1]
  .rodata                const    0x6020'8c00     0x3b0  assets.o [1]
  .rodata                const    0x6020'8fb0     0x3ac  assets.o [1]
  .rodata                const    0x6020'935c      0x2c  gt9xx.o [1]
  .rodata                const    0x6020'9388     0x3ac  assets.o [1]
  .rodata                const    0x6020'9734      0x2c  gt9xx.o [1]
  .rodata                const    0x6020'9760     0x3a8  assets.o [1]
  .rodata                const    0x6020'9b08     0x3a8  assets.o [1]
  .rodata                const    0x6020'9eb0     0x3a8  assets.o [1]
  .rodata                const    0x6020'a258     0x3a8  assets.o [1]
  .rodata                const    0x6020'a600     0x3a0  assets.o [1]
  .text                  ro code  0x6020'a9a0     0x39c  keyboard.o [1]
  .text                  ro code  0x6020'ad3c     0x290  pages.o [1]
  .rodata                const    0x6020'afcc      0x2c  gt9xx.o [1]
  .rodata                const    0x6020'aff8     0x398  assets.o [1]
  .rodata                const    0x6020'b390     0x390  assets.o [1]
  .rodata                const    0x6020'b720     0x380  assets.o [1]
  .rodata                const    0x6020'baa0     0x37c  assets.o [1]
  .rodata                const    0x6020'be1c      0x2c  idle_info.o [1]
  .rodata                const    0x6020'be48     0x364  assets.o [1]
  .rodata                const    0x6020'c1ac      0x2c  image_loader_stb.o [1]
  .rodata                const    0x6020'c1d8     0x364  assets.o [1]
  .text                  ro code  0x6020'c53c     0x364  nanovg_agge.o [1]
  .text                  ro code  0x6020'c8a0      0xde  nanovg_agge.o [1]
  .text                  ro code  0x6020'c97e       0xe  nanovg_agge.o [1]
  .text                  ro code  0x6020'c98c      0x44  nanovg_agge.o [1]
  .text                  ro code  0x6020'c9d0      0x16  nanovg_agge.o [1]
  .text                  ro code  0x6020'c9e6       0x2  startup_MIMXRT1052.o [1]
  .rodata                const    0x6020'c9e8     0x360  assets.o [1]
  .rodata                const    0x6020'cd48     0x354  assets.o [1]
  .rodata                const    0x6020'd09c      0x2c  matrixsearch.o [1]
  .rodata                const    0x6020'd0c8     0x350  assets.o [1]
  .rodata                const    0x6020'd418     0x34c  assets.o [1]
  .text                  ro code  0x6020'd764     0x340  rich_text.o [1]
  .rodata                const    0x6020'daa4      0x2c  native_window_raw.o [1]
  .rodata                const    0x6020'dad0     0x338  assets.o [1]
  .rodata                const    0x6020'de08     0x328  assets.o [1]
  .rodata                const    0x6020'e130     0x314  assets.o [1]
  .rodata                const    0x6020'e444      0x2c  object_default.o [1]
  .rodata                const    0x6020'e470     0x314  assets.o [1]
  .rodata                const    0x6020'e784      0x2c  system_info.o [1]
  .rodata                const    0x6020'e7b0     0x314  assets.o [1]
  .text                  ro code  0x6020'eac4     0x310  calibration_win.o [1]
  .rodata                const    0x6020'edd4      0x2c  timer_info.o [1]
  .rodata                const    0x6020'ee00     0x300  assets.o [1]
  .rodata                const    0x6020'f100     0x2fc  assets.o [1]
  .rodata                const    0x6020'f3fc      0x24  children_layouter_default.o [1]
  .rodata                const    0x6020'f420     0x2e4  assets.o [1]
  .rodata                const    0x6020'f704      0x24  children_layouter_factory.o [1]
  .rodata                const    0x6020'f728     0x2e4  assets.o [1]
  .rodata                const    0x6020'fa0c      0x24  children_layouter_factory.o [1]
  .rodata                const    0x6020'fa30     0x2d8  assets.o [1]
  .rodata                const    0x6020'fd08     0x2d8  assets.o [1]
  .rodata                const    0x6020'ffe0     0x2d0  assets.o [1]
  .rodata                const    0x6021'02b0     0x2c8  assets.o [1]
  .rodata                const    0x6021'0578     0x2c4  assets.o [1]
  .rodata                const    0x6021'083c      0x24  children_layouter_list_view.o [1]
  .rodata                const    0x6021'0860     0x2c0  assets.o [1]
  .text                  ro code  0x6021'0b20     0x2b8  nanovg_agge.o [1]
  .text                  ro code  0x6021'0dd8      0x2a  nanovg_agge.o [1]
  .text                  ro code  0x6021'0e02      0x20  nanovg_agge.o [1]
  .text                  ro code  0x6021'0e22      0x48  nanovg_agge.o [1]
  .text                  ro code  0x6021'0e6a      0x2a  nanovg_agge.o [1]
  .text                  ro code  0x6021'0e94      0x20  nanovg_agge.o [1]
  .text                  ro code  0x6021'0eb4      0x48  nanovg_agge.o [1]
  .text                  ro code  0x6021'0efc      0x2a  nanovg_agge.o [1]
  .text                  ro code  0x6021'0f26      0x20  nanovg_agge.o [1]
  .text                  ro code  0x6021'0f46      0x48  nanovg_agge.o [1]
  .text                  ro code  0x6021'0f8e      0x2a  nanovg_agge.o [1]
  .text                  ro code  0x6021'0fb8      0x20  nanovg_agge.o [1]
  .text                  ro code  0x6021'0fd8      0x48  nanovg_agge.o [1]
  .text                  ro code  0x6021'1020      0x10  nanovg_agge.o [1]
  .text                  ro code  0x6021'1030      0x48  nanovg_agge.o [1]
  .text                  ro code  0x6021'1078      0xb8  nanovg_agge.o [1]
  .text                  ro code  0x6021'1130      0x48  nanovg_agge.o [1]
  .text                  ro code  0x6021'1178      0x16  nanovg_agge.o [1]
  .text                  ro code  0x6021'118e      0x48  nanovg_agge.o [1]
  .text                  ro code  0x6021'11d6      0x16  nanovg_agge.o [1]
  .text                  ro code  0x6021'11ec       0x4  nanovg_agge.o [1]
  .text                  ro code  0x6021'11f0       0x4  nanovg_agge.o [1]
  .text                  ro code  0x6021'11f4      0x9a  nanovg_agge.o [1]
  .text                  ro code  0x6021'128e      0x2a  nanovg_agge.o [1]
  .text                  ro code  0x6021'12b8      0x76  nanovg_agge.o [1]
  .text                  ro code  0x6021'132e      0x9a  nanovg_agge.o [1]
  .text                  ro code  0x6021'13c8      0x2a  nanovg_agge.o [1]
  .text                  ro code  0x6021'13f2      0x76  nanovg_agge.o [1]
  .text                  ro code  0x6021'1468      0x9a  nanovg_agge.o [1]
  .text                  ro code  0x6021'1502      0x2a  nanovg_agge.o [1]
  .text                  ro code  0x6021'152c      0x76  nanovg_agge.o [1]
  .text                  ro code  0x6021'15a2      0x9a  nanovg_agge.o [1]
  .text                  ro code  0x6021'163c      0x2a  nanovg_agge.o [1]
  .text                  ro code  0x6021'1666      0x76  nanovg_agge.o [1]
  .text                  ro code  0x6021'16dc      0x9a  nanovg_agge.o [1]
  .text                  ro code  0x6021'1776      0x2a  nanovg_agge.o [1]
  .text                  ro code  0x6021'17a0      0x76  nanovg_agge.o [1]
  .text                  ro code  0x6021'1816      0x9a  nanovg_agge.o [1]
  .text                  ro code  0x6021'18b0      0x2a  nanovg_agge.o [1]
  .text                  ro code  0x6021'18da      0x76  nanovg_agge.o [1]
  .text                  ro code  0x6021'1950      0x9a  nanovg_agge.o [1]
  .text                  ro code  0x6021'19ea      0x2a  nanovg_agge.o [1]
  .text                  ro code  0x6021'1a14      0x76  nanovg_agge.o [1]
  .text                  ro code  0x6021'1a8a      0x18  nanovg_agge.o [1]
  .text                  ro code  0x6021'1aa2       0xa  nanovg_agge.o [1]
  .text                  ro code  0x6021'1aac       0xa  nanovg_agge.o [1]
  .text                  ro code  0x6021'1ab6      0x30  nanovg_agge.o [1]
  .text                  ro code  0x6021'1ae6       0x4  nanovg_agge.o [1]
  .text                  ro code  0x6021'1aea      0x4a  nanovg_agge.o [1]
  .text                  ro code  0x6021'1b34      0x10  nanovg_agge.o [1]
  .text                  ro code  0x6021'1b44      0x90  nanovg_agge.o [1]
  .text                  ro code  0x6021'1bd4      0x28  nanovg_agge.o [1]
  .text                  ro code  0x6021'1bfc      0x10  nanovg_agge.o [1]
  .text                  ro code  0x6021'1c0c      0x90  nanovg_agge.o [1]
  .text                  ro code  0x6021'1c9c      0x28  nanovg_agge.o [1]
  .text                  ro code  0x6021'1cc4      0x10  nanovg_agge.o [1]
  .text                  ro code  0x6021'1cd4      0x90  nanovg_agge.o [1]
  .text                  ro code  0x6021'1d64      0x28  nanovg_agge.o [1]
  .text                  ro code  0x6021'1d8c      0x10  nanovg_agge.o [1]
  .text                  ro code  0x6021'1d9c      0x90  nanovg_agge.o [1]
  .text                  ro code  0x6021'1e2c      0x28  nanovg_agge.o [1]
  .text                  ro code  0x6021'1e54      0x10  nanovg_agge.o [1]
  .text                  ro code  0x6021'1e64      0x90  nanovg_agge.o [1]
  .text                  ro code  0x6021'1ef4      0x28  nanovg_agge.o [1]
  .text                  ro code  0x6021'1f1c      0x10  nanovg_agge.o [1]
  .text                  ro code  0x6021'1f2c      0x90  nanovg_agge.o [1]
  .text                  ro code  0x6021'1fbc      0x28  nanovg_agge.o [1]
  .text                  ro code  0x6021'1fe4      0x10  nanovg_agge.o [1]
  .text                  ro code  0x6021'1ff4      0x90  nanovg_agge.o [1]
  .text                  ro code  0x6021'2084      0x28  nanovg_agge.o [1]
  .text                  ro code  0x6021'20ac      0x3c  nanovg_agge.o [1]
  .text                  ro code  0x6021'20e8       0x4  nanovg_agge.o [1]
  .text                  ro code  0x6021'20ec       0x4  vector_rasterizer.o [1]
  .text                  ro code  0x6021'20f0      0x32  nanovg_agge.o [1]
  .text                  ro code  0x6021'2122      0x1a  nanovg_agge.o [1]
  .text                  ro code  0x6021'213c      0x26  nanovg_agge.o [1]
  .text                  ro code  0x6021'2162      0x3a  nanovg_agge.o [1]
  .text                  ro code  0x6021'219c      0x46  nanovg_agge.o [1]
  .text                  ro code  0x6021'21e2      0x32  nanovg_agge.o [1]
  .text                  ro code  0x6021'2214      0x26  nanovg_agge.o [1]
  .text                  ro code  0x6021'223a      0x3a  nanovg_agge.o [1]
  .text                  ro code  0x6021'2274      0x46  nanovg_agge.o [1]
  .text                  ro code  0x6021'22ba      0x32  nanovg_agge.o [1]
  .text                  ro code  0x6021'22ec      0x26  nanovg_agge.o [1]
  .text                  ro code  0x6021'2312      0x3a  nanovg_agge.o [1]
  .text                  ro code  0x6021'234c      0x46  nanovg_agge.o [1]
  .text                  ro code  0x6021'2392      0x32  nanovg_agge.o [1]
  .text                  ro code  0x6021'23c4      0x26  nanovg_agge.o [1]
  .text                  ro code  0x6021'23ea      0x3a  nanovg_agge.o [1]
  .text                  ro code  0x6021'2424      0x46  nanovg_agge.o [1]
  .text                  ro code  0x6021'246a      0x32  nanovg_agge.o [1]
  .text                  ro code  0x6021'249c      0x26  nanovg_agge.o [1]
  .text                  ro code  0x6021'24c2      0x3a  nanovg_agge.o [1]
  .text                  ro code  0x6021'24fc      0x46  nanovg_agge.o [1]
  .text                  ro code  0x6021'2542      0x32  nanovg_agge.o [1]
  .text                  ro code  0x6021'2574      0x26  nanovg_agge.o [1]
  .text                  ro code  0x6021'259a      0x3a  nanovg_agge.o [1]
  .text                  ro code  0x6021'25d4      0x46  nanovg_agge.o [1]
  .text                  ro code  0x6021'261a      0x32  nanovg_agge.o [1]
  .text                  ro code  0x6021'264c      0x26  nanovg_agge.o [1]
  .text                  ro code  0x6021'2672      0x3a  nanovg_agge.o [1]
  .text                  ro code  0x6021'26ac      0x46  nanovg_agge.o [1]
  .text                  ro code  0x6021'26f2      0x10  nanovg_agge.o [1]
  .text                  ro code  0x6021'2702      0x7e  nanovg_agge.o [1]
  .text                  ro code  0x6021'2780      0x7e  nanovg_agge.o [1]
  .text                  ro code  0x6021'27fe      0x7e  nanovg_agge.o [1]
  .text                  ro code  0x6021'287c      0x7e  nanovg_agge.o [1]
  .text                  ro code  0x6021'28fa      0x46  nanovg_agge.o [1]
  .text                  ro code  0x6021'2940      0x72  nanovg_agge.o [1]
  .text                  ro code  0x6021'29b2      0x72  nanovg_agge.o [1]
  .text                  ro code  0x6021'2a24       0xc  nanovg_agge.o [1]
  .text                  ro code  0x6021'2a30     0x18c  nanovg_agge.o [1]
  .text                  ro code  0x6021'2bbc       0xe  nanovg_agge.o [1]
  .text                  ro code  0x6021'2bca      0x6a  nanovg_agge.o [1]
  .text                  ro code  0x6021'2c34     0x18c  nanovg_agge.o [1]
  .text                  ro code  0x6021'2dc0     0x18c  nanovg_agge.o [1]
  .text                  ro code  0x6021'2f4c     0x19c  nanovg_agge.o [1]
  .text                  ro code  0x6021'30e8     0x138  nanovg_agge.o [1]
  .text                  ro code  0x6021'3220      0x8e  nanovg_agge.o [1]
  .text                  ro code  0x6021'32ae      0x28  cxxabi.o [3]
  .text                  ro code  0x6021'32d6       0x2  startup_MIMXRT1052.o [1]
  .text                  ro code  0x6021'32d8      0x3c  floorf.o [4]
  .text                  ro code  0x6021'3314       0x6  nanovg_agge.o [1]
  .text                  ro code  0x6021'331a      0xa2  nanovg_agge.o [1]
  .text                  ro code  0x6021'33bc      0x10  nanovg_agge.o [1]
  .text                  ro code  0x6021'33cc      0x12  nanovg_agge.o [1]
  .text                  ro code  0x6021'33de      0x10  nanovg_agge.o [1]
  .text                  ro code  0x6021'33ee      0x1c  nanovg_agge.o [1]
  .text                  ro code  0x6021'340a      0x10  nanovg_agge.o [1]
  .text                  ro code  0x6021'341a       0xe  nanovg_agge.o [1]
  .text                  ro code  0x6021'3428      0xda  nanovg_agge.o [1]
  .text                  ro code  0x6021'3502      0xc2  nanovg_agge.o [1]
  .text                  ro code  0x6021'35c4     0x2b8  nanovg_agge.o [1]
  .text                  ro code  0x6021'387c      0x20  nanovg_agge.o [1]
  .text                  ro code  0x6021'389c      0x48  nanovg_agge.o [1]
  .text                  ro code  0x6021'38e4      0x20  nanovg_agge.o [1]
  .text                  ro code  0x6021'3904      0x48  nanovg_agge.o [1]
  .text                  ro code  0x6021'394c      0x20  nanovg_agge.o [1]
  .text                  ro code  0x6021'396c      0x48  nanovg_agge.o [1]
  .text                  ro code  0x6021'39b4      0x20  nanovg_agge.o [1]
  .text                  ro code  0x6021'39d4      0x48  nanovg_agge.o [1]
  .text                  ro code  0x6021'3a1c      0x10  nanovg_agge.o [1]
  .text                  ro code  0x6021'3a2c      0x48  nanovg_agge.o [1]
  .text                  ro code  0x6021'3a74      0xb8  nanovg_agge.o [1]
  .text                  ro code  0x6021'3b2c      0x48  nanovg_agge.o [1]
  .text                  ro code  0x6021'3b74      0x16  nanovg_agge.o [1]
  .text                  ro code  0x6021'3b8a      0x48  nanovg_agge.o [1]
  .text                  ro code  0x6021'3bd2      0x9a  nanovg_agge.o [1]
  .text                  ro code  0x6021'3c6c      0x2a  nanovg_agge.o [1]
  .text                  ro code  0x6021'3c96      0x76  nanovg_agge.o [1]
  .text                  ro code  0x6021'3d0c      0x9a  nanovg_agge.o [1]
  .text                  ro code  0x6021'3da6      0x2a  nanovg_agge.o [1]
  .text                  ro code  0x6021'3dd0      0x76  nanovg_agge.o [1]
  .text                  ro code  0x6021'3e46      0x9a  nanovg_agge.o [1]
  .text                  ro code  0x6021'3ee0      0x2a  nanovg_agge.o [1]
  .text                  ro code  0x6021'3f0a      0x76  nanovg_agge.o [1]
  .text                  ro code  0x6021'3f80      0x9a  nanovg_agge.o [1]
  .text                  ro code  0x6021'401a      0x2a  nanovg_agge.o [1]
  .text                  ro code  0x6021'4044      0x76  nanovg_agge.o [1]
  .text                  ro code  0x6021'40ba      0x9a  nanovg_agge.o [1]
  .text                  ro code  0x6021'4154      0x2a  nanovg_agge.o [1]
  .text                  ro code  0x6021'417e      0x76  nanovg_agge.o [1]
  .text                  ro code  0x6021'41f4      0x9a  nanovg_agge.o [1]
  .text                  ro code  0x6021'428e      0x2a  nanovg_agge.o [1]
  .text                  ro code  0x6021'42b8      0x76  nanovg_agge.o [1]
  .text                  ro code  0x6021'432e      0x9a  nanovg_agge.o [1]
  .text                  ro code  0x6021'43c8      0x2a  nanovg_agge.o [1]
  .text                  ro code  0x6021'43f2      0x76  nanovg_agge.o [1]
  .text                  ro code  0x6021'4468      0x10  nanovg_agge.o [1]
  .text                  ro code  0x6021'4478      0x90  nanovg_agge.o [1]
  .text                  ro code  0x6021'4508      0x28  nanovg_agge.o [1]
  .text                  ro code  0x6021'4530      0x10  nanovg_agge.o [1]
  .text                  ro code  0x6021'4540      0x90  nanovg_agge.o [1]
  .text                  ro code  0x6021'45d0      0x28  nanovg_agge.o [1]
  .text                  ro code  0x6021'45f8      0x10  nanovg_agge.o [1]
  .text                  ro code  0x6021'4608      0x90  nanovg_agge.o [1]
  .text                  ro code  0x6021'4698      0x28  nanovg_agge.o [1]
  .text                  ro code  0x6021'46c0      0x10  nanovg_agge.o [1]
  .text                  ro code  0x6021'46d0      0x90  nanovg_agge.o [1]
  .text                  ro code  0x6021'4760      0x28  nanovg_agge.o [1]
  .text                  ro code  0x6021'4788      0x10  nanovg_agge.o [1]
  .text                  ro code  0x6021'4798      0x90  nanovg_agge.o [1]
  .text                  ro code  0x6021'4828      0x28  nanovg_agge.o [1]
  .text                  ro code  0x6021'4850      0x10  nanovg_agge.o [1]
  .text                  ro code  0x6021'4860      0x90  nanovg_agge.o [1]
  .text                  ro code  0x6021'48f0      0x28  nanovg_agge.o [1]
  .text                  ro code  0x6021'4918      0x10  nanovg_agge.o [1]
  .text                  ro code  0x6021'4928      0x90  nanovg_agge.o [1]
  .text                  ro code  0x6021'49b8      0x28  nanovg_agge.o [1]
  .text                  ro code  0x6021'49e0      0x32  nanovg_agge.o [1]
  .text                  ro code  0x6021'4a12      0x26  nanovg_agge.o [1]
  .text                  ro code  0x6021'4a38      0x3a  nanovg_agge.o [1]
  .text                  ro code  0x6021'4a72      0x46  nanovg_agge.o [1]
  .text                  ro code  0x6021'4ab8      0x32  nanovg_agge.o [1]
  .text                  ro code  0x6021'4aea      0x26  nanovg_agge.o [1]
  .text                  ro code  0x6021'4b10      0x3a  nanovg_agge.o [1]
  .text                  ro code  0x6021'4b4a      0x46  nanovg_agge.o [1]
  .text                  ro code  0x6021'4b90      0x32  nanovg_agge.o [1]
  .text                  ro code  0x6021'4bc2      0x26  nanovg_agge.o [1]
  .text                  ro code  0x6021'4be8      0x3a  nanovg_agge.o [1]
  .text                  ro code  0x6021'4c22      0x46  nanovg_agge.o [1]
  .text                  ro code  0x6021'4c68      0x32  nanovg_agge.o [1]
  .text                  ro code  0x6021'4c9a      0x26  nanovg_agge.o [1]
  .text                  ro code  0x6021'4cc0      0x3a  nanovg_agge.o [1]
  .text                  ro code  0x6021'4cfa      0x46  nanovg_agge.o [1]
  .text                  ro code  0x6021'4d40      0x32  nanovg_agge.o [1]
  .text                  ro code  0x6021'4d72      0x26  nanovg_agge.o [1]
  .text                  ro code  0x6021'4d98      0x3a  nanovg_agge.o [1]
  .text                  ro code  0x6021'4dd2      0x46  nanovg_agge.o [1]
  .text                  ro code  0x6021'4e18      0x32  nanovg_agge.o [1]
  .text                  ro code  0x6021'4e4a      0x26  nanovg_agge.o [1]
  .text                  ro code  0x6021'4e70      0x3a  nanovg_agge.o [1]
  .text                  ro code  0x6021'4eaa      0x46  nanovg_agge.o [1]
  .text                  ro code  0x6021'4ef0      0x32  nanovg_agge.o [1]
  .text                  ro code  0x6021'4f22      0x26  nanovg_agge.o [1]
  .text                  ro code  0x6021'4f48      0x3a  nanovg_agge.o [1]
  .text                  ro code  0x6021'4f82      0x46  nanovg_agge.o [1]
  .text                  ro code  0x6021'4fc8      0x7e  nanovg_agge.o [1]
  .text                  ro code  0x6021'5046      0x7e  nanovg_agge.o [1]
  .text                  ro code  0x6021'50c4      0x7e  nanovg_agge.o [1]
  .text                  ro code  0x6021'5142      0x7e  nanovg_agge.o [1]
  .text                  ro code  0x6021'51c0      0x46  nanovg_agge.o [1]
  .text                  ro code  0x6021'5206      0x72  nanovg_agge.o [1]
  .text                  ro code  0x6021'5278      0x72  nanovg_agge.o [1]
  .text                  ro code  0x6021'52ea       0x2  startup_MIMXRT1052.o [1]
  .text                  ro code  0x6021'52ec     0x18c  nanovg_agge.o [1]
  .text                  ro code  0x6021'5478      0x6a  nanovg_agge.o [1]
  .rodata                const    0x6021'54e2       0x1  unwind_debug.o [6]
  .text                  ro code  0x6021'54e4     0x18c  nanovg_agge.o [1]
  .text                  ro code  0x6021'5670     0x18c  nanovg_agge.o [1]
  .text                  ro code  0x6021'57fc     0x19c  nanovg_agge.o [1]
  .text                  ro code  0x6021'5998     0x138  nanovg_agge.o [1]
  .text                  ro code  0x6021'5ad0      0x8e  nanovg_agge.o [1]
  .text                  ro code  0x6021'5b5e      0xda  nanovg_agge.o [1]
  .text                  ro code  0x6021'5c38      0xc2  nanovg_agge.o [1]
  .text                  ro code  0x6021'5cfc     0x2b8  nanovg_agge.o [1]
  .text                  ro code  0x6021'5fb4      0x20  nanovg_agge.o [1]
  .text                  ro code  0x6021'5fd4      0x48  nanovg_agge.o [1]
  .text                  ro code  0x6021'601c      0x20  nanovg_agge.o [1]
  .text                  ro code  0x6021'603c      0x48  nanovg_agge.o [1]
  .text                  ro code  0x6021'6084      0x20  nanovg_agge.o [1]
  .text                  ro code  0x6021'60a4      0x48  nanovg_agge.o [1]
  .text                  ro code  0x6021'60ec      0x20  nanovg_agge.o [1]
  .text                  ro code  0x6021'610c      0x48  nanovg_agge.o [1]
  .text                  ro code  0x6021'6154      0x10  nanovg_agge.o [1]
  .text                  ro code  0x6021'6164      0x48  nanovg_agge.o [1]
  .text                  ro code  0x6021'61ac      0xb8  nanovg_agge.o [1]
  .text                  ro code  0x6021'6264      0x48  nanovg_agge.o [1]
  .text                  ro code  0x6021'62ac      0x16  nanovg_agge.o [1]
  .text                  ro code  0x6021'62c2      0x48  nanovg_agge.o [1]
  .text                  ro code  0x6021'630a      0x9a  nanovg_agge.o [1]
  .text                  ro code  0x6021'63a4      0x2a  nanovg_agge.o [1]
  .text                  ro code  0x6021'63ce      0x76  nanovg_agge.o [1]
  .text                  ro code  0x6021'6444      0x9a  nanovg_agge.o [1]
  .text                  ro code  0x6021'64de      0x2a  nanovg_agge.o [1]
  .text                  ro code  0x6021'6508      0x76  nanovg_agge.o [1]
  .text                  ro code  0x6021'657e      0x9a  nanovg_agge.o [1]
  .text                  ro code  0x6021'6618      0x2a  nanovg_agge.o [1]
  .text                  ro code  0x6021'6642      0x76  nanovg_agge.o [1]
  .text                  ro code  0x6021'66b8      0x9a  nanovg_agge.o [1]
  .text                  ro code  0x6021'6752      0x2a  nanovg_agge.o [1]
  .text                  ro code  0x6021'677c      0x76  nanovg_agge.o [1]
  .text                  ro code  0x6021'67f2      0x9a  nanovg_agge.o [1]
  .text                  ro code  0x6021'688c      0x2a  nanovg_agge.o [1]
  .text                  ro code  0x6021'68b6      0x76  nanovg_agge.o [1]
  .text                  ro code  0x6021'692c      0x9a  nanovg_agge.o [1]
  .text                  ro code  0x6021'69c6      0x2a  nanovg_agge.o [1]
  .text                  ro code  0x6021'69f0      0x76  nanovg_agge.o [1]
  .text                  ro code  0x6021'6a66      0x9a  nanovg_agge.o [1]
  .text                  ro code  0x6021'6b00      0x2a  nanovg_agge.o [1]
  .text                  ro code  0x6021'6b2a      0x76  nanovg_agge.o [1]
  .text                  ro code  0x6021'6ba0      0x10  nanovg_agge.o [1]
  .text                  ro code  0x6021'6bb0      0x90  nanovg_agge.o [1]
  .text                  ro code  0x6021'6c40      0x28  nanovg_agge.o [1]
  .text                  ro code  0x6021'6c68      0x10  nanovg_agge.o [1]
  .text                  ro code  0x6021'6c78      0x90  nanovg_agge.o [1]
  .text                  ro code  0x6021'6d08      0x28  nanovg_agge.o [1]
  .text                  ro code  0x6021'6d30      0x10  nanovg_agge.o [1]
  .text                  ro code  0x6021'6d40      0x90  nanovg_agge.o [1]
  .text                  ro code  0x6021'6dd0      0x28  nanovg_agge.o [1]
  .text                  ro code  0x6021'6df8      0x10  nanovg_agge.o [1]
  .text                  ro code  0x6021'6e08      0x90  nanovg_agge.o [1]
  .text                  ro code  0x6021'6e98      0x28  nanovg_agge.o [1]
  .text                  ro code  0x6021'6ec0      0x10  nanovg_agge.o [1]
  .text                  ro code  0x6021'6ed0      0x90  nanovg_agge.o [1]
  .text                  ro code  0x6021'6f60      0x28  nanovg_agge.o [1]
  .text                  ro code  0x6021'6f88      0x10  nanovg_agge.o [1]
  .text                  ro code  0x6021'6f98      0x90  nanovg_agge.o [1]
  .text                  ro code  0x6021'7028      0x28  nanovg_agge.o [1]
  .text                  ro code  0x6021'7050      0x10  nanovg_agge.o [1]
  .text                  ro code  0x6021'7060      0x90  nanovg_agge.o [1]
  .text                  ro code  0x6021'70f0      0x28  nanovg_agge.o [1]
  .text                  ro code  0x6021'7118      0x32  nanovg_agge.o [1]
  .text                  ro code  0x6021'714a      0x26  nanovg_agge.o [1]
  .text                  ro code  0x6021'7170      0x3a  nanovg_agge.o [1]
  .text                  ro code  0x6021'71aa      0x4a  nanovg_agge.o [1]
  .text                  ro code  0x6021'71f4      0x32  nanovg_agge.o [1]
  .text                  ro code  0x6021'7226      0x26  nanovg_agge.o [1]
  .text                  ro code  0x6021'724c      0x3a  nanovg_agge.o [1]
  .text                  ro code  0x6021'7286      0x4a  nanovg_agge.o [1]
  .text                  ro code  0x6021'72d0      0x32  nanovg_agge.o [1]
  .text                  ro code  0x6021'7302      0x26  nanovg_agge.o [1]
  .text                  ro code  0x6021'7328      0x3a  nanovg_agge.o [1]
  .text                  ro code  0x6021'7362      0x4a  nanovg_agge.o [1]
  .text                  ro code  0x6021'73ac      0x32  nanovg_agge.o [1]
  .text                  ro code  0x6021'73de      0x26  nanovg_agge.o [1]
  .text                  ro code  0x6021'7404      0x3a  nanovg_agge.o [1]
  .text                  ro code  0x6021'743e      0x4a  nanovg_agge.o [1]
  .text                  ro code  0x6021'7488      0x32  nanovg_agge.o [1]
  .text                  ro code  0x6021'74ba      0x26  nanovg_agge.o [1]
  .text                  ro code  0x6021'74e0      0x3a  nanovg_agge.o [1]
  .text                  ro code  0x6021'751a      0x4a  nanovg_agge.o [1]
  .text                  ro code  0x6021'7564      0x32  nanovg_agge.o [1]
  .text                  ro code  0x6021'7596      0x26  nanovg_agge.o [1]
  .text                  ro code  0x6021'75bc      0x3a  nanovg_agge.o [1]
  .text                  ro code  0x6021'75f6      0x4a  nanovg_agge.o [1]
  .text                  ro code  0x6021'7640      0x32  nanovg_agge.o [1]
  .text                  ro code  0x6021'7672      0x26  nanovg_agge.o [1]
  .text                  ro code  0x6021'7698      0x3a  nanovg_agge.o [1]
  .text                  ro code  0x6021'76d2      0x4a  nanovg_agge.o [1]
  .text                  ro code  0x6021'771c      0x7e  nanovg_agge.o [1]
  .text                  ro code  0x6021'779a      0x7e  nanovg_agge.o [1]
  .text                  ro code  0x6021'7818      0x7e  nanovg_agge.o [1]
  .text                  ro code  0x6021'7896      0x7e  nanovg_agge.o [1]
  .text                  ro code  0x6021'7914      0x46  nanovg_agge.o [1]
  .text                  ro code  0x6021'795a      0x72  nanovg_agge.o [1]
  .text                  ro code  0x6021'79cc      0x72  nanovg_agge.o [1]
  .text                  ro code  0x6021'7a40     0x18c  nanovg_agge.o [1]
  .text                  ro code  0x6021'7bcc      0x76  nanovg_agge.o [1]
  .text                  ro code  0x6021'7c44     0x18c  nanovg_agge.o [1]
  .text                  ro code  0x6021'7dd0     0x18c  nanovg_agge.o [1]
  .text                  ro code  0x6021'7f5c     0x19c  nanovg_agge.o [1]
  .text                  ro code  0x6021'80f8     0x138  nanovg_agge.o [1]
  .text                  ro code  0x6021'8230      0x8e  nanovg_agge.o [1]
  .text                  ro code  0x6021'82be      0xda  nanovg_agge.o [1]
  .text                  ro code  0x6021'8398      0xc2  nanovg_agge.o [1]
  .text                  ro code  0x6021'845c     0x2b8  nanovg_agge.o [1]
  .text                  ro code  0x6021'8714      0x2a  nanovg_agge.o [1]
  .text                  ro code  0x6021'873e      0x20  nanovg_agge.o [1]
  .text                  ro code  0x6021'875e      0x48  nanovg_agge.o [1]
  .text                  ro code  0x6021'87a6      0x20  nanovg_agge.o [1]
  .text                  ro code  0x6021'87c6      0x48  nanovg_agge.o [1]
  .text                  ro code  0x6021'880e      0x20  nanovg_agge.o [1]
  .text                  ro code  0x6021'882e      0x48  nanovg_agge.o [1]
  .text                  ro code  0x6021'8876      0x20  nanovg_agge.o [1]
  .text                  ro code  0x6021'8896      0x48  nanovg_agge.o [1]
  .text                  ro code  0x6021'88de      0x10  nanovg_agge.o [1]
  .text                  ro code  0x6021'88ee      0x48  nanovg_agge.o [1]
  .text                  ro code  0x6021'8938      0xb8  nanovg_agge.o [1]
  .text                  ro code  0x6021'89f0      0x48  nanovg_agge.o [1]
  .text                  ro code  0x6021'8a38      0x16  nanovg_agge.o [1]
  .text                  ro code  0x6021'8a4e      0x48  nanovg_agge.o [1]
  .text                  ro code  0x6021'8a96      0x9a  nanovg_agge.o [1]
  .text                  ro code  0x6021'8b30      0x2a  nanovg_agge.o [1]
  .text                  ro code  0x6021'8b5a      0x76  nanovg_agge.o [1]
  .text                  ro code  0x6021'8bd0      0x9a  nanovg_agge.o [1]
  .text                  ro code  0x6021'8c6a      0x2a  nanovg_agge.o [1]
  .text                  ro code  0x6021'8c94      0x76  nanovg_agge.o [1]
  .text                  ro code  0x6021'8d0a      0x9a  nanovg_agge.o [1]
  .text                  ro code  0x6021'8da4      0x2a  nanovg_agge.o [1]
  .text                  ro code  0x6021'8dce      0x76  nanovg_agge.o [1]
  .text                  ro code  0x6021'8e44      0x9a  nanovg_agge.o [1]
  .text                  ro code  0x6021'8ede      0x2a  nanovg_agge.o [1]
  .text                  ro code  0x6021'8f08      0x76  nanovg_agge.o [1]
  .text                  ro code  0x6021'8f7e      0x9a  nanovg_agge.o [1]
  .text                  ro code  0x6021'9018      0x2a  nanovg_agge.o [1]
  .text                  ro code  0x6021'9042      0x76  nanovg_agge.o [1]
  .text                  ro code  0x6021'90b8      0x9a  nanovg_agge.o [1]
  .text                  ro code  0x6021'9152      0x2a  nanovg_agge.o [1]
  .text                  ro code  0x6021'917c      0x76  nanovg_agge.o [1]
  .text                  ro code  0x6021'91f2      0x9a  nanovg_agge.o [1]
  .text                  ro code  0x6021'928c      0x2a  nanovg_agge.o [1]
  .text                  ro code  0x6021'92b6      0x76  nanovg_agge.o [1]
  .text                  ro code  0x6021'932c      0x10  nanovg_agge.o [1]
  .text                  ro code  0x6021'933c      0x90  nanovg_agge.o [1]
  .text                  ro code  0x6021'93cc      0x28  nanovg_agge.o [1]
  .text                  ro code  0x6021'93f4      0x10  nanovg_agge.o [1]
  .text                  ro code  0x6021'9404      0x90  nanovg_agge.o [1]
  .text                  ro code  0x6021'9494      0x28  nanovg_agge.o [1]
  .text                  ro code  0x6021'94bc      0x10  nanovg_agge.o [1]
  .text                  ro code  0x6021'94cc      0x90  nanovg_agge.o [1]
  .text                  ro code  0x6021'955c      0x28  nanovg_agge.o [1]
  .text                  ro code  0x6021'9584      0x10  nanovg_agge.o [1]
  .text                  ro code  0x6021'9594      0x90  nanovg_agge.o [1]
  .text                  ro code  0x6021'9624      0x28  nanovg_agge.o [1]
  .text                  ro code  0x6021'964c      0x10  nanovg_agge.o [1]
  .text                  ro code  0x6021'965c      0x90  nanovg_agge.o [1]
  .text                  ro code  0x6021'96ec      0x28  nanovg_agge.o [1]
  .text                  ro code  0x6021'9714      0x10  nanovg_agge.o [1]
  .text                  ro code  0x6021'9724      0x90  nanovg_agge.o [1]
  .text                  ro code  0x6021'97b4      0x28  nanovg_agge.o [1]
  .text                  ro code  0x6021'97dc      0x10  nanovg_agge.o [1]
  .text                  ro code  0x6021'97ec      0x90  nanovg_agge.o [1]
  .text                  ro code  0x6021'987c      0x28  nanovg_agge.o [1]
  .text                  ro code  0x6021'98a4      0x32  nanovg_agge.o [1]
  .text                  ro code  0x6021'98d6      0x26  nanovg_agge.o [1]
  .text                  ro code  0x6021'98fc      0x3a  nanovg_agge.o [1]
  .text                  ro code  0x6021'9936      0x4a  nanovg_agge.o [1]
  .text                  ro code  0x6021'9980      0x32  nanovg_agge.o [1]
  .text                  ro code  0x6021'99b2      0x26  nanovg_agge.o [1]
  .text                  ro code  0x6021'99d8      0x3a  nanovg_agge.o [1]
  .text                  ro code  0x6021'9a12      0x4a  nanovg_agge.o [1]
  .text                  ro code  0x6021'9a5c      0x32  nanovg_agge.o [1]
  .text                  ro code  0x6021'9a8e      0x26  nanovg_agge.o [1]
  .text                  ro code  0x6021'9ab4      0x3a  nanovg_agge.o [1]
  .text                  ro code  0x6021'9aee      0x4a  nanovg_agge.o [1]
  .text                  ro code  0x6021'9b38      0x32  nanovg_agge.o [1]
  .text                  ro code  0x6021'9b6a      0x26  nanovg_agge.o [1]
  .text                  ro code  0x6021'9b90      0x3a  nanovg_agge.o [1]
  .text                  ro code  0x6021'9bca      0x4a  nanovg_agge.o [1]
  .text                  ro code  0x6021'9c14      0x32  nanovg_agge.o [1]
  .text                  ro code  0x6021'9c46      0x26  nanovg_agge.o [1]
  .text                  ro code  0x6021'9c6c      0x3a  nanovg_agge.o [1]
  .text                  ro code  0x6021'9ca6      0x4a  nanovg_agge.o [1]
  .text                  ro code  0x6021'9cf0      0x32  nanovg_agge.o [1]
  .text                  ro code  0x6021'9d22      0x26  nanovg_agge.o [1]
  .text                  ro code  0x6021'9d48      0x3a  nanovg_agge.o [1]
  .text                  ro code  0x6021'9d82      0x4a  nanovg_agge.o [1]
  .text                  ro code  0x6021'9dcc      0x32  nanovg_agge.o [1]
  .text                  ro code  0x6021'9dfe      0x26  nanovg_agge.o [1]
  .text                  ro code  0x6021'9e24      0x3a  nanovg_agge.o [1]
  .text                  ro code  0x6021'9e5e      0x4a  nanovg_agge.o [1]
  .text                  ro code  0x6021'9ea8      0x10  nanovg_agge.o [1]
  .text                  ro code  0x6021'9eb8      0x7e  nanovg_agge.o [1]
  .text                  ro code  0x6021'9f36      0x7e  nanovg_agge.o [1]
  .text                  ro code  0x6021'9fb4      0x7e  nanovg_agge.o [1]
  .text                  ro code  0x6021'a032      0x7e  nanovg_agge.o [1]
  .text                  ro code  0x6021'a0b0      0x46  nanovg_agge.o [1]
  .text                  ro code  0x6021'a0f6      0x72  nanovg_agge.o [1]
  .text                  ro code  0x6021'a168      0x72  nanovg_agge.o [1]
  .text                  ro code  0x6021'a1dc     0x18c  nanovg_agge.o [1]
  .text                  ro code  0x6021'a368      0x76  nanovg_agge.o [1]
  .text                  ro code  0x6021'a3e0     0x18c  nanovg_agge.o [1]
  .text                  ro code  0x6021'a56c     0x18c  nanovg_agge.o [1]
  .text                  ro code  0x6021'a6f8     0x19c  nanovg_agge.o [1]
  .text                  ro code  0x6021'a894     0x138  nanovg_agge.o [1]
  .text                  ro code  0x6021'a9cc      0x8e  nanovg_agge.o [1]
  .text                  ro code  0x6021'aa5a      0xda  nanovg_agge.o [1]
  .text                  ro code  0x6021'ab34      0xc2  nanovg_agge.o [1]
  .text                  ro code  0x6021'abf8     0x2b8  nanovg_agge.o [1]
  .text                  ro code  0x6021'aeb0      0x20  nanovg_agge.o [1]
  .text                  ro code  0x6021'aed0      0x48  nanovg_agge.o [1]
  .text                  ro code  0x6021'af18      0x20  nanovg_agge.o [1]
  .text                  ro code  0x6021'af38      0x48  nanovg_agge.o [1]
  .text                  ro code  0x6021'af80      0x20  nanovg_agge.o [1]
  .text                  ro code  0x6021'afa0      0x48  nanovg_agge.o [1]
  .text                  ro code  0x6021'afe8      0x20  nanovg_agge.o [1]
  .text                  ro code  0x6021'b008      0x48  nanovg_agge.o [1]
  .text                  ro code  0x6021'b050      0x10  nanovg_agge.o [1]
  .text                  ro code  0x6021'b060      0x48  nanovg_agge.o [1]
  .text                  ro code  0x6021'b0a8      0xb8  nanovg_agge.o [1]
  .text                  ro code  0x6021'b160      0x48  nanovg_agge.o [1]
  .text                  ro code  0x6021'b1a8      0x16  nanovg_agge.o [1]
  .text                  ro code  0x6021'b1be      0x48  nanovg_agge.o [1]
  .text                  ro code  0x6021'b206      0x9a  nanovg_agge.o [1]
  .text                  ro code  0x6021'b2a0      0x2a  nanovg_agge.o [1]
  .text                  ro code  0x6021'b2ca      0x76  nanovg_agge.o [1]
  .text                  ro code  0x6021'b340      0x9a  nanovg_agge.o [1]
  .text                  ro code  0x6021'b3da      0x2a  nanovg_agge.o [1]
  .text                  ro code  0x6021'b404      0x76  nanovg_agge.o [1]
  .text                  ro code  0x6021'b47a      0x9a  nanovg_agge.o [1]
  .text                  ro code  0x6021'b514      0x2a  nanovg_agge.o [1]
  .text                  ro code  0x6021'b53e      0x76  nanovg_agge.o [1]
  .text                  ro code  0x6021'b5b4      0x9a  nanovg_agge.o [1]
  .text                  ro code  0x6021'b64e      0x2a  nanovg_agge.o [1]
  .text                  ro code  0x6021'b678      0x76  nanovg_agge.o [1]
  .text                  ro code  0x6021'b6ee      0x9a  nanovg_agge.o [1]
  .text                  ro code  0x6021'b788      0x2a  nanovg_agge.o [1]
  .text                  ro code  0x6021'b7b2      0x76  nanovg_agge.o [1]
  .text                  ro code  0x6021'b828      0x9a  nanovg_agge.o [1]
  .text                  ro code  0x6021'b8c2      0x2a  nanovg_agge.o [1]
  .text                  ro code  0x6021'b8ec      0x76  nanovg_agge.o [1]
  .text                  ro code  0x6021'b962      0x9a  nanovg_agge.o [1]
  .text                  ro code  0x6021'b9fc      0x2a  nanovg_agge.o [1]
  .text                  ro code  0x6021'ba26      0x76  nanovg_agge.o [1]
  .text                  ro code  0x6021'ba9c      0x10  nanovg_agge.o [1]
  .text                  ro code  0x6021'baac      0x90  nanovg_agge.o [1]
  .text                  ro code  0x6021'bb3c      0x28  nanovg_agge.o [1]
  .text                  ro code  0x6021'bb64      0x10  nanovg_agge.o [1]
  .text                  ro code  0x6021'bb74      0x90  nanovg_agge.o [1]
  .text                  ro code  0x6021'bc04      0x28  nanovg_agge.o [1]
  .text                  ro code  0x6021'bc2c      0x10  nanovg_agge.o [1]
  .text                  ro code  0x6021'bc3c      0x90  nanovg_agge.o [1]
  .text                  ro code  0x6021'bccc      0x28  nanovg_agge.o [1]
  .text                  ro code  0x6021'bcf4      0x10  nanovg_agge.o [1]
  .text                  ro code  0x6021'bd04      0x90  nanovg_agge.o [1]
  .text                  ro code  0x6021'bd94      0x28  nanovg_agge.o [1]
  .text                  ro code  0x6021'bdbc      0x10  nanovg_agge.o [1]
  .text                  ro code  0x6021'bdcc      0x90  nanovg_agge.o [1]
  .text                  ro code  0x6021'be5c      0x28  nanovg_agge.o [1]
  .text                  ro code  0x6021'be84      0x10  nanovg_agge.o [1]
  .text                  ro code  0x6021'be94      0x90  nanovg_agge.o [1]
  .text                  ro code  0x6021'bf24      0x28  nanovg_agge.o [1]
  .text                  ro code  0x6021'bf4c      0x10  nanovg_agge.o [1]
  .text                  ro code  0x6021'bf5c      0x90  nanovg_agge.o [1]
  .text                  ro code  0x6021'bfec      0x28  nanovg_agge.o [1]
  .text                  ro code  0x6021'c014      0x32  nanovg_agge.o [1]
  .text                  ro code  0x6021'c046      0x26  nanovg_agge.o [1]
  .text                  ro code  0x6021'c06c      0x3a  nanovg_agge.o [1]
  .text                  ro code  0x6021'c0a6      0x46  nanovg_agge.o [1]
  .text                  ro code  0x6021'c0ec      0x32  nanovg_agge.o [1]
  .text                  ro code  0x6021'c11e      0x26  nanovg_agge.o [1]
  .text                  ro code  0x6021'c144      0x3a  nanovg_agge.o [1]
  .text                  ro code  0x6021'c17e      0x46  nanovg_agge.o [1]
  .text                  ro code  0x6021'c1c4      0x32  nanovg_agge.o [1]
  .text                  ro code  0x6021'c1f6      0x26  nanovg_agge.o [1]
  .text                  ro code  0x6021'c21c      0x3a  nanovg_agge.o [1]
  .text                  ro code  0x6021'c256      0x46  nanovg_agge.o [1]
  .text                  ro code  0x6021'c29c      0x32  nanovg_agge.o [1]
  .text                  ro code  0x6021'c2ce      0x26  nanovg_agge.o [1]
  .text                  ro code  0x6021'c2f4      0x3a  nanovg_agge.o [1]
  .text                  ro code  0x6021'c32e      0x46  nanovg_agge.o [1]
  .text                  ro code  0x6021'c374      0x32  nanovg_agge.o [1]
  .text                  ro code  0x6021'c3a6      0x26  nanovg_agge.o [1]
  .text                  ro code  0x6021'c3cc      0x3a  nanovg_agge.o [1]
  .text                  ro code  0x6021'c406      0x46  nanovg_agge.o [1]
  .text                  ro code  0x6021'c44c      0x32  nanovg_agge.o [1]
  .text                  ro code  0x6021'c47e      0x26  nanovg_agge.o [1]
  .text                  ro code  0x6021'c4a4      0x3a  nanovg_agge.o [1]
  .text                  ro code  0x6021'c4de      0x46  nanovg_agge.o [1]
  .text                  ro code  0x6021'c524      0x32  nanovg_agge.o [1]
  .text                  ro code  0x6021'c556      0x26  nanovg_agge.o [1]
  .text                  ro code  0x6021'c57c      0x3a  nanovg_agge.o [1]
  .text                  ro code  0x6021'c5b6      0x46  nanovg_agge.o [1]
  .text                  ro code  0x6021'c5fc      0x7e  nanovg_agge.o [1]
  .text                  ro code  0x6021'c67a      0x7e  nanovg_agge.o [1]
  .text                  ro code  0x6021'c6f8      0x7e  nanovg_agge.o [1]
  .text                  ro code  0x6021'c776      0x7e  nanovg_agge.o [1]
  .text                  ro code  0x6021'c7f4      0x46  nanovg_agge.o [1]
  .text                  ro code  0x6021'c83a      0x72  nanovg_agge.o [1]
  .text                  ro code  0x6021'c8ac      0x72  nanovg_agge.o [1]
  .text                  ro code  0x6021'c920     0x18c  nanovg_agge.o [1]
  .text                  ro code  0x6021'caac      0xb6  nanovg_agge.o [1]
  .text                  ro code  0x6021'cb64     0x18c  nanovg_agge.o [1]
  .text                  ro code  0x6021'ccf0     0x18c  nanovg_agge.o [1]
  .text                  ro code  0x6021'ce7c     0x19c  nanovg_agge.o [1]
  .text                  ro code  0x6021'd018     0x138  nanovg_agge.o [1]
  .text                  ro code  0x6021'd150      0x8e  nanovg_agge.o [1]
  .text                  ro code  0x6021'd1de      0xda  nanovg_agge.o [1]
  .text                  ro code  0x6021'd2b8      0xc2  nanovg_agge.o [1]
  .text                  ro code  0x6021'd37c     0x2b8  nanovg_agge.o [1]
  .text                  ro code  0x6021'd634      0x2a  nanovg_agge.o [1]
  .text                  ro code  0x6021'd65e      0x20  nanovg_agge.o [1]
  .text                  ro code  0x6021'd67e      0x48  nanovg_agge.o [1]
  .text                  ro code  0x6021'd6c6      0x20  nanovg_agge.o [1]
  .text                  ro code  0x6021'd6e6      0x48  nanovg_agge.o [1]
  .text                  ro code  0x6021'd72e      0x20  nanovg_agge.o [1]
  .text                  ro code  0x6021'd74e      0x48  nanovg_agge.o [1]
  .text                  ro code  0x6021'd796      0x20  nanovg_agge.o [1]
  .text                  ro code  0x6021'd7b6      0x48  nanovg_agge.o [1]
  .text                  ro code  0x6021'd7fe      0x10  nanovg_agge.o [1]
  .text                  ro code  0x6021'd80e      0x48  nanovg_agge.o [1]
  .text                  ro code  0x6021'd858      0xb8  nanovg_agge.o [1]
  .text                  ro code  0x6021'd910      0x48  nanovg_agge.o [1]
  .text                  ro code  0x6021'd958      0x16  nanovg_agge.o [1]
  .text                  ro code  0x6021'd96e      0x48  nanovg_agge.o [1]
  .text                  ro code  0x6021'd9b6      0x9a  nanovg_agge.o [1]
  .text                  ro code  0x6021'da50      0x2a  nanovg_agge.o [1]
  .text                  ro code  0x6021'da7a      0x76  nanovg_agge.o [1]
  .text                  ro code  0x6021'daf0      0x9a  nanovg_agge.o [1]
  .text                  ro code  0x6021'db8a      0x2a  nanovg_agge.o [1]
  .text                  ro code  0x6021'dbb4      0x76  nanovg_agge.o [1]
  .text                  ro code  0x6021'dc2a      0x9a  nanovg_agge.o [1]
  .text                  ro code  0x6021'dcc4      0x2a  nanovg_agge.o [1]
  .text                  ro code  0x6021'dcee      0x76  nanovg_agge.o [1]
  .text                  ro code  0x6021'dd64      0x9a  nanovg_agge.o [1]
  .text                  ro code  0x6021'ddfe      0x2a  nanovg_agge.o [1]
  .text                  ro code  0x6021'de28      0x76  nanovg_agge.o [1]
  .text                  ro code  0x6021'de9e      0x9a  nanovg_agge.o [1]
  .text                  ro code  0x6021'df38      0x2a  nanovg_agge.o [1]
  .text                  ro code  0x6021'df62      0x76  nanovg_agge.o [1]
  .text                  ro code  0x6021'dfd8      0x9a  nanovg_agge.o [1]
  .text                  ro code  0x6021'e072      0x2a  nanovg_agge.o [1]
  .text                  ro code  0x6021'e09c      0x76  nanovg_agge.o [1]
  .text                  ro code  0x6021'e112      0x9a  nanovg_agge.o [1]
  .text                  ro code  0x6021'e1ac      0x2a  nanovg_agge.o [1]
  .text                  ro code  0x6021'e1d6      0x76  nanovg_agge.o [1]
  .text                  ro code  0x6021'e24c      0x10  nanovg_agge.o [1]
  .text                  ro code  0x6021'e25c      0x90  nanovg_agge.o [1]
  .text                  ro code  0x6021'e2ec      0x28  nanovg_agge.o [1]
  .text                  ro code  0x6021'e314      0x10  nanovg_agge.o [1]
  .text                  ro code  0x6021'e324      0x90  nanovg_agge.o [1]
  .text                  ro code  0x6021'e3b4      0x28  nanovg_agge.o [1]
  .text                  ro code  0x6021'e3dc      0x10  nanovg_agge.o [1]
  .text                  ro code  0x6021'e3ec      0x90  nanovg_agge.o [1]
  .text                  ro code  0x6021'e47c      0x28  nanovg_agge.o [1]
  .text                  ro code  0x6021'e4a4      0x10  nanovg_agge.o [1]
  .text                  ro code  0x6021'e4b4      0x90  nanovg_agge.o [1]
  .text                  ro code  0x6021'e544      0x28  nanovg_agge.o [1]
  .text                  ro code  0x6021'e56c      0x10  nanovg_agge.o [1]
  .text                  ro code  0x6021'e57c      0x90  nanovg_agge.o [1]
  .text                  ro code  0x6021'e60c      0x28  nanovg_agge.o [1]
  .text                  ro code  0x6021'e634      0x10  nanovg_agge.o [1]
  .text                  ro code  0x6021'e644      0x90  nanovg_agge.o [1]
  .text                  ro code  0x6021'e6d4      0x28  nanovg_agge.o [1]
  .text                  ro code  0x6021'e6fc      0x10  nanovg_agge.o [1]
  .text                  ro code  0x6021'e70c      0x90  nanovg_agge.o [1]
  .text                  ro code  0x6021'e79c      0x28  nanovg_agge.o [1]
  .text                  ro code  0x6021'e7c4      0x32  nanovg_agge.o [1]
  .text                  ro code  0x6021'e7f6      0x26  nanovg_agge.o [1]
  .text                  ro code  0x6021'e81c      0x3a  nanovg_agge.o [1]
  .text                  ro code  0x6021'e856      0x46  nanovg_agge.o [1]
  .text                  ro code  0x6021'e89c      0x32  nanovg_agge.o [1]
  .text                  ro code  0x6021'e8ce      0x26  nanovg_agge.o [1]
  .text                  ro code  0x6021'e8f4      0x3a  nanovg_agge.o [1]
  .text                  ro code  0x6021'e92e      0x46  nanovg_agge.o [1]
  .text                  ro code  0x6021'e974      0x32  nanovg_agge.o [1]
  .text                  ro code  0x6021'e9a6      0x26  nanovg_agge.o [1]
  .text                  ro code  0x6021'e9cc      0x3a  nanovg_agge.o [1]
  .text                  ro code  0x6021'ea06      0x46  nanovg_agge.o [1]
  .text                  ro code  0x6021'ea4c      0x32  nanovg_agge.o [1]
  .text                  ro code  0x6021'ea7e      0x26  nanovg_agge.o [1]
  .text                  ro code  0x6021'eaa4      0x3a  nanovg_agge.o [1]
  .text                  ro code  0x6021'eade      0x46  nanovg_agge.o [1]
  .text                  ro code  0x6021'eb24      0x32  nanovg_agge.o [1]
  .text                  ro code  0x6021'eb56      0x26  nanovg_agge.o [1]
  .text                  ro code  0x6021'eb7c      0x3a  nanovg_agge.o [1]
  .text                  ro code  0x6021'ebb6      0x46  nanovg_agge.o [1]
  .text                  ro code  0x6021'ebfc      0x32  nanovg_agge.o [1]
  .text                  ro code  0x6021'ec2e      0x26  nanovg_agge.o [1]
  .text                  ro code  0x6021'ec54      0x3a  nanovg_agge.o [1]
  .text                  ro code  0x6021'ec8e      0x46  nanovg_agge.o [1]
  .text                  ro code  0x6021'ecd4      0x32  nanovg_agge.o [1]
  .text                  ro code  0x6021'ed06      0x26  nanovg_agge.o [1]
  .text                  ro code  0x6021'ed2c      0x3a  nanovg_agge.o [1]
  .text                  ro code  0x6021'ed66      0x46  nanovg_agge.o [1]
  .text                  ro code  0x6021'edac      0x10  nanovg_agge.o [1]
  .text                  ro code  0x6021'edbc      0x7e  nanovg_agge.o [1]
  .text                  ro code  0x6021'ee3a      0x7e  nanovg_agge.o [1]
  .text                  ro code  0x6021'eeb8      0x7e  nanovg_agge.o [1]
  .text                  ro code  0x6021'ef36      0x7e  nanovg_agge.o [1]
  .text                  ro code  0x6021'efb4      0x46  nanovg_agge.o [1]
  .text                  ro code  0x6021'effa      0x72  nanovg_agge.o [1]
  .text                  ro code  0x6021'f06c      0x72  nanovg_agge.o [1]
  .text                  ro code  0x6021'f0e0     0x18c  nanovg_agge.o [1]
  .text                  ro code  0x6021'f26c      0xb6  nanovg_agge.o [1]
  .text                  ro code  0x6021'f324     0x18c  nanovg_agge.o [1]
  .text                  ro code  0x6021'f4b0     0x18c  nanovg_agge.o [1]
  .text                  ro code  0x6021'f63c     0x19c  nanovg_agge.o [1]
  .text                  ro code  0x6021'f7d8     0x138  nanovg_agge.o [1]
  .text                  ro code  0x6021'f910      0x8e  nanovg_agge.o [1]
  .text                  ro code  0x6021'f99e      0xda  nanovg_agge.o [1]
  .text                  ro code  0x6021'fa78      0xc2  nanovg_agge.o [1]
  .text                  ro code  0x6021'fb3c     0x2b8  svg_image.o [1]
  .rodata                const    0x6021'fdf4      0x24  combo_box_ex.o [1]
  .rodata                const    0x6021'fe18     0x2ac  assets.o [1]
  .rodata                const    0x6022'00c4      0x24  demo_ui_app.o [1]
  .rodata                const    0x6022'00e8     0x2a8  assets.o [1]
  .rodata                const    0x6022'0390     0x2a4  assets.o [1]
  .rodata                const    0x6022'0634      0x24  demo_ui_app.o [1]
  .rodata                const    0x6022'0658     0x29c  assets.o [1]
  .rodata                const    0x6022'08f4      0x24  demo_ui_app.o [1]
  .rodata                const    0x6022'0918     0x298  assets.o [1]
  .text                  ro code  0x6022'0bb0     0x284  gif_image.o [1]
  .text                  ro code  0x6022'0e34     0x278  fsl_flexspi.o [1]
  .text                  ro code  0x6022'10ac     0x278  mutable_image.o [1]
  .rodata                const    0x6022'1324      0x24  demo_ui_app.o [1]
  .rodata                const    0x6022'1348     0x274  assets.o [1]
  .rodata                const    0x6022'15bc      0x24  dialog_highlighter_factory.o [1]
  .rodata                const    0x6022'15e0     0x264  assets.o [1]
  .rodata                const    0x6022'1844      0x24  dialog_highlighter_factory.o [1]
  .rodata                const    0x6022'1868     0x260  assets.o [1]
  .rodata                const    0x6022'1ac8     0x25c  assets.o [1]
  .text                  ro code  0x6022'1d24     0x25c  list_view_h.o [1]
  .rodata                const    0x6022'1f80     0x254  assets.o [1]
  .rodata                const    0x6022'21d4      0x24  dicttrie.o [1]
  .rodata                const    0x6022'21f8     0x250  assets.o [1]
  .rodata                const    0x6022'2448     0x250  assets.o [1]
  .text                  ro code  0x6022'2698     0x250  image.o [1]
  .rodata                const    0x6022'28e8     0x24c  assets.o [1]
  .rodata                const    0x6022'2b34      0x24  enums.o [1]
  .rodata                const    0x6022'2b58     0x24c  assets.o [1]
  .text                  ro code  0x6022'2da4     0x248  list_item.o [1]
  .text                  ro code  0x6022'2fec     0x240  guage.o [1]
  .rodata                const    0x6022'322c      0x24  enums.o [1]
  .rodata                const    0x6022'3250     0x21c  assets.o [1]
  .rodata                const    0x6022'346c      0x24  enums.o [1]
  .rodata                const    0x6022'3490     0x218  assets.o [1]
  .rodata                const    0x6022'36a8     0x214  assets.o [1]
  .rodata                const    0x6022'38bc      0x24  font_loader_stb.o [1]
  .rodata                const    0x6022'38e0     0x214  assets.o [1]
  .rodata                const    0x6022'3af4      0x24  fsl_lpuart.o [1]
  .rodata                const    0x6022'3b18     0x214  assets.o [1]
  .rodata                const    0x6022'3d2c      0x24  lpuart_adapter.o [1]
  .rodata                const    0x6022'3d50     0x210  assets.o [1]
  .rodata                const    0x6022'3f60     0x210  assets.o [1]
  .rodata                const    0x6022'4170     0x20c  assets.o [1]
  .rodata                const    0x6022'437c      0x24  object_default.o [1]
  .rodata                const    0x6022'43a0     0x20c  assets.o [1]
  .rodata                const    0x6022'45ac      0x24  window_animator_factory.o [1]
  .rodata                const    0x6022'45d0     0x20c  assets.o [1]
  .rodata                const    0x6022'47dc      0x24  window_manager_default.o [1]
  .rodata                const    0x6022'4800     0x20c  assets.o [1]
  .rodata                const    0x6022'4a0c      0x24  window_manager_default.o [1]
  .rodata                const    0x6022'4a30     0x20c  assets.o [1]
  .rodata                const    0x6022'4c3c      0x24  typeinfo.o [3]
  .rodata                const    0x6022'4c60     0x208  assets.o [1]
  .rodata                const    0x6022'4e68     0x208  assets.o [1]
  .rodata                const    0x6022'5070     0x208  assets.o [1]
  .rodata                const    0x6022'5278     0x208  assets.o [1]
  .rodata                const    0x6022'5480     0x208  assets.o [1]
  .rodata                const    0x6022'5688     0x208  assets.o [1]
  .rodata                const    0x6022'5890     0x208  assets.o [1]
  .rodata                const    0x6022'5a98     0x204  assets.o [1]
  .text                  ro code  0x6022'5c9c     0x204  dialog_highlighter_default.o [1]
  .text                  ro code  0x6022'5ea0     0x204  window_animator_htranslate.o [1]
  .rodata                const    0x6022'60a4      0x24  typeinfo.o [3]
  .rodata                const    0x6022'60c8     0x200  assets.o [1]
  .text                  ro code  0x6022'62c8     0x1f6  lz77_init.o [5]
  .rodata                const    0x6022'64c0     0x1f4  assets.o [1]
  .text                  ro code  0x6022'66b4     0x1f4  window_animator_vtranslate.o [1]
  .rodata                const    0x6022'68a8     0x1f0  assets.o [1]
  .rodata                const    0x6022'6a98     0x1ec  assets.o [1]
  .rodata                const    0x6022'6c84      0x24  typeinfo.o [3]
  .rodata                const    0x6022'6ca8     0x1e8  assets.o [1]
  .rodata                const    0x6022'6e90     0x1e8  assets.o [1]
  .rodata                const    0x6022'7078     0x1e8  assets.o [1]
  .rodata                const    0x6022'7260     0x1e4  assets.o [1]
  .ARM.extab             const    0x6022'7444      0x1c  cppinit.o [2]
  .rodata                const    0x6022'7460     0x1e0  assets.o [1]
  .rodata                const    0x6022'7640     0x1dc  assets.o [1]
  .rodata                const    0x6022'781c      0x1c  bitmap.o [1]
  .rodata                const    0x6022'7838     0x1d8  assets.o [1]
  .rodata                const    0x6022'7a10     0x1d4  assets.o [1]
  .rodata                const    0x6022'7be4      0x1c  children_layouter_default.o [1]
  .rodata                const    0x6022'7c00     0x1d4  assets.o [1]
  .rodata                const    0x6022'7dd4      0x1c  children_layouter_list_view.o [1]
  .rodata                const    0x6022'7df0     0x1cc  assets.o [1]
  .rodata                const    0x6022'7fbc      0x1c  clip_board_default.o [1]
  .rodata                const    0x6022'7fd8     0x1b8  assets.o [1]
  .rodata                const    0x6022'8190     0x1b4  assets.o [1]
  .rodata                const    0x6022'8344      0x1c  combo_box.o [1]
  .rodata                const    0x6022'8360     0x1b0  assets.o [1]
  .rodata                const    0x6022'8510     0x1a8  assets.o [1]
  .rodata                const    0x6022'86b8     0x1a4  assets.o [1]
  .rodata                const    0x6022'885c      0x1c  combo_box.o [1]
  .rodata                const    0x6022'8878     0x1a4  assets.o [1]
  .rodata                const    0x6022'8a1c      0x1c  combo_box_ex.o [1]
  .rodata                const    0x6022'8a38     0x1a4  assets.o [1]
  .rodata                const    0x6022'8bdc      0x1c  dialog_highlighter.o [1]
  .rodata                const    0x6022'8bf8     0x198  assets.o [1]
  .text                  ro code  0x6022'8d90     0x194  combo_box_ex.o [1]
  .rodata                const    0x6022'8f24      0x1c  dialog_highlighter_default.o [1]
  .rodata                const    0x6022'8f40     0x188  assets.o [1]
  .rodata                const    0x6022'90c8     0x184  assets.o [1]
  .rodata                const    0x6022'924c      0x1c  dicttrie.o [1]
  .rodata                const    0x6022'9268     0x180  assets.o [1]
  .text                  ro code  0x6022'93e8     0x178  system_bar.o [1]
  .text                  ro code  0x6022'9560     0x174  window_animator_center_scale.o [1]
  .text                  ro code  0x6022'96d4     0x174  window_animator_slide.o [1]
  .rodata                const    0x6022'9848     0x16c  assets.o [1]
  .rodata                const    0x6022'99b4      0x1c  fsl_edma.o [1]
  .rodata                const    0x6022'99d0     0x16c  assets.o [1]
  .rodata                const    0x6022'9b3c      0x1c  fsl_lpuart.o [1]
  .rodata                const    0x6022'9b58     0x164  assets.o [1]
  .rodata                const    0x6022'9cbc      0x1c  image_loader_stb.o [1]
  .rodata                const    0x6022'9cd8     0x160  assets.o [1]
  .rodata                const    0x6022'9e38     0x160  assets.o [1]
  .rodata                const    0x6022'9f98     0x15c  assets.o [1]
  .rodata                const    0x6022'a0f4      0x1c  image_loader_stb.o [1]
  .rodata                const    0x6022'a110     0x158  assets.o [1]
  .rodata                const    0x6022'a268     0x154  assets.o [1]
  .text                  ro code  0x6022'a3bc     0x14e  system_MIMXRT1052.o [1]
  .rodata                const    0x6022'a50c      0x1c  image_loader_stb.o [1]
  .rodata                const    0x6022'a528     0x144  assets.o [1]
  .rodata                const    0x6022'a66c      0x1c  image_loader_stb.o [1]
  .rodata                const    0x6022'a688     0x144  assets.o [1]
  .rodata                const    0x6022'a7cc      0x1c  image_loader_stb.o [1]
  .rodata                const    0x6022'a7e8     0x13c  assets.o [1]
  .rodata                const    0x6022'a924      0x1c  image_loader_stb.o [1]
  .rodata                const    0x6022'a940     0x138  assets.o [1]
  .text                  ro code  0x6022'aa78     0x138  fsl_sai.o [1]
  .text                  ro code  0x6022'abb0     0x138  spin_box.o [1]
  .rodata                const    0x6022'ace8     0x134  assets.o [1]
  .rodata                const    0x6022'ae1c      0x1c  input_method_creator.o [1]
  .rodata                const    0x6022'ae38     0x134  assets.o [1]
  .rodata                const    0x6022'af6c      0x1c  linebreak.o [1]
  .rodata                const    0x6022'af88     0x128  assets.o [1]
  .rodata                const    0x6022'b0b0     0x124  assets.o [1]
  .rodata                const    0x6022'b1d4      0x1c  linebreak.o [1]
  .rodata                const    0x6022'b1f0     0x124  assets.o [1]
  .rodata                const    0x6022'b314      0x1c  matrixsearch.o [1]
  .rodata                const    0x6022'b330     0x120  assets.o [1]
  .rodata                const    0x6022'b450     0x120  assets.o [1]
  .rodata                const    0x6022'b570     0x120  assets.o [1]
  .rodata                const    0x6022'b690     0x120  enums.o [1]
  .rodata                const    0x6022'b7b0     0x120  image_loader_stb.o [1]
  .rodata                const    0x6022'b8d0     0x11c  assets.o [1]
  .rodata                const    0x6022'b9ec      0x1c  nanovg.o [1]
  .rodata                const    0x6022'ba08     0x11c  assets.o [1]
  .rodata                const    0x6022'bb24      0x1c  nanovg.o [1]
  .rodata                const    0x6022'bb40     0x11c  assets.o [1]
  .rodata                const    0x6022'bc5c      0x1c  popup.o [1]
  .rodata                const    0x6022'bc78     0x11c  assets.o [1]
  .rodata                const    0x6022'bd94      0x1c  self_layouter_menu.o [1]
  .rodata                const    0x6022'bdb0     0x11c  assets.o [1]
  .rodata                const    0x6022'becc      0x1c  spellingtrie.o [1]
  .rodata                const    0x6022'bee8     0x114  assets.o [1]
  .rodata                const    0x6022'bffc      0x1c  text_edit.o [1]
  .rodata                const    0x6022'c018     0x114  assets.o [1]
  .rodata                const    0x6022'c12c      0x1c  text_selector.o [1]
  .rodata                const    0x6022'c148     0x110  assets.o [1]
  .rodata                const    0x6022'c258     0x110  assets.o [1]
  .rodata                const    0x6022'c368     0x10c  assets.o [1]
  .rodata                const    0x6022'c474      0x1c  time_clock.o [1]
  .rodata                const    0x6022'c490     0x10c  assets.o [1]
  .rodata                const    0x6022'c59c      0x1c  widget.o [1]
  .rodata                const    0x6022'c5b8     0x108  assets.o [1]
  .rodata                const    0x6022'c6c0     0x108  assets.o [1]
  .rodata                const    0x6022'c7c8     0x100  utf8.o [1]
  .rodata                const    0x6022'c8c8      0xf4  assets.o [1]
  .rodata                const    0x6022'c9bc      0x1c  widget_animator_prop.o [1]
  .rodata                const    0x6022'c9d8      0xf4  assets.o [1]
  .rodata                const    0x6022'cacc      0x1c  iar_Raise.o [3]
  .rodata                const    0x6022'cae8      0xf4  assets.o [1]
  .ARM.extab             const    0x6022'cbdc      0x14  arm_exceptions_throw_c.o [5]
  .rodata                const    0x6022'cbf0      0xf4  assets.o [1]
  .rodata                const    0x6022'cce4      0x14  bitmap.o [1]
  .rodata                const    0x6022'ccf8      0xf4  assets.o [1]
  .rodata                const    0x6022'cdec      0x14  bitmap.o [1]
  .rodata                const    0x6022'ce00      0xf0  assets.o [1]
  .text                  ro code  0x6022'cef0      0xf0  fsl_lpspi.o [1]
  .rodata                const    0x6022'cfe0      0xec  assets.o [1]
  .rodata                const    0x6022'd0cc      0x14  button.o [1]
  .rodata                const    0x6022'd0e0      0xe4  assets.o [1]
  .rodata                const    0x6022'd1c4      0x14  children_layouter_default.o [1]
  .rodata                const    0x6022'd1d8      0xdc  assets.o [1]
  .rodata                const    0x6022'd2b4      0x14  children_layouter_list_view.o [1]
  .rodata                const    0x6022'd2c8      0xdc  assets.o [1]
  .text                  ro code  0x6022'd3a4      0xdc  fsl_enet.o [1]
  .rodata                const    0x6022'd480      0xd8  enums.o [1]
  .rodata                const    0x6022'd558      0xd8  vgcanvas_nanovg_soft.o [1]
  .text                  ro code  0x6022'd630      0xc6  nanovg_agge.o [1]
  .text                  ro code  0x6022'd6f6      0x72  nanovg_vertex.o [1]
  .text                  ro code  0x6022'd768      0x24  nanovg_agge.o [1]
  .rodata                const    0x6022'd78c      0x14  color.o [1]
  .rodata                const    0x6022'd7a0      0xc4  assets.o [1]
  .rodata                const    0x6022'd864      0xbc  gt9xx.o [1]
  .rodata                const    0x6022'd920      0xbc  gt9xx.o [1]
  .rodata                const    0x6022'd9dc      0x14  color_parser.o [1]
  .rodata                const    0x6022'd9f0      0xb0  assets.o [1]
  .rodata                const    0x6022'daa0      0xb0  nanovg.o [1]
  .rodata                const    0x6022'db50      0xb0  log.o [4]
  .rodata                const    0x6022'dc00      0xa8  assets.o [1]
  .rodata                const    0x6022'dca8      0xa8  expr_eval.o [1]
  .rodata                const    0x6022'dd50      0xa8  xexp.o [4]
  .text                  ro code  0x6022'ddf8      0xa8  window_animator_fade.o [1]
  .rodata                const    0x6022'dea0      0xa4  assets.o [1]
  .text                  ro code  0x6022'df44      0xa4  nanovg_agge.o [1]
  .text                  ro code  0x6022'dfe8      0x14  nanovg_agge.o [1]
  .text                  ro code  0x6022'dffc      0x42  nanovg_agge.o [1]
  .text                  ro code  0x6022'e03e       0x2  nanovg_agge.o [1]
  .text                  ro code  0x6022'e040      0x62  nanovg_agge.o [1]
  .text                  ro code  0x6022'e0a2      0x36  nanovg_agge.o [1]
  .text                  ro code  0x6022'e0d8      0x38  nanovg_agge.o [1]
  .text                  ro code  0x6022'e110      0x14  nanovg_agge.o [1]
  .text                  ro code  0x6022'e124      0x1a  nanovg_agge.o [1]
  .text                  ro code  0x6022'e13e      0xa4  nanovg_agge.o [1]
  .text                  ro code  0x6022'e1e2      0xa4  nanovg_agge.o [1]
  .text                  ro code  0x6022'e286      0xa4  nanovg_agge.o [1]
  .text                  ro code  0x6022'e32a      0xa4  nanovg_agge.o [1]
  .text                  ro code  0x6022'e3ce      0xa4  nanovg_agge.o [1]
  .text                  ro code  0x6022'e472      0xa0  nanovg_agge.o [1]
  .text                  ro code  0x6022'e512      0xa0  nanovg_agge.o [1]
  .text                  ro code  0x6022'e5b2      0xa0  nanovg_agge.o [1]
  .text                  ro code  0x6022'e652      0xa0  nanovg_agge.o [1]
  .text                  ro code  0x6022'e6f2      0xa0  nanovg_agge.o [1]
  .text                  ro code  0x6022'e792      0xa0  nanovg_agge.o [1]
  .rodata                const    0x6022'e834      0x80  app_bar.o [1]
  .rodata                const    0x6022'e8b4      0x80  button.o [1]
  .rodata                const    0x6022'e934      0x80  button_group.o [1]
  .rodata                const    0x6022'e9b4      0x80  calibration_win.o [1]
  .rodata                const    0x6022'ea34      0x80  candidates.o [1]
  .rodata                const    0x6022'eab4      0x80  canvas_widget.o [1]
  .rodata                const    0x6022'eb34      0x80  check_button.o [1]
  .rodata                const    0x6022'ebb4      0x80  check_button.o [1]
  .rodata                const    0x6022'ec34      0x80  color_component.o [1]
  .rodata                const    0x6022'ecb4      0x80  color_picker.o [1]
  .rodata                const    0x6022'ed34      0x80  color_tile.o [1]
  .rodata                const    0x6022'edb4      0x80  column.o [1]
  .rodata                const    0x6022'ee34      0x80  combo_box.o [1]
  .rodata                const    0x6022'eeb4      0x80  combo_box_item.o [1]
  .rodata                const    0x6022'ef34      0x80  dialog.o [1]
  .rodata                const    0x6022'efb4      0x80  dialog_client.o [1]
  .rodata                const    0x6022'f034      0x80  dialog_title.o [1]
  .rodata                const    0x6022'f0b4      0x80  digit_clock.o [1]
  .rodata                const    0x6022'f134      0x80  draggable.o [1]
  .rodata                const    0x6022'f1b4      0x80  dragger.o [1]
  .rodata                const    0x6022'f234      0x80  edit.o [1]
  .rodata                const    0x6022'f2b4      0x80  gif_image.o [1]
  .rodata                const    0x6022'f334      0x80  grid.o [1]
  .rodata                const    0x6022'f3b4      0x80  grid_item.o [1]
  .rodata                const    0x6022'f434      0x80  group_box.o [1]
  .rodata                const    0x6022'f4b4      0x80  guage.o [1]
  .rodata                const    0x6022'f534      0x80  guage_pointer.o [1]
  .rodata                const    0x6022'f5b4      0x80  hscroll_label.o [1]
  .rodata                const    0x6022'f634      0x80  image.o [1]
  .rodata                const    0x6022'f6b4      0x80  image_animation.o [1]
  .rodata                const    0x6022'f734      0x80  image_base.o [1]
  .rodata                const    0x6022'f7b4      0x80  image_loader_stb.o [1]
  .rodata                const    0x6022'f834      0x80  image_loader_stb.o [1]
  .rodata                const    0x6022'f8b4      0x80  image_value.o [1]
  .rodata                const    0x6022'f934      0x80  keyboard.o [1]
  .rodata                const    0x6022'f9b4      0x80  label.o [1]
  .rodata                const    0x6022'fa34      0x80  line_number.o [1]
  .rodata                const    0x6022'fab4      0x80  list_item.o [1]
  .rodata                const    0x6022'fb34      0x80  list_view.o [1]
  .rodata                const    0x6022'fbb4      0x80  list_view_h.o [1]
  .rodata                const    0x6022'fc34      0x80  mledit.o [1]
  .rodata                const    0x6022'fcb4      0x80  mutable_image.o [1]
  .rodata                const    0x6022'fd34      0x80  nanovg.o [1]
  .rodata                const    0x6022'fdb4      0x80  overlay.o [1]
  .rodata                const    0x6022'fe34      0x80  pages.o [1]
  .rodata                const    0x6022'feb4      0x80  popup.o [1]
  .rodata                const    0x6022'ff34      0x80  progress_bar.o [1]
  .rodata                const    0x6022'ffb4      0x80  progress_circle.o [1]
  .rodata                const    0x6023'0034      0x80  rich_text.o [1]
  .rodata                const    0x6023'00b4      0x80  row.o [1]
  .rodata                const    0x6023'0134      0x80  scroll_bar.o [1]
  .rodata                const    0x6023'01b4      0x80  scroll_bar.o [1]
  .rodata                const    0x6023'0234      0x80  scroll_view.o [1]
  .rodata                const    0x6023'02b4      0x80  slide_indicator.o [1]
  .rodata                const    0x6023'0334      0x80  slide_indicator.o [1]
  .rodata                const    0x6023'03b4      0x80  slide_menu.o [1]
  .rodata                const    0x6023'0434      0x80  slide_view.o [1]
  .rodata                const    0x6023'04b4      0x80  slider.o [1]
  .rodata                const    0x6023'0534      0x80  spin_box.o [1]
  .rodata                const    0x6023'05b4      0x80  svg_image.o [1]
  .rodata                const    0x6023'0634      0x80  switch.o [1]
  .rodata                const    0x6023'06b4      0x80  system_bar.o [1]
  .rodata                const    0x6023'0734      0x80  tab_button.o [1]
  .rodata                const    0x6023'07b4      0x80  tab_button_group.o [1]
  .rodata                const    0x6023'0834      0x80  tab_control.o [1]
  .rodata                const    0x6023'08b4      0x80  text_selector.o [1]
  .rodata                const    0x6023'0934      0x80  time_clock.o [1]
  .rodata                const    0x6023'09b4      0x80  view.o [1]
  .rodata                const    0x6023'0a34      0x80  widget_vtable.o [1]
  .rodata                const    0x6023'0ab4      0x80  window.o [1]
  .rodata                const    0x6023'0b34      0x80  window_base.o [1]
  .rodata                const    0x6023'0bb4      0x80  window_manager_default.o [1]
  .rodata                const    0x6023'0c34      0x78  enums.o [1]
  .rodata                const    0x6023'0cac      0x70  nanovg_agge.o [1]
  .rodata                const    0x6023'0d1c      0x70  nanovg_agge.o [1]
  .rodata                const    0x6023'0d8c      0x70  nanovg_agge.o [1]
  .rodata                const    0x6023'0dfc      0x70  nanovg_agge.o [1]
  .rodata                const    0x6023'0e6c      0x70  nanovg_agge.o [1]
  .rodata                const    0x6023'0edc      0x70  nanovg_agge.o [1]
  .text                  ro code  0x6023'0f4c      0x6c  fsl_flexcan.o [1]
  .text                  ro code  0x6023'0fb8      0x6c  arm_exceptions_endcatch_c.o [5]
  .text                  ro code  0x6023'1024      0x1e  arm_exceptions_dep_free_c.o [5]
  .text                  ro code  0x6023'1042      0x22  arm_exceptions_dec_refcount_c.o [5]
  .rodata                const    0x6023'1064      0x60  children_layouter_list_view.o [1]
  .rodata                const    0x6023'10c4      0x60  easing.o [1]
  .rodata                const    0x6023'1124      0x60  enums.o [1]
  .rodata                const    0x6023'1184      0x60  font_loader_stb.o [1]
  .rodata                const    0x6023'11e4      0x60  linebreakdef.o [1]
  .rodata                const    0x6023'1244      0x60  linebreakdef.o [1]
  .rodata                const    0x6023'12a4      0x60  linebreakdef.o [1]
  .rodata                const    0x6023'1304      0x60  window_animator_common.o [1]
  .text                  ro code  0x6023'1364      0x5c  fsl_flexio.o [1]
  .rodata                const    0x6023'13c0      0x58  fsl_debug_console.o [1]
  .rodata                const    0x6023'1418      0x58  rich_text_render_node.o [1]
  .rodata                const    0x6023'1470      0x58  self_layouter_default.o [1]
  .rodata                const    0x6023'14c8      0x58  vgcanvas_nanovg_soft.o [1]
  .rodata                const    0x6023'1520      0x50  gt9xx.o [1]
  .rodata                const    0x6023'1570      0x50  image_loader_stb.o [1]
  .rodata                const    0x6023'15c0      0x50  matrixsearch.o [1]
  .rodata                const    0x6023'1610      0x50  nanovg_agge.o [1]
  .rodata                const    0x6023'1660      0x50  nanovg_agge.o [1]
  .rodata                const    0x6023'16b0      0x50  nanovg_agge.o [1]
  .rodata                const    0x6023'1700      0x50  nanovg_agge.o [1]
  .rodata                const    0x6023'1750      0x50  nanovg_agge.o [1]
  .rodata                const    0x6023'17a0      0x50  nanovg_agge.o [1]
  .rodata                const    0x6023'17f0      0x50  nanovg_agge.o [1]
  .rodata                const    0x6023'1840      0x50  spellingtrie.o [1]
  .rodata                const    0x6023'1890      0x50  unibreakdef.o [1]
  .rodata                const    0x6023'18e0      0x48  assets.o [1]
  .rodata                const    0x6023'1928      0x48  dicttrie.o [1]
  .rodata                const    0x6023'1970      0x48  fill_image_abgr8888.o [1]
